{
  "abi": [
    {
      "inputs": [
        {
          "internalType": "string",
          "name": "_BASE_URI",
          "type": "string"
        },
        {
          "internalType": "contract Soul",
          "name": "_soul",
          "type": "address"
        }
      ],
      "stateMutability": "nonpayable",
      "type": "constructor"
    },
    {
      "anonymous": false,
      "inputs": [
        {
          "indexed": true,
          "internalType": "address",
          "name": "owner",
          "type": "address"
        },
        {
          "indexed": true,
          "internalType": "address",
          "name": "approved",
          "type": "address"
        },
        {
          "indexed": true,
          "internalType": "uint256",
          "name": "tokenId",
          "type": "uint256"
        }
      ],
      "name": "Approval",
      "type": "event"
    },
    {
      "anonymous": false,
      "inputs": [
        {
          "indexed": true,
          "internalType": "address",
          "name": "owner",
          "type": "address"
        },
        {
          "indexed": true,
          "internalType": "address",
          "name": "operator",
          "type": "address"
        },
        {
          "indexed": false,
          "internalType": "bool",
          "name": "approved",
          "type": "bool"
        }
      ],
      "name": "ApprovalForAll",
      "type": "event"
    },
    {
      "anonymous": false,
      "inputs": [
        {
          "indexed": true,
          "internalType": "address",
          "name": "previousOwner",
          "type": "address"
        },
        {
          "indexed": true,
          "internalType": "address",
          "name": "newOwner",
          "type": "address"
        }
      ],
      "name": "OwnershipTransferred",
      "type": "event"
    },
    {
      "anonymous": false,
      "inputs": [
        {
          "indexed": false,
          "internalType": "address",
          "name": "account",
          "type": "address"
        }
      ],
      "name": "Paused",
      "type": "event"
    },
    {
      "anonymous": false,
      "inputs": [
        {
          "indexed": true,
          "internalType": "address",
          "name": "from",
          "type": "address"
        },
        {
          "indexed": true,
          "internalType": "address",
          "name": "to",
          "type": "address"
        },
        {
          "indexed": true,
          "internalType": "uint256",
          "name": "tokenId",
          "type": "uint256"
        }
      ],
      "name": "Transfer",
      "type": "event"
    },
    {
      "anonymous": false,
      "inputs": [
        {
          "indexed": false,
          "internalType": "address",
          "name": "account",
          "type": "address"
        }
      ],
      "name": "Unpaused",
      "type": "event"
    },
    {
      "anonymous": false,
      "inputs": [
        {
          "indexed": false,
          "internalType": "uint256",
          "name": "tokenId",
          "type": "uint256"
        }
      ],
      "name": "onCelestialCreated",
      "type": "event"
    },
    {
      "anonymous": false,
      "inputs": [
        {
          "indexed": false,
          "internalType": "uint256",
          "name": "tokenId",
          "type": "uint256"
        },
        {
          "indexed": false,
          "internalType": "uint256",
          "name": "celestialType",
          "type": "uint256"
        }
      ],
      "name": "onCelestialRevealed",
      "type": "event"
    },
    {
      "inputs": [],
      "name": "ANGEL_TYPE",
      "outputs": [
        {
          "internalType": "uint256",
          "name": "",
          "type": "uint256"
        }
      ],
      "stateMutability": "view",
      "type": "function"
    },
    {
      "inputs": [],
      "name": "AngelsMinted",
      "outputs": [
        {
          "internalType": "uint256",
          "name": "",
          "type": "uint256"
        }
      ],
      "stateMutability": "view",
      "type": "function"
    },
    {
      "inputs": [],
      "name": "BASE_URI",
      "outputs": [
        {
          "internalType": "string",
          "name": "",
          "type": "string"
        }
      ],
      "stateMutability": "view",
      "type": "function"
    },
    {
      "inputs": [],
      "name": "CELESTIAL_PER_SOUL_MINT_LEVEL",
      "outputs": [
        {
          "internalType": "uint256",
          "name": "",
          "type": "uint256"
        }
      ],
      "stateMutability": "view",
      "type": "function"
    },
    {
      "inputs": [],
      "name": "CELESTIAL_PRICE_AVAX",
      "outputs": [
        {
          "internalType": "uint256",
          "name": "",
          "type": "uint256"
        }
      ],
      "stateMutability": "view",
      "type": "function"
    },
    {
      "inputs": [],
      "name": "CELESTIAL_PRICE_WHITELIST",
      "outputs": [
        {
          "internalType": "uint256",
          "name": "",
          "type": "uint256"
        }
      ],
      "stateMutability": "view",
      "type": "function"
    },
    {
      "inputs": [],
      "name": "CelestialsMinted",
      "outputs": [
        {
          "internalType": "uint256",
          "name": "",
          "type": "uint256"
        }
      ],
      "stateMutability": "view",
      "type": "function"
    },
    {
      "inputs": [],
      "name": "CelestialsMintedWhitelist",
      "outputs": [
        {
          "internalType": "uint256",
          "name": "",
          "type": "uint256"
        }
      ],
      "stateMutability": "view",
      "type": "function"
    },
    {
      "inputs": [],
      "name": "CelestialsMintedWithAVAX",
      "outputs": [
        {
          "internalType": "uint256",
          "name": "",
          "type": "uint256"
        }
      ],
      "stateMutability": "view",
      "type": "function"
    },
    {
      "inputs": [],
      "name": "CelestialsMintedWithSOUL",
      "outputs": [
        {
          "internalType": "uint256",
          "name": "",
          "type": "uint256"
        }
      ],
      "stateMutability": "view",
      "type": "function"
    },
    {
      "inputs": [
        {
          "internalType": "address",
          "name": "_owner",
          "type": "address"
        }
      ],
      "name": "CelestialsOfOwner",
      "outputs": [
        {
          "components": [
            {
              "internalType": "uint256",
              "name": "tokenId",
              "type": "uint256"
            },
            {
              "internalType": "uint256",
              "name": "celestialType",
              "type": "uint256"
            }
          ],
          "internalType": "struct Celestial.CelestialInfo[]",
          "name": "",
          "type": "tuple[]"
        }
      ],
      "stateMutability": "view",
      "type": "function"
    },
    {
      "inputs": [],
      "name": "DEMON_TYPE",
      "outputs": [
        {
          "internalType": "uint256",
          "name": "",
          "type": "uint256"
        }
      ],
      "stateMutability": "view",
      "type": "function"
    },
    {
      "inputs": [],
      "name": "DemonsMinted",
      "outputs": [
        {
          "internalType": "uint256",
          "name": "",
          "type": "uint256"
        }
      ],
      "stateMutability": "view",
      "type": "function"
    },
    {
      "inputs": [
        {
          "internalType": "address",
          "name": "_owner",
          "type": "address"
        }
      ],
      "name": "GetTokenIdsOfOwner",
      "outputs": [
        {
          "internalType": "uint256[]",
          "name": "",
          "type": "uint256[]"
        }
      ],
      "stateMutability": "view",
      "type": "function"
    },
    {
      "inputs": [],
      "name": "NEPHILIM_TYPE",
      "outputs": [
        {
          "internalType": "uint256",
          "name": "",
          "type": "uint256"
        }
      ],
      "stateMutability": "view",
      "type": "function"
    },
    {
      "inputs": [],
      "name": "NUM_GEN0_CELESTIAL",
      "outputs": [
        {
          "internalType": "uint256",
          "name": "",
          "type": "uint256"
        }
      ],
      "stateMutability": "view",
      "type": "function"
    },
    {
      "inputs": [],
      "name": "NUM_GEN1_CELESTIAL",
      "outputs": [
        {
          "internalType": "uint256",
          "name": "",
          "type": "uint256"
        }
      ],
      "stateMutability": "view",
      "type": "function"
    },
    {
      "inputs": [],
      "name": "NephilimsMinted",
      "outputs": [
        {
          "internalType": "uint256",
          "name": "",
          "type": "uint256"
        }
      ],
      "stateMutability": "view",
      "type": "function"
    },
    {
      "inputs": [],
      "name": "Stake",
      "outputs": [
        {
          "internalType": "address",
          "name": "",
          "type": "address"
        }
      ],
      "stateMutability": "view",
      "type": "function"
    },
    {
      "inputs": [
        {
          "internalType": "address",
          "name": "to",
          "type": "address"
        },
        {
          "internalType": "uint256",
          "name": "tokenId",
          "type": "uint256"
        }
      ],
      "name": "approve",
      "outputs": [],
      "stateMutability": "nonpayable",
      "type": "function"
    },
    {
      "inputs": [
        {
          "internalType": "address",
          "name": "_owner",
          "type": "address"
        },
        {
          "internalType": "uint256",
          "name": "_page",
          "type": "uint256"
        }
      ],
      "name": "bachedCelestialsOfOwner",
      "outputs": [
        {
          "components": [
            {
              "internalType": "uint256",
              "name": "tokenId",
              "type": "uint256"
            },
            {
              "internalType": "uint256",
              "name": "celestialType",
              "type": "uint256"
            }
          ],
          "internalType": "struct Celestial.CelestialInfo[]",
          "name": "",
          "type": "tuple[]"
        }
      ],
      "stateMutability": "view",
      "type": "function"
    },
    {
      "inputs": [
        {
          "internalType": "address",
          "name": "owner",
          "type": "address"
        }
      ],
      "name": "balanceOf",
      "outputs": [
        {
          "internalType": "uint256",
          "name": "",
          "type": "uint256"
        }
      ],
      "stateMutability": "view",
      "type": "function"
    },
    {
      "inputs": [],
      "name": "celestialverseAddress",
      "outputs": [
        {
          "internalType": "address",
          "name": "",
          "type": "address"
        }
      ],
      "stateMutability": "view",
      "type": "function"
    },
    {
      "inputs": [],
      "name": "currentSOULMintCost",
      "outputs": [
        {
          "internalType": "uint256",
          "name": "",
          "type": "uint256"
        }
      ],
      "stateMutability": "view",
      "type": "function"
    },
    {
      "inputs": [
        {
          "internalType": "uint256",
          "name": "tokenId",
          "type": "uint256"
        }
      ],
      "name": "exist",
      "outputs": [
        {
          "internalType": "bool",
          "name": "",
          "type": "bool"
        }
      ],
      "stateMutability": "view",
      "type": "function"
    },
    {
      "inputs": [
        {
          "internalType": "contract IERC20",
          "name": "_token",
          "type": "address"
        },
        {
          "internalType": "uint256",
          "name": "_amount",
          "type": "uint256"
        },
        {
          "internalType": "address",
          "name": "target",
          "type": "address"
        }
      ],
      "name": "forwardERC20s",
      "outputs": [],
      "stateMutability": "nonpayable",
      "type": "function"
    },
    {
      "inputs": [
        {
          "internalType": "uint256",
          "name": "tokenId",
          "type": "uint256"
        }
      ],
      "name": "getApproved",
      "outputs": [
        {
          "internalType": "address",
          "name": "",
          "type": "address"
        }
      ],
      "stateMutability": "view",
      "type": "function"
    },
    {
      "inputs": [
        {
          "internalType": "uint256",
          "name": "_tokenId",
          "type": "uint256"
        }
      ],
      "name": "getType",
      "outputs": [
        {
          "internalType": "uint256",
          "name": "",
          "type": "uint256"
        }
      ],
      "stateMutability": "view",
      "type": "function"
    },
    {
      "inputs": [
        {
          "internalType": "address",
          "name": "owner",
          "type": "address"
        },
        {
          "internalType": "address",
          "name": "operator",
          "type": "address"
        }
      ],
      "name": "isApprovedForAll",
      "outputs": [
        {
          "internalType": "bool",
          "name": "",
          "type": "bool"
        }
      ],
      "stateMutability": "view",
      "type": "function"
    },
    {
      "inputs": [],
      "name": "merkleRoot",
      "outputs": [
        {
          "internalType": "bytes32",
          "name": "",
          "type": "bytes32"
        }
      ],
      "stateMutability": "view",
      "type": "function"
    },
    {
      "inputs": [
        {
          "internalType": "bytes32[]",
          "name": "_merkleProof",
          "type": "bytes32[]"
        },
        {
          "internalType": "uint256",
          "name": "qty",
          "type": "uint256"
        },
        {
          "internalType": "uint256[]",
          "name": "tokenIds",
          "type": "uint256[]"
        },
        {
          "internalType": "uint256[]",
          "name": "celestialTypes",
          "type": "uint256[]"
        }
      ],
      "name": "mintCelestialWhitelist",
      "outputs": [],
      "stateMutability": "payable",
      "type": "function"
    },
    {
      "inputs": [
        {
          "internalType": "uint256",
          "name": "qty",
          "type": "uint256"
        },
        {
          "internalType": "uint256[]",
          "name": "tokenIds",
          "type": "uint256[]"
        },
        {
          "internalType": "uint256[]",
          "name": "celestialTypes",
          "type": "uint256[]"
        }
      ],
      "name": "mintCelestialWithAVAX",
      "outputs": [],
      "stateMutability": "payable",
      "type": "function"
    },
    {
      "inputs": [
        {
          "internalType": "uint256",
          "name": "qty",
          "type": "uint256"
        },
        {
          "internalType": "uint256[]",
          "name": "tokenIds",
          "type": "uint256[]"
        },
        {
          "internalType": "uint256[]",
          "name": "celestialTypes",
          "type": "uint256[]"
        }
      ],
      "name": "mintCelestialWithSoul",
      "outputs": [],
      "stateMutability": "nonpayable",
      "type": "function"
    },
    {
      "inputs": [],
      "name": "mintingStartedAVAX",
      "outputs": [
        {
          "internalType": "bool",
          "name": "",
          "type": "bool"
        }
      ],
      "stateMutability": "view",
      "type": "function"
    },
    {
      "inputs": [],
      "name": "mintingStartedSOUL",
      "outputs": [
        {
          "internalType": "bool",
          "name": "",
          "type": "bool"
        }
      ],
      "stateMutability": "view",
      "type": "function"
    },
    {
      "inputs": [],
      "name": "name",
      "outputs": [
        {
          "internalType": "string",
          "name": "",
          "type": "string"
        }
      ],
      "stateMutability": "view",
      "type": "function"
    },
    {
      "inputs": [],
      "name": "owner",
      "outputs": [
        {
          "internalType": "address",
          "name": "",
          "type": "address"
        }
      ],
      "stateMutability": "view",
      "type": "function"
    },
    {
      "inputs": [
        {
          "internalType": "uint256",
          "name": "tokenId",
          "type": "uint256"
        }
      ],
      "name": "ownerOf",
      "outputs": [
        {
          "internalType": "address",
          "name": "",
          "type": "address"
        }
      ],
      "stateMutability": "view",
      "type": "function"
    },
    {
      "inputs": [],
      "name": "paused",
      "outputs": [
        {
          "internalType": "bool",
          "name": "",
          "type": "bool"
        }
      ],
      "stateMutability": "view",
      "type": "function"
    },
    {
      "inputs": [],
      "name": "renounceOwnership",
      "outputs": [],
      "stateMutability": "nonpayable",
      "type": "function"
    },
    {
      "inputs": [
        {
          "internalType": "address",
          "name": "from",
          "type": "address"
        },
        {
          "internalType": "address",
          "name": "to",
          "type": "address"
        },
        {
          "internalType": "uint256",
          "name": "tokenId",
          "type": "uint256"
        }
      ],
      "name": "safeTransferFrom",
      "outputs": [],
      "stateMutability": "nonpayable",
      "type": "function"
    },
    {
      "inputs": [
        {
          "internalType": "address",
          "name": "from",
          "type": "address"
        },
        {
          "internalType": "address",
          "name": "to",
          "type": "address"
        },
        {
          "internalType": "uint256",
          "name": "tokenId",
          "type": "uint256"
        },
        {
          "internalType": "bytes",
          "name": "_data",
          "type": "bytes"
        }
      ],
      "name": "safeTransferFrom",
      "outputs": [],
      "stateMutability": "nonpayable",
      "type": "function"
    },
    {
      "inputs": [
        {
          "internalType": "address",
          "name": "operator",
          "type": "address"
        },
        {
          "internalType": "bool",
          "name": "approved",
          "type": "bool"
        }
      ],
      "name": "setApprovalForAll",
      "outputs": [],
      "stateMutability": "nonpayable",
      "type": "function"
    },
    {
      "inputs": [
        {
          "internalType": "string",
          "name": "_BASE_URI",
          "type": "string"
        }
      ],
      "name": "setBaseURI",
      "outputs": [],
      "stateMutability": "nonpayable",
      "type": "function"
    },
    {
      "inputs": [
        {
          "internalType": "bytes32",
          "name": "_merkleRoot",
          "type": "bytes32"
        }
      ],
      "name": "setMerkleRoot",
      "outputs": [],
      "stateMutability": "nonpayable",
      "type": "function"
    },
    {
      "inputs": [
        {
          "internalType": "address",
          "name": "_stake",
          "type": "address"
        }
      ],
      "name": "setStake",
      "outputs": [],
      "stateMutability": "nonpayable",
      "type": "function"
    },
    {
      "inputs": [
        {
          "internalType": "uint256",
          "name": "_startTime",
          "type": "uint256"
        }
      ],
      "name": "setStartTimeAVAX",
      "outputs": [],
      "stateMutability": "nonpayable",
      "type": "function"
    },
    {
      "inputs": [
        {
          "internalType": "uint256",
          "name": "_startTime",
          "type": "uint256"
        }
      ],
      "name": "setStartTimeSOUL",
      "outputs": [],
      "stateMutability": "nonpayable",
      "type": "function"
    },
    {
      "inputs": [],
      "name": "soul",
      "outputs": [
        {
          "internalType": "contract Soul",
          "name": "",
          "type": "address"
        }
      ],
      "stateMutability": "view",
      "type": "function"
    },
    {
      "inputs": [],
      "name": "startTimeAVAX",
      "outputs": [
        {
          "internalType": "uint256",
          "name": "",
          "type": "uint256"
        }
      ],
      "stateMutability": "view",
      "type": "function"
    },
    {
      "inputs": [],
      "name": "startTimeSOUL",
      "outputs": [
        {
          "internalType": "uint256",
          "name": "",
          "type": "uint256"
        }
      ],
      "stateMutability": "view",
      "type": "function"
    },
    {
      "inputs": [
        {
          "internalType": "bytes4",
          "name": "interfaceId",
          "type": "bytes4"
        }
      ],
      "name": "supportsInterface",
      "outputs": [
        {
          "internalType": "bool",
          "name": "",
          "type": "bool"
        }
      ],
      "stateMutability": "view",
      "type": "function"
    },
    {
      "inputs": [],
      "name": "symbol",
      "outputs": [
        {
          "internalType": "string",
          "name": "",
          "type": "string"
        }
      ],
      "stateMutability": "view",
      "type": "function"
    },
    {
      "inputs": [
        {
          "internalType": "uint256",
          "name": "index",
          "type": "uint256"
        }
      ],
      "name": "tokenByIndex",
      "outputs": [
        {
          "internalType": "uint256",
          "name": "",
          "type": "uint256"
        }
      ],
      "stateMutability": "view",
      "type": "function"
    },
    {
      "inputs": [
        {
          "internalType": "address",
          "name": "owner",
          "type": "address"
        },
        {
          "internalType": "uint256",
          "name": "index",
          "type": "uint256"
        }
      ],
      "name": "tokenOfOwnerByIndex",
      "outputs": [
        {
          "internalType": "uint256",
          "name": "",
          "type": "uint256"
        }
      ],
      "stateMutability": "view",
      "type": "function"
    },
    {
      "inputs": [
        {
          "internalType": "uint256",
          "name": "",
          "type": "uint256"
        }
      ],
      "name": "tokenTypes",
      "outputs": [
        {
          "internalType": "uint256",
          "name": "",
          "type": "uint256"
        }
      ],
      "stateMutability": "view",
      "type": "function"
    },
    {
      "inputs": [
        {
          "internalType": "uint256",
          "name": "tokenId",
          "type": "uint256"
        }
      ],
      "name": "tokenURI",
      "outputs": [
        {
          "internalType": "string",
          "name": "",
          "type": "string"
        }
      ],
      "stateMutability": "view",
      "type": "function"
    },
    {
      "inputs": [],
      "name": "totalSupply",
      "outputs": [
        {
          "internalType": "uint256",
          "name": "",
          "type": "uint256"
        }
      ],
      "stateMutability": "view",
      "type": "function"
    },
    {
      "inputs": [
        {
          "internalType": "address",
          "name": "from",
          "type": "address"
        },
        {
          "internalType": "address",
          "name": "to",
          "type": "address"
        },
        {
          "internalType": "uint256",
          "name": "tokenId",
          "type": "uint256"
        }
      ],
      "name": "transferFrom",
      "outputs": [],
      "stateMutability": "nonpayable",
      "type": "function"
    },
    {
      "inputs": [
        {
          "internalType": "address",
          "name": "newOwner",
          "type": "address"
        }
      ],
      "name": "transferOwnership",
      "outputs": [],
      "stateMutability": "nonpayable",
      "type": "function"
    },
    {
      "inputs": [
        {
          "internalType": "address",
          "name": "",
          "type": "address"
        }
      ],
      "name": "whitelistClaimed",
      "outputs": [
        {
          "internalType": "uint256",
          "name": "",
          "type": "uint256"
        }
      ],
      "stateMutability": "view",
      "type": "function"
    },
    {
      "inputs": [
        {
          "internalType": "uint256",
          "name": "_amount",
          "type": "uint256"
        }
      ],
      "name": "withdrawAVAX",
      "outputs": [],
      "stateMutability": "payable",
      "type": "function"
    }
  ],
  "bytecode": "608060405269043c33c1937564800000600b5560006015553480156200002457600080fd5b5060405162003de638038062003de683398101604081905262000047916200027c565b6040518060400160405280601481526020017f43656c65737469616c2056657273652047616d650000000000000000000000008152506040518060400160405280601481526020017f43454c45535449414c2d56455253452d47414d450000000000000000000000008152508160009080519060200190620000cb929190620001a3565b508051620000e1906001906020840190620001a3565b505050620000fe620000f86200014d60201b60201c565b62000151565b600a805460ff60a01b19169055600060155581516200012590600f906020850190620001a3565b50600c80546001600160a01b0319166001600160a01b039290921691909117905550620003a9565b3390565b600a80546001600160a01b038381166001600160a01b0319831681179093556040519116919082907f8be0079c531659141344cd1fd0a4f28419497f9722a3daafe3b4186f6b6457e090600090a35050565b828054620001b1906200036d565b90600052602060002090601f016020900481019282620001d5576000855562000220565b82601f10620001f057805160ff191683800117855562000220565b8280016001018555821562000220579182015b828111156200022057825182559160200191906001019062000203565b506200022e92915062000232565b5090565b5b808211156200022e576000815560010162000233565b634e487b7160e01b600052604160045260246000fd5b80516001600160a01b03811681146200027757600080fd5b919050565b600080604083850312156200029057600080fd5b82516001600160401b0380821115620002a857600080fd5b818501915085601f830112620002bd57600080fd5b815181811115620002d257620002d262000249565b604051601f8201601f19908116603f01168101908382118183101715620002fd57620002fd62000249565b816040528281526020935088848487010111156200031a57600080fd5b600091505b828210156200033e57848201840151818301850152908301906200031f565b82821115620003505760008484830101525b9550620003629150508582016200025f565b925050509250929050565b600181811c908216806200038257607f821691505b602082108103620003a357634e487b7160e01b600052602260045260246000fd5b50919050565b613a2d80620003b96000396000f3fe6080604052600436106103ad5760003560e01c8063758c0b9e116101e7578063b4fad9af1161010d578063e7b27af7116100a0578063e9f169f71161006f578063e9f169f714610a88578063f2fde38b14610a9e578063f7be4f1114610abe578063ff2a765614610ad357600080fd5b8063e7b27af7146109f3578063e7c235b914610a09578063e7d97e5214610a29578063e985e9c514610a3f57600080fd5b8063db4bec44116100dc578063db4bec4414610971578063dbddb26a1461099e578063de20bc92146109b3578063e2ea1319146109d357600080fd5b8063b4fad9af146108f5578063b88d4fde14610911578063bc7d403414610931578063c87b56dd1461095157600080fd5b80639ea6db3d11610185578063a756a1df11610154578063a756a1df146108a3578063a7d5ec2d146108b9578063aeb5cd5e146108cc578063aff9efe8146108df57600080fd5b80639ea6db3d1461082b578063a22cb46514610858578063a377d7ef14610878578063a682f8621461088d57600080fd5b8063815b7a8c116101c1578063815b7a8c146107c25780638da5cb5b146107e257806395d89b41146108005780639b76dbca1461081557600080fd5b8063758c0b9e146107795780637b82fda61461078f5780637cb64759146107a257600080fd5b806333f6832a116102d75780635c975abb1161026a57806370022bda1161023957806370022bda1461070157806370a082311461072e578063715018a61461074e57806373033bda1461076357600080fd5b80635c975abb146106965780636352211e146106b557806365e940a2146106d55780636b988176146106eb57600080fd5b806343f37b98116102a657806343f37b98146106165780634ebbc92a146106365780634f6ccce71461065657806355f804b31461067657600080fd5b806333f6832a146105895780633c1d4de7146105b65780634036ab78146105d657806342842e0e146105f657600080fd5b8063200ed8551161034f5780632cfb18b11161031e5780632cfb18b1146105215780632eb4a7ab1461053d5780632f745c591461055357806332a2ec411461057357600080fd5b8063200ed855146104b757806323b872dd146104d75780632a6414b0146104f75780632b95b7321461050c57600080fd5b8063095ea7b31161038b578063095ea7b31461044157806311a2428a1461046357806318160ddd146104785780631dbb64ba1461049757600080fd5b806301ffc9a7146103b257806306fdde03146103e7578063081812fc14610409575b600080fd5b3480156103be57600080fd5b506103d26103cd366004612ffe565b610ae9565b60405190151581526020015b60405180910390f35b3480156103f357600080fd5b506103fc610b14565b6040516103de9190613073565b34801561041557600080fd5b50610429610424366004613086565b610ba6565b6040516001600160a01b0390911681526020016103de565b34801561044d57600080fd5b5061046161045c3660046130b4565b610c33565b005b34801561046f57600080fd5b506103d2610d48565b34801561048457600080fd5b506008545b6040519081526020016103de565b3480156104a357600080fd5b506104616104b236600461319c565b610d64565b3480156104c357600080fd5b506104616104d2366004613086565b610fd4565b3480156104e357600080fd5b506104616104f2366004613209565b611053565b34801561050357600080fd5b50610489600181565b34801561051857600080fd5b50610489600281565b34801561052d57600080fd5b5061048967120a871cc002000081565b34801561054957600080fd5b5061048960105481565b34801561055f57600080fd5b5061048961056e3660046130b4565b611084565b34801561057f57600080fd5b5061048960165481565b34801561059557600080fd5b506104896105a4366004613086565b601b6020526000908152604090205481565b3480156105c257600080fd5b506104616105d1366004613086565b61111a565b3480156105e257600080fd5b506104896105f1366004613086565b611199565b34801561060257600080fd5b50610461610611366004613209565b6111fa565b34801561062257600080fd5b5061046161063136600461324a565b611215565b34801561064257600080fd5b506103d2610651366004613086565b611253565b34801561066257600080fd5b50610489610671366004613086565b61125e565b34801561068257600080fd5b5061046161069136600461328c565b6112f1565b3480156106a257600080fd5b50600a54600160a01b900460ff166103d2565b3480156106c157600080fd5b506104296106d0366004613086565b611327565b3480156106e157600080fd5b5061048960125481565b3480156106f757600080fd5b5061048961138881565b34801561070d57600080fd5b5061072161071c3660046132fe565b61139e565b6040516103de919061331b565b34801561073a57600080fd5b506104896107493660046132fe565b61146e565b34801561075a57600080fd5b506104616114f5565b34801561076f57600080fd5b5061048961271081565b34801561078557600080fd5b5061048960175481565b61046161079d36600461335f565b61152b565b3480156107ae57600080fd5b506104616107bd366004613086565b61174d565b3480156107ce57600080fd5b50600c54610429906001600160a01b031681565b3480156107ee57600080fd5b50600a546001600160a01b0316610429565b34801561080c57600080fd5b506103fc61177c565b34801561082157600080fd5b5061048960155481565b34801561083757600080fd5b5061084b6108463660046132fe565b61178b565b6040516103de9190613425565b34801561086457600080fd5b50610461610873366004613482565b611897565b34801561088457600080fd5b506103d261195b565b34801561089957600080fd5b5061048960195481565b3480156108af57600080fd5b50610489613a9881565b6104616108c736600461319c565b611975565b6104616108da366004613086565b611a96565b3480156108eb57600080fd5b5061048960185481565b34801561090157600080fd5b506104896714d1120d7b16000081565b34801561091d57600080fd5b5061046161092c3660046134bb565b611b70565b34801561093d57600080fd5b50600d54610429906001600160a01b031681565b34801561095d57600080fd5b506103fc61096c366004613086565b611ba2565b34801561097d57600080fd5b5061048961098c3660046132fe565b60116020526000908152604090205481565b3480156109aa57600080fd5b506103fc611c49565b3480156109bf57600080fd5b50600e54610429906001600160a01b031681565b3480156109df57600080fd5b506104616109ee3660046132fe565b611cd7565b3480156109ff57600080fd5b50610489601a5481565b348015610a1557600080fd5b5061084b610a243660046130b4565b611d23565b348015610a3557600080fd5b50610489600b5481565b348015610a4b57600080fd5b506103d2610a5a36600461357f565b6001600160a01b03918216600090815260056020908152604080832093909416825291909152205460ff1690565b348015610a9457600080fd5b5061048960135481565b348015610aaa57600080fd5b50610461610ab93660046132fe565b611e44565b348015610aca57600080fd5b50610489600381565b348015610adf57600080fd5b5061048960145481565b60006001600160e01b0319821663780e9d6360e01b1480610b0e5750610b0e82611edf565b92915050565b606060008054610b23906135ad565b80601f0160208091040260200160405190810160405280929190818152602001828054610b4f906135ad565b8015610b9c5780601f10610b7157610100808354040283529160200191610b9c565b820191906000526020600020905b815481529060010190602001808311610b7f57829003601f168201915b5050505050905090565b6000610bb182611f2f565b610c175760405162461bcd60e51b815260206004820152602c60248201527f4552433732313a20617070726f76656420717565727920666f72206e6f6e657860448201526b34b9ba32b73a103a37b5b2b760a11b60648201526084015b60405180910390fd5b506000908152600460205260409020546001600160a01b031690565b6000610c3e82611327565b9050806001600160a01b0316836001600160a01b031603610cab5760405162461bcd60e51b815260206004820152602160248201527f4552433732313a20617070726f76616c20746f2063757272656e74206f776e656044820152603960f91b6064820152608401610c0e565b336001600160a01b0382161480610cc75750610cc78133610a5a565b610d395760405162461bcd60e51b815260206004820152603860248201527f4552433732313a20617070726f76652063616c6c6572206973206e6f74206f7760448201527f6e6572206e6f7220617070726f76656420666f7220616c6c00000000000000006064820152608401610c0e565b610d438383611f4c565b505050565b6000601a54600014158015610d5f5750601a544210155b905090565b600a54600160a01b900460ff1615610d8e5760405162461bcd60e51b8152600401610c0e906135e7565b8260011480610d9d5750826005145b80610da8575082600a145b610dc45760405162461bcd60e51b8152600401610c0e90613611565b815183148015610dd45750805183145b610df05760405162461bcd60e51b8152600401610c0e90613648565b601454610dff906127106136b2565b83601254610e0d91906136c9565b1115610e2b5760405162461bcd60e51b8152600401610c0e906136e1565b600083600b54610e3b9190613723565b600c5490915081906001600160a01b03166370a08231336040516001600160e01b031960e084901b1681526001600160a01b039091166004820152602401602060405180830381865afa158015610e96573d6000803e3d6000fd5b505050506040513d601f19601f82011682018060405250810190610eba9190613742565b1015610efa5760405162461bcd60e51b815260206004820152600f60248201526e1b9bdd08195b9bdd59da0814d3d553608a1b6044820152606401610c0e565b61138860135411158015610f1c575061138884601354610f1a91906136c9565b115b15610f3357600b54610f2f906002613723565b600b555b8360136000828254610f4591906136c9565b9091555050600c546001600160a01b03166379cc6790336040516001600160e01b031960e084901b1681526001600160a01b03909116600482015260248101849052604401600060405180830381600087803b158015610fa457600080fd5b505af1158015610fb8573d6000803e3d6000fd5b50505050610fce848484610fc93390565b611fba565b50505050565b600a546001600160a01b03163314610ffe5760405162461bcd60e51b8152600401610c0e9061375b565b4281101561104e5760405162461bcd60e51b815260206004820152601f60248201527f737461727454696d652063616e6e6f7420626520696e207468652070617374006044820152606401610c0e565b601a55565b61105d3382612035565b6110795760405162461bcd60e51b8152600401610c0e90613790565b610d4383838361211f565b600061108f8361146e565b82106110f15760405162461bcd60e51b815260206004820152602b60248201527f455243373231456e756d657261626c653a206f776e657220696e646578206f7560448201526a74206f6620626f756e647360a81b6064820152608401610c0e565b506001600160a01b03919091166000908152600660209081526040808320938352929052205490565b600a546001600160a01b031633146111445760405162461bcd60e51b8152600401610c0e9061375b565b428110156111945760405162461bcd60e51b815260206004820152601f60248201527f737461727454696d652063616e6e6f7420626520696e207468652070617374006044820152606401610c0e565b601955565b60006111a482611f2f565b6111e75760405162461bcd60e51b81526020600482015260146024820152731d1bdad95b88191bd95cc81b9bdd08195e1a5cdd60621b6044820152606401610c0e565b506000908152601b602052604090205490565b610d4383838360405180602001604052806000815250611b70565b600a546001600160a01b0316331461123f5760405162461bcd60e51b8152600401610c0e9061375b565b610d436001600160a01b03841682846122ca565b6000610b0e82611f2f565b600061126960085490565b82106112cc5760405162461bcd60e51b815260206004820152602c60248201527f455243373231456e756d657261626c653a20676c6f62616c20696e646578206f60448201526b7574206f6620626f756e647360a01b6064820152608401610c0e565b600882815481106112df576112df6137e1565b90600052602060002001549050919050565b600a546001600160a01b0316331461131b5760405162461bcd60e51b8152600401610c0e9061375b565b610d43600f8383612f4f565b6000818152600260205260408120546001600160a01b031680610b0e5760405162461bcd60e51b815260206004820152602960248201527f4552433732313a206f776e657220717565727920666f72206e6f6e657869737460448201526832b73a103a37b5b2b760b91b6064820152608401610c0e565b606060006113ab8361146e565b116113c85760405162461bcd60e51b8152600401610c0e906137f7565b60006113d38361146e565b905060008167ffffffffffffffff8111156113f0576113f06130e0565b604051908082528060200260200182016040528015611419578160200160208202803683370190505b50905060005b828110156114665760006114338683611084565b905080838381518110611448576114486137e1565b6020908102919091010152508061145e8161382e565b91505061141f565b509392505050565b60006001600160a01b0382166114d95760405162461bcd60e51b815260206004820152602a60248201527f4552433732313a2062616c616e636520717565727920666f7220746865207a65604482015269726f206164647265737360b01b6064820152608401610c0e565b506001600160a01b031660009081526003602052604090205490565b600a546001600160a01b0316331461151f5760405162461bcd60e51b8152600401610c0e9061375b565b611529600061231c565b565b600a54600160a01b900460ff16156115555760405162461bcd60e51b8152600401610c0e906135e7565b6010546000036115965760405162461bcd60e51b815260206004820152600c60248201526b1b5a5cdcda5b99c81c9bdbdd60a21b6044820152606401610c0e565b6040516bffffffffffffffffffffffff193360601b16602082015260009060340160405160208183030381529060405280519060200120905061161086868080602002602001604051908101604052809392919081815260200183836020028082843760009201919091525050601054915084905061236e565b61166a5760405162461bcd60e51b815260206004820152602560248201527f74686973206164647265737320646f6573206e6f742068617665207065726d6960448201526439b9b4b7b760d91b6064820152608401610c0e565b83600114806116795750836005145b80611684575083600a145b6116a05760405162461bcd60e51b8152600401610c0e90613611565b8251841480156116b05750815184145b6116cc5760405162461bcd60e51b8152600401610c0e90613648565b6116de8467120a871cc0020000613723565b3410156116fd5760405162461bcd60e51b8152600401610c0e90613847565b836014600082825461170f91906136c9565b909155505033600090815260116020526040812080548692906117339084906136c9565b90915550611745905084848433611fba565b505050505050565b600a546001600160a01b031633146117775760405162461bcd60e51b8152600401610c0e9061375b565b601055565b606060018054610b23906135ad565b606060006117988361146e565b116117b55760405162461bcd60e51b8152600401610c0e906137f7565b60006117c08361146e565b905060008167ffffffffffffffff8111156117dd576117dd6130e0565b60405190808252806020026020018201604052801561182257816020015b60408051808201909152600080825260208201528152602001906001900390816117fb5790505b50905060005b8281101561146657600061183c8683611084565b90506040518060400160405280828152602001601b600084815260200190815260200160002054815250838381518110611878576118786137e1565b602002602001018190525050808061188f9061382e565b915050611828565b336001600160a01b038316036118ef5760405162461bcd60e51b815260206004820152601960248201527f4552433732313a20617070726f766520746f2063616c6c6572000000000000006044820152606401610c0e565b3360008181526005602090815260408083206001600160a01b03871680855290835292819020805460ff191686151590811790915590519081529192917f17307eab39ab6107e8899845ad3d59bd9653f200f220920489ca2b5937696c31910160405180910390a35050565b6000601954600014158015610d5f57505060195442101590565b600a54600160a01b900460ff161561199f5760405162461bcd60e51b8152600401610c0e906135e7565b82600114806119ae5750826005145b806119b9575082600a145b6119d55760405162461bcd60e51b8152600401610c0e90613611565b8151831480156119e55750805183145b611a015760405162461bcd60e51b8152600401610c0e90613648565b601454611a10906127106136b2565b83601254611a1e91906136c9565b1115611a3c5760405162461bcd60e51b8152600401610c0e906136e1565b6000611a50846714d1120d7b160000613723565b905080341015611a725760405162461bcd60e51b8152600401610c0e90613847565b8360126000828254611a8491906136c9565b90915550610fce905084848433611fba565b600a546001600160a01b03163314611ac05760405162461bcd60e51b8152600401610c0e9061375b565b80471015611ae05760405162461bcd60e51b8152600401610c0e90613847565b6040513390600090829084908381818185875af1925050503d8060008114611b24576040519150601f19603f3d011682016040523d82523d6000602084013e611b29565b606091505b5050905080610d435760405162461bcd60e51b815260206004820152601360248201527208cc2d2d8cac840e8de40e6cadcc84082ac82b606b1b6044820152606401610c0e565b611b7a3383612035565b611b965760405162461bcd60e51b8152600401610c0e90613790565b610fce8484848461241f565b6060611bad82611f2f565b611c115760405162461bcd60e51b815260206004820152602f60248201527f4552433732314d657461646174613a2055524920717565727920666f72206e6f60448201526e3732bc34b9ba32b73a103a37b5b2b760891b6064820152608401610c0e565b611c19612452565b611c2283612461565b604051602001611c33929190613870565b6040516020818303038152906040529050919050565b600f8054611c56906135ad565b80601f0160208091040260200160405190810160405280929190818152602001828054611c82906135ad565b8015611ccf5780601f10611ca457610100808354040283529160200191611ccf565b820191906000526020600020905b815481529060010190602001808311611cb257829003601f168201915b505050505081565b600a546001600160a01b03163314611d015760405162461bcd60e51b8152600401610c0e9061375b565b600e80546001600160a01b0319166001600160a01b0392909216919091179055565b60606000611d308461146e565b11611d4d5760405162461bcd60e51b8152600401610c0e906137f7565b60408051600580825260c08201909252600091816020015b6040805180820190915260008082526020820152815260200190600190039081611d655790505090506000611d9b846005613723565b90506000611daa8260056136c9565b9050611db58661146e565b811115611dc857611dc58661146e565b90505b815b81811015611e39576000611dde8883611084565b90506040518060400160405280828152602001601b600084815260200190815260200160002054815250858381518110611e1a57611e1a6137e1565b6020026020010181905250508080611e319061382e565b915050611dca565b509195945050505050565b600a546001600160a01b03163314611e6e5760405162461bcd60e51b8152600401610c0e9061375b565b6001600160a01b038116611ed35760405162461bcd60e51b815260206004820152602660248201527f4f776e61626c653a206e6577206f776e657220697320746865207a65726f206160448201526564647265737360d01b6064820152608401610c0e565b611edc8161231c565b50565b60006001600160e01b031982166380ac58cd60e01b1480611f1057506001600160e01b03198216635b5e139f60e01b145b80610b0e57506301ffc9a760e01b6001600160e01b0319831614610b0e565b6000908152600260205260409020546001600160a01b0316151590565b600081815260046020526040902080546001600160a01b0319166001600160a01b0384169081179091558190611f8182611327565b6001600160a01b03167f8c5be1e5ebec7d5bd14f71427d1e84f3dd0314c0f7b2291e5b200ac8c7c3b92560405160405180910390a45050565b60005b8481101561202e57600160156000828254611fd891906136c9565b9250508190555061201c82858381518110611ff557611ff56137e1565b602002602001015185848151811061200f5761200f6137e1565b6020026020010151612562565b806120268161382e565b915050611fbd565b5050505050565b600061204082611f2f565b6120a15760405162461bcd60e51b815260206004820152602c60248201527f4552433732313a206f70657261746f7220717565727920666f72206e6f6e657860448201526b34b9ba32b73a103a37b5b2b760a11b6064820152608401610c0e565b60006120ac83611327565b9050806001600160a01b0316846001600160a01b031614806120e75750836001600160a01b03166120dc84610ba6565b6001600160a01b0316145b8061211757506001600160a01b0380821660009081526005602090815260408083209388168352929052205460ff165b949350505050565b826001600160a01b031661213282611327565b6001600160a01b03161461219a5760405162461bcd60e51b815260206004820152602960248201527f4552433732313a207472616e73666572206f6620746f6b656e2074686174206960448201526839903737ba1037bbb760b91b6064820152608401610c0e565b6001600160a01b0382166121fc5760405162461bcd60e51b8152602060048201526024808201527f4552433732313a207472616e7366657220746f20746865207a65726f206164646044820152637265737360e01b6064820152608401610c0e565b612207838383612834565b612212600082611f4c565b6001600160a01b038316600090815260036020526040812080546001929061223b9084906136b2565b90915550506001600160a01b03821660009081526003602052604081208054600192906122699084906136c9565b909155505060008181526002602052604080822080546001600160a01b0319166001600160a01b0386811691821790925591518493918716917fddf252ad1be2c89b69c2b068fc378daa952ba7f163c4a11628f55a4df523b3ef91a4505050565b604080516001600160a01b038416602482015260448082018490528251808303909101815260649091019091526020810180516001600160e01b031663a9059cbb60e01b179052610d439084906128ec565b600a80546001600160a01b038381166001600160a01b0319831681179093556040519116919082907f8be0079c531659141344cd1fd0a4f28419497f9722a3daafe3b4186f6b6457e090600090a35050565b600081815b8551811015612412576000868281518110612390576123906137e1565b602002602001015190508083116123d25760408051602081018590529081018290526060016040516020818303038152906040528051906020012092506123ff565b60408051602081018390529081018490526060016040516020818303038152906040528051906020012092505b508061240a8161382e565b915050612373565b50831490505b9392505050565b61242a84848461211f565b612436848484846129be565b610fce5760405162461bcd60e51b8152600401610c0e906138be565b6060600f8054610b23906135ad565b6060816000036124885750506040805180820190915260018152600360fc1b602082015290565b8160005b81156124b2578061249c8161382e565b91506124ab9050600a83613926565b915061248c565b60008167ffffffffffffffff8111156124cd576124cd6130e0565b6040519080825280601f01601f1916602001820160405280156124f7576020820181803683370190505b5090505b84156121175761250c6001836136b2565b9150612519600a8661393a565b6125249060306136c9565b60f81b818381518110612539576125396137e1565b60200101906001600160f81b031916908160001a90535061255b600a86613926565b94506124fb565b612570613a986127106136c9565b60155411156125c15760405162461bcd60e51b815260206004820152601e60248201527f63616e6e6f74206d696e7420616e796d6f72652063656c65737469616c7300006044820152606401610c0e565b6125ca82611f2f565b156126175760405162461bcd60e51b815260206004820181905260248201527f746869732027746f6b656e49642720697320616c726561647920746f6f6b656e6044820152606401610c0e565b6001821015801561262a57506127108211155b6126765760405162461bcd60e51b815260206004820152601e60248201527f27746f6b656e496427206d75737420626520696e207468652072616e676500006044820152606401610c0e565b6000828152601b6020526040902054156126e15760405162461bcd60e51b815260206004820152602660248201527f7468617420746f6b656e277320747970652068617320616c7265616479206265604482015265195b881cd95d60d21b6064820152608401610c0e565b60018114806126f05750600281145b806126fb5750600381145b6127405760405162461bcd60e51b8152602060048201526016602482015275696e76616c69642063656c65737469616c207479706560501b6044820152606401610c0e565b6000828152601b602052604090208190556001819003612774576016805490600061276a8361382e565b91905055506127a2565b8060020361278c576017805490600061276a8361382e565b6018805490600061279c8361382e565b91905055505b6127ac8383612abf565b600e546127c3906001600160a01b03166001611897565b60408051838152602081018390527fc3446d569695aa78750f8132ce4941514489a02c8ca9a2078ee392dccd96474e910160405180910390a16040518281527fb0c73316550069520aa3bffd50be8c7989584da8716295793eda73dbcd1c154c9060200160405180910390a1505050565b6001600160a01b03831661288f5761288a81600880546000838152600960205260408120829055600182018355919091527ff3f7a9fe364faab93b216da50a3214154f22a0a2b415b23a84c8169e8b636ee30155565b6128b2565b816001600160a01b0316836001600160a01b0316146128b2576128b28382612add565b6001600160a01b0382166128c957610d4381612b7a565b826001600160a01b0316826001600160a01b031614610d4357610d438282612c29565b6000612941826040518060400160405280602081526020017f5361666545524332303a206c6f772d6c6576656c2063616c6c206661696c6564815250856001600160a01b0316612c6d9092919063ffffffff16565b805190915015610d43578080602001905181019061295f919061394e565b610d435760405162461bcd60e51b815260206004820152602a60248201527f5361666545524332303a204552433230206f7065726174696f6e20646964206e6044820152691bdd081cdd58d8d9595960b21b6064820152608401610c0e565b60006001600160a01b0384163b15612ab457604051630a85bd0160e11b81526001600160a01b0385169063150b7a0290612a0290339089908890889060040161396b565b6020604051808303816000875af1925050508015612a3d575060408051601f3d908101601f19168201909252612a3a918101906139a8565b60015b612a9a573d808015612a6b576040519150601f19603f3d011682016040523d82523d6000602084013e612a70565b606091505b508051600003612a925760405162461bcd60e51b8152600401610c0e906138be565b805181602001fd5b6001600160e01b031916630a85bd0160e11b149050612117565b506001949350505050565b612ad9828260405180602001604052806000815250612c7c565b5050565b60006001612aea8461146e565b612af491906136b2565b600083815260076020526040902054909150808214612b47576001600160a01b03841660009081526006602090815260408083208584528252808320548484528184208190558352600790915290208190555b5060009182526007602090815260408084208490556001600160a01b039094168352600681528383209183525290812055565b600854600090612b8c906001906136b2565b60008381526009602052604081205460088054939450909284908110612bb457612bb46137e1565b906000526020600020015490508060088381548110612bd557612bd56137e1565b6000918252602080832090910192909255828152600990915260408082208490558582528120556008805480612c0d57612c0d6139c5565b6001900381819060005260206000200160009055905550505050565b6000612c348361146e565b6001600160a01b039093166000908152600660209081526040808320868452825280832085905593825260079052919091209190915550565b60606121178484600085612caf565b612c868383612dd7565b612c9360008484846129be565b610d435760405162461bcd60e51b8152600401610c0e906138be565b606082471015612d105760405162461bcd60e51b815260206004820152602660248201527f416464726573733a20696e73756666696369656e742062616c616e636520666f6044820152651c8818d85b1b60d21b6064820152608401610c0e565b843b612d5e5760405162461bcd60e51b815260206004820152601d60248201527f416464726573733a2063616c6c20746f206e6f6e2d636f6e74726163740000006044820152606401610c0e565b600080866001600160a01b03168587604051612d7a91906139db565b60006040518083038185875af1925050503d8060008114612db7576040519150601f19603f3d011682016040523d82523d6000602084013e612dbc565b606091505b5091509150612dcc828286612f16565b979650505050505050565b6001600160a01b038216612e2d5760405162461bcd60e51b815260206004820181905260248201527f4552433732313a206d696e7420746f20746865207a65726f20616464726573736044820152606401610c0e565b612e3681611f2f565b15612e835760405162461bcd60e51b815260206004820152601c60248201527f4552433732313a20746f6b656e20616c7265616479206d696e746564000000006044820152606401610c0e565b612e8f60008383612834565b6001600160a01b0382166000908152600360205260408120805460019290612eb89084906136c9565b909155505060008181526002602052604080822080546001600160a01b0319166001600160a01b03861690811790915590518392907fddf252ad1be2c89b69c2b068fc378daa952ba7f163c4a11628f55a4df523b3ef908290a45050565b60608315612f25575081612418565b825115612f355782518084602001fd5b8160405162461bcd60e51b8152600401610c0e9190613073565b828054612f5b906135ad565b90600052602060002090601f016020900481019282612f7d5760008555612fc3565b82601f10612f965782800160ff19823516178555612fc3565b82800160010185558215612fc3579182015b82811115612fc3578235825591602001919060010190612fa8565b50612fcf929150612fd3565b5090565b5b80821115612fcf5760008155600101612fd4565b6001600160e01b031981168114611edc57600080fd5b60006020828403121561301057600080fd5b813561241881612fe8565b60005b8381101561303657818101518382015260200161301e565b83811115610fce5750506000910152565b6000815180845261305f81602086016020860161301b565b601f01601f19169290920160200192915050565b6020815260006124186020830184613047565b60006020828403121561309857600080fd5b5035919050565b6001600160a01b0381168114611edc57600080fd5b600080604083850312156130c757600080fd5b82356130d28161309f565b946020939093013593505050565b634e487b7160e01b600052604160045260246000fd5b604051601f8201601f1916810167ffffffffffffffff8111828210171561311f5761311f6130e0565b604052919050565b600082601f83011261313857600080fd5b8135602067ffffffffffffffff821115613154576131546130e0565b8160051b6131638282016130f6565b928352848101820192828101908785111561317d57600080fd5b83870192505b84831015612dcc57823582529183019190830190613183565b6000806000606084860312156131b157600080fd5b83359250602084013567ffffffffffffffff808211156131d057600080fd5b6131dc87838801613127565b935060408601359150808211156131f257600080fd5b506131ff86828701613127565b9150509250925092565b60008060006060848603121561321e57600080fd5b83356132298161309f565b925060208401356132398161309f565b929592945050506040919091013590565b60008060006060848603121561325f57600080fd5b833561326a8161309f565b92506020840135915060408401356132818161309f565b809150509250925092565b6000806020838503121561329f57600080fd5b823567ffffffffffffffff808211156132b757600080fd5b818501915085601f8301126132cb57600080fd5b8135818111156132da57600080fd5b8660208285010111156132ec57600080fd5b60209290920196919550909350505050565b60006020828403121561331057600080fd5b81356124188161309f565b6020808252825182820181905260009190848201906040850190845b8181101561335357835183529284019291840191600101613337565b50909695505050505050565b60008060008060006080868803121561337757600080fd5b853567ffffffffffffffff8082111561338f57600080fd5b818801915088601f8301126133a357600080fd5b8135818111156133b257600080fd5b8960208260051b85010111156133c757600080fd5b602092830197509550908701359350604087013590808211156133e957600080fd5b6133f589838a01613127565b9350606088013591508082111561340b57600080fd5b5061341888828901613127565b9150509295509295909350565b602080825282518282018190526000919060409081850190868401855b8281101561346757815180518552860151868501529284019290850190600101613442565b5091979650505050505050565b8015158114611edc57600080fd5b6000806040838503121561349557600080fd5b82356134a08161309f565b915060208301356134b081613474565b809150509250929050565b600080600080608085870312156134d157600080fd5b84356134dc8161309f565b93506020858101356134ed8161309f565b935060408601359250606086013567ffffffffffffffff8082111561351157600080fd5b818801915088601f83011261352557600080fd5b813581811115613537576135376130e0565b613549601f8201601f191685016130f6565b9150808252898482850101111561355f57600080fd5b808484018584013760008482840101525080935050505092959194509250565b6000806040838503121561359257600080fd5b823561359d8161309f565b915060208301356134b08161309f565b600181811c908216806135c157607f821691505b6020821081036135e157634e487b7160e01b600052602260045260246000fd5b50919050565b60208082526010908201526f14185d5cd8589b194e881c185d5cd95960821b604082015260600190565b6020808252601d908201527f7175616e74697479206d7573742062652031206f722035206f72203130000000604082015260600190565b60208082526034908201527f4c656e677468206f662074686520616d6f756e74206f6620746865206e6674206040820152736d75737420626520657175616c20746f2071747960601b606082015260800190565b634e487b7160e01b600052601160045260246000fd5b6000828210156136c4576136c461369c565b500390565b600082198211156136dc576136dc61369c565b500190565b60208082526022908201527f796f752063616e2774206d696e742074686174206d616e79207269676874206e6040820152616f7760f01b606082015260800190565b600081600019048311821515161561373d5761373d61369c565b500290565b60006020828403121561375457600080fd5b5051919050565b6020808252818101527f4f776e61626c653a2063616c6c6572206973206e6f7420746865206f776e6572604082015260600190565b60208082526031908201527f4552433732313a207472616e736665722063616c6c6572206973206e6f74206f6040820152701ddb995c881b9bdc88185c1c1c9bdd9959607a1b606082015260800190565b634e487b7160e01b600052603260045260246000fd5b6020808252601f908201527f7468657265206973206e6f206e667420696e20796f75722062616c616e636500604082015260600190565b6000600182016138405761384061369c565b5060010190565b6020808252600f908201526e0dcdee840cadcdeeaced04082ac82b608b1b604082015260600190565b6000835161388281846020880161301b565b602f60f81b90830190815283516138a081600184016020880161301b565b64173539b7b760d91b60019290910191820152600601949350505050565b60208082526032908201527f4552433732313a207472616e7366657220746f206e6f6e20455243373231526560408201527131b2b4bb32b91034b6b83632b6b2b73a32b960711b606082015260800190565b634e487b7160e01b600052601260045260246000fd5b60008261393557613935613910565b500490565b60008261394957613949613910565b500690565b60006020828403121561396057600080fd5b815161241881613474565b6001600160a01b038581168252841660208201526040810183905260806060820181905260009061399e90830184613047565b9695505050505050565b6000602082840312156139ba57600080fd5b815161241881612fe8565b634e487b7160e01b600052603160045260246000fd5b600082516139ed81846020870161301b565b919091019291505056fea2646970667358221220ee64b3330a232367ad87838b18f2c55f24ecb6a1b49b0fa0c9472065277b2e9a64736f6c634300080d0033",
  "bytecodeSha1": "896c0f982002bf29df58afe18c021e2057f6bf4a",
  "compiler": {
    "evm_version": "istanbul",
    "optimizer": {
      "enabled": true,
      "runs": 200
    },
    "version": "0.8.13+commit.abaa5c0e"
  },
  "contractName": "Celestial",
  "language": "Solidity",
  "natspec": {
    "kind": "dev",
    "methods": {
      "approve(address,uint256)": {
        "details": "See {IERC721-approve}."
      },
      "balanceOf(address)": {
        "details": "See {IERC721-balanceOf}."
      },
      "forwardERC20s(address,uint256,address)": {
        "details": "allows owner to send ERC20s held by this contract to target"
      },
      "getApproved(uint256)": {
        "details": "See {IERC721-getApproved}."
      },
      "isApprovedForAll(address,address)": {
        "details": "See {IERC721-isApprovedForAll}."
      },
      "mintCelestialWhitelist(bytes32[],uint256,uint256[],uint256[])": {
        "details": "GEN0 minting"
      },
      "mintCelestialWithAVAX(uint256,uint256[],uint256[])": {
        "details": "GEN0 minting"
      },
      "mintCelestialWithSoul(uint256,uint256[],uint256[])": {
        "details": "GEN0 minting"
      },
      "name()": {
        "details": "See {IERC721Metadata-name}."
      },
      "owner()": {
        "details": "Returns the address of the current owner."
      },
      "ownerOf(uint256)": {
        "details": "See {IERC721-ownerOf}."
      },
      "paused()": {
        "details": "Returns true if the contract is paused, and false otherwise."
      },
      "renounceOwnership()": {
        "details": "Leaves the contract without owner. It will not be possible to call `onlyOwner` functions anymore. Can only be called by the current owner. NOTE: Renouncing ownership will leave the contract without an owner, thereby removing any functionality that is only available to the owner."
      },
      "safeTransferFrom(address,address,uint256)": {
        "details": "See {IERC721-safeTransferFrom}."
      },
      "safeTransferFrom(address,address,uint256,bytes)": {
        "details": "See {IERC721-safeTransferFrom}."
      },
      "setApprovalForAll(address,bool)": {
        "details": "See {IERC721-setApprovalForAll}."
      },
      "setMerkleRoot(bytes32)": {
        "details": "merkle root for WL wallets"
      },
      "supportsInterface(bytes4)": {
        "details": "See {IERC165-supportsInterface}."
      },
      "symbol()": {
        "details": "See {IERC721Metadata-symbol}."
      },
      "tokenByIndex(uint256)": {
        "details": "See {IERC721Enumerable-tokenByIndex}."
      },
      "tokenOfOwnerByIndex(address,uint256)": {
        "details": "See {IERC721Enumerable-tokenOfOwnerByIndex}."
      },
      "tokenURI(uint256)": {
        "details": "See {IERC721Metadata-tokenURI}."
      },
      "totalSupply()": {
        "details": "See {IERC721Enumerable-totalSupply}."
      },
      "transferFrom(address,address,uint256)": {
        "details": "See {IERC721-transferFrom}."
      },
      "transferOwnership(address)": {
        "details": "Transfers ownership of the contract to a new account (`newOwner`). Can only be called by the current owner."
      },
      "withdrawAVAX(uint256)": {
        "details": "allows owner to withdraw AVAX"
      }
    },
    "version": 1
  },
  "opcodes": "PUSH1 0x80 PUSH1 0x40 MSTORE PUSH1 0x4 CALLDATASIZE LT PUSH2 0x3AD JUMPI PUSH1 0x0 CALLDATALOAD PUSH1 0xE0 SHR DUP1 PUSH4 0x758C0B9E GT PUSH2 0x1E7 JUMPI DUP1 PUSH4 0xB4FAD9AF GT PUSH2 0x10D JUMPI DUP1 PUSH4 0xE7B27AF7 GT PUSH2 0xA0 JUMPI DUP1 PUSH4 0xE9F169F7 GT PUSH2 0x6F JUMPI DUP1 PUSH4 0xE9F169F7 EQ PUSH2 0xA88 JUMPI DUP1 PUSH4 0xF2FDE38B EQ PUSH2 0xA9E JUMPI DUP1 PUSH4 0xF7BE4F11 EQ PUSH2 0xABE JUMPI DUP1 PUSH4 0xFF2A7656 EQ PUSH2 0xAD3 JUMPI PUSH1 0x0 DUP1 REVERT JUMPDEST DUP1 PUSH4 0xE7B27AF7 EQ PUSH2 0x9F3 JUMPI DUP1 PUSH4 0xE7C235B9 EQ PUSH2 0xA09 JUMPI DUP1 PUSH4 0xE7D97E52 EQ PUSH2 0xA29 JUMPI DUP1 PUSH4 0xE985E9C5 EQ PUSH2 0xA3F JUMPI PUSH1 0x0 DUP1 REVERT JUMPDEST DUP1 PUSH4 0xDB4BEC44 GT PUSH2 0xDC JUMPI DUP1 PUSH4 0xDB4BEC44 EQ PUSH2 0x971 JUMPI DUP1 PUSH4 0xDBDDB26A EQ PUSH2 0x99E JUMPI DUP1 PUSH4 0xDE20BC92 EQ PUSH2 0x9B3 JUMPI DUP1 PUSH4 0xE2EA1319 EQ PUSH2 0x9D3 JUMPI PUSH1 0x0 DUP1 REVERT JUMPDEST DUP1 PUSH4 0xB4FAD9AF EQ PUSH2 0x8F5 JUMPI DUP1 PUSH4 0xB88D4FDE EQ PUSH2 0x911 JUMPI DUP1 PUSH4 0xBC7D4034 EQ PUSH2 0x931 JUMPI DUP1 PUSH4 0xC87B56DD EQ PUSH2 0x951 JUMPI PUSH1 0x0 DUP1 REVERT JUMPDEST DUP1 PUSH4 0x9EA6DB3D GT PUSH2 0x185 JUMPI DUP1 PUSH4 0xA756A1DF GT PUSH2 0x154 JUMPI DUP1 PUSH4 0xA756A1DF EQ PUSH2 0x8A3 JUMPI DUP1 PUSH4 0xA7D5EC2D EQ PUSH2 0x8B9 JUMPI DUP1 PUSH4 0xAEB5CD5E EQ PUSH2 0x8CC JUMPI DUP1 PUSH4 0xAFF9EFE8 EQ PUSH2 0x8DF JUMPI PUSH1 0x0 DUP1 REVERT JUMPDEST DUP1 PUSH4 0x9EA6DB3D EQ PUSH2 0x82B JUMPI DUP1 PUSH4 0xA22CB465 EQ PUSH2 0x858 JUMPI DUP1 PUSH4 0xA377D7EF EQ PUSH2 0x878 JUMPI DUP1 PUSH4 0xA682F862 EQ PUSH2 0x88D JUMPI PUSH1 0x0 DUP1 REVERT JUMPDEST DUP1 PUSH4 0x815B7A8C GT PUSH2 0x1C1 JUMPI DUP1 PUSH4 0x815B7A8C EQ PUSH2 0x7C2 JUMPI DUP1 PUSH4 0x8DA5CB5B EQ PUSH2 0x7E2 JUMPI DUP1 PUSH4 0x95D89B41 EQ PUSH2 0x800 JUMPI DUP1 PUSH4 0x9B76DBCA EQ PUSH2 0x815 JUMPI PUSH1 0x0 DUP1 REVERT JUMPDEST DUP1 PUSH4 0x758C0B9E EQ PUSH2 0x779 JUMPI DUP1 PUSH4 0x7B82FDA6 EQ PUSH2 0x78F JUMPI DUP1 PUSH4 0x7CB64759 EQ PUSH2 0x7A2 JUMPI PUSH1 0x0 DUP1 REVERT JUMPDEST DUP1 PUSH4 0x33F6832A GT PUSH2 0x2D7 JUMPI DUP1 PUSH4 0x5C975ABB GT PUSH2 0x26A JUMPI DUP1 PUSH4 0x70022BDA GT PUSH2 0x239 JUMPI DUP1 PUSH4 0x70022BDA EQ PUSH2 0x701 JUMPI DUP1 PUSH4 0x70A08231 EQ PUSH2 0x72E JUMPI DUP1 PUSH4 0x715018A6 EQ PUSH2 0x74E JUMPI DUP1 PUSH4 0x73033BDA EQ PUSH2 0x763 JUMPI PUSH1 0x0 DUP1 REVERT JUMPDEST DUP1 PUSH4 0x5C975ABB EQ PUSH2 0x696 JUMPI DUP1 PUSH4 0x6352211E EQ PUSH2 0x6B5 JUMPI DUP1 PUSH4 0x65E940A2 EQ PUSH2 0x6D5 JUMPI DUP1 PUSH4 0x6B988176 EQ PUSH2 0x6EB JUMPI PUSH1 0x0 DUP1 REVERT JUMPDEST DUP1 PUSH4 0x43F37B98 GT PUSH2 0x2A6 JUMPI DUP1 PUSH4 0x43F37B98 EQ PUSH2 0x616 JUMPI DUP1 PUSH4 0x4EBBC92A EQ PUSH2 0x636 JUMPI DUP1 PUSH4 0x4F6CCCE7 EQ PUSH2 0x656 JUMPI DUP1 PUSH4 0x55F804B3 EQ PUSH2 0x676 JUMPI PUSH1 0x0 DUP1 REVERT JUMPDEST DUP1 PUSH4 0x33F6832A EQ PUSH2 0x589 JUMPI DUP1 PUSH4 0x3C1D4DE7 EQ PUSH2 0x5B6 JUMPI DUP1 PUSH4 0x4036AB78 EQ PUSH2 0x5D6 JUMPI DUP1 PUSH4 0x42842E0E EQ PUSH2 0x5F6 JUMPI PUSH1 0x0 DUP1 REVERT JUMPDEST DUP1 PUSH4 0x200ED855 GT PUSH2 0x34F JUMPI DUP1 PUSH4 0x2CFB18B1 GT PUSH2 0x31E JUMPI DUP1 PUSH4 0x2CFB18B1 EQ PUSH2 0x521 JUMPI DUP1 PUSH4 0x2EB4A7AB EQ PUSH2 0x53D JUMPI DUP1 PUSH4 0x2F745C59 EQ PUSH2 0x553 JUMPI DUP1 PUSH4 0x32A2EC41 EQ PUSH2 0x573 JUMPI PUSH1 0x0 DUP1 REVERT JUMPDEST DUP1 PUSH4 0x200ED855 EQ PUSH2 0x4B7 JUMPI DUP1 PUSH4 0x23B872DD EQ PUSH2 0x4D7 JUMPI DUP1 PUSH4 0x2A6414B0 EQ PUSH2 0x4F7 JUMPI DUP1 PUSH4 0x2B95B732 EQ PUSH2 0x50C JUMPI PUSH1 0x0 DUP1 REVERT JUMPDEST DUP1 PUSH4 0x95EA7B3 GT PUSH2 0x38B JUMPI DUP1 PUSH4 0x95EA7B3 EQ PUSH2 0x441 JUMPI DUP1 PUSH4 0x11A2428A EQ PUSH2 0x463 JUMPI DUP1 PUSH4 0x18160DDD EQ PUSH2 0x478 JUMPI DUP1 PUSH4 0x1DBB64BA EQ PUSH2 0x497 JUMPI PUSH1 0x0 DUP1 REVERT JUMPDEST DUP1 PUSH4 0x1FFC9A7 EQ PUSH2 0x3B2 JUMPI DUP1 PUSH4 0x6FDDE03 EQ PUSH2 0x3E7 JUMPI DUP1 PUSH4 0x81812FC EQ PUSH2 0x409 JUMPI JUMPDEST PUSH1 0x0 DUP1 REVERT JUMPDEST CALLVALUE DUP1 ISZERO PUSH2 0x3BE JUMPI PUSH1 0x0 DUP1 REVERT JUMPDEST POP PUSH2 0x3D2 PUSH2 0x3CD CALLDATASIZE PUSH1 0x4 PUSH2 0x2FFE JUMP JUMPDEST PUSH2 0xAE9 JUMP JUMPDEST PUSH1 0x40 MLOAD SWAP1 ISZERO ISZERO DUP2 MSTORE PUSH1 0x20 ADD JUMPDEST PUSH1 0x40 MLOAD DUP1 SWAP2 SUB SWAP1 RETURN JUMPDEST CALLVALUE DUP1 ISZERO PUSH2 0x3F3 JUMPI PUSH1 0x0 DUP1 REVERT JUMPDEST POP PUSH2 0x3FC PUSH2 0xB14 JUMP JUMPDEST PUSH1 0x40 MLOAD PUSH2 0x3DE SWAP2 SWAP1 PUSH2 0x3073 JUMP JUMPDEST CALLVALUE DUP1 ISZERO PUSH2 0x415 JUMPI PUSH1 0x0 DUP1 REVERT JUMPDEST POP PUSH2 0x429 PUSH2 0x424 CALLDATASIZE PUSH1 0x4 PUSH2 0x3086 JUMP JUMPDEST PUSH2 0xBA6 JUMP JUMPDEST PUSH1 0x40 MLOAD PUSH1 0x1 PUSH1 0x1 PUSH1 0xA0 SHL SUB SWAP1 SWAP2 AND DUP2 MSTORE PUSH1 0x20 ADD PUSH2 0x3DE JUMP JUMPDEST CALLVALUE DUP1 ISZERO PUSH2 0x44D JUMPI PUSH1 0x0 DUP1 REVERT JUMPDEST POP PUSH2 0x461 PUSH2 0x45C CALLDATASIZE PUSH1 0x4 PUSH2 0x30B4 JUMP JUMPDEST PUSH2 0xC33 JUMP JUMPDEST STOP JUMPDEST CALLVALUE DUP1 ISZERO PUSH2 0x46F JUMPI PUSH1 0x0 DUP1 REVERT JUMPDEST POP PUSH2 0x3D2 PUSH2 0xD48 JUMP JUMPDEST CALLVALUE DUP1 ISZERO PUSH2 0x484 JUMPI PUSH1 0x0 DUP1 REVERT JUMPDEST POP PUSH1 0x8 SLOAD JUMPDEST PUSH1 0x40 MLOAD SWAP1 DUP2 MSTORE PUSH1 0x20 ADD PUSH2 0x3DE JUMP JUMPDEST CALLVALUE DUP1 ISZERO PUSH2 0x4A3 JUMPI PUSH1 0x0 DUP1 REVERT JUMPDEST POP PUSH2 0x461 PUSH2 0x4B2 CALLDATASIZE PUSH1 0x4 PUSH2 0x319C JUMP JUMPDEST PUSH2 0xD64 JUMP JUMPDEST CALLVALUE DUP1 ISZERO PUSH2 0x4C3 JUMPI PUSH1 0x0 DUP1 REVERT JUMPDEST POP PUSH2 0x461 PUSH2 0x4D2 CALLDATASIZE PUSH1 0x4 PUSH2 0x3086 JUMP JUMPDEST PUSH2 0xFD4 JUMP JUMPDEST CALLVALUE DUP1 ISZERO PUSH2 0x4E3 JUMPI PUSH1 0x0 DUP1 REVERT JUMPDEST POP PUSH2 0x461 PUSH2 0x4F2 CALLDATASIZE PUSH1 0x4 PUSH2 0x3209 JUMP JUMPDEST PUSH2 0x1053 JUMP JUMPDEST CALLVALUE DUP1 ISZERO PUSH2 0x503 JUMPI PUSH1 0x0 DUP1 REVERT JUMPDEST POP PUSH2 0x489 PUSH1 0x1 DUP2 JUMP JUMPDEST CALLVALUE DUP1 ISZERO PUSH2 0x518 JUMPI PUSH1 0x0 DUP1 REVERT JUMPDEST POP PUSH2 0x489 PUSH1 0x2 DUP2 JUMP JUMPDEST CALLVALUE DUP1 ISZERO PUSH2 0x52D JUMPI PUSH1 0x0 DUP1 REVERT JUMPDEST POP PUSH2 0x489 PUSH8 0x120A871CC0020000 DUP2 JUMP JUMPDEST CALLVALUE DUP1 ISZERO PUSH2 0x549 JUMPI PUSH1 0x0 DUP1 REVERT JUMPDEST POP PUSH2 0x489 PUSH1 0x10 SLOAD DUP2 JUMP JUMPDEST CALLVALUE DUP1 ISZERO PUSH2 0x55F JUMPI PUSH1 0x0 DUP1 REVERT JUMPDEST POP PUSH2 0x489 PUSH2 0x56E CALLDATASIZE PUSH1 0x4 PUSH2 0x30B4 JUMP JUMPDEST PUSH2 0x1084 JUMP JUMPDEST CALLVALUE DUP1 ISZERO PUSH2 0x57F JUMPI PUSH1 0x0 DUP1 REVERT JUMPDEST POP PUSH2 0x489 PUSH1 0x16 SLOAD DUP2 JUMP JUMPDEST CALLVALUE DUP1 ISZERO PUSH2 0x595 JUMPI PUSH1 0x0 DUP1 REVERT JUMPDEST POP PUSH2 0x489 PUSH2 0x5A4 CALLDATASIZE PUSH1 0x4 PUSH2 0x3086 JUMP JUMPDEST PUSH1 0x1B PUSH1 0x20 MSTORE PUSH1 0x0 SWAP1 DUP2 MSTORE PUSH1 0x40 SWAP1 KECCAK256 SLOAD DUP2 JUMP JUMPDEST CALLVALUE DUP1 ISZERO PUSH2 0x5C2 JUMPI PUSH1 0x0 DUP1 REVERT JUMPDEST POP PUSH2 0x461 PUSH2 0x5D1 CALLDATASIZE PUSH1 0x4 PUSH2 0x3086 JUMP JUMPDEST PUSH2 0x111A JUMP JUMPDEST CALLVALUE DUP1 ISZERO PUSH2 0x5E2 JUMPI PUSH1 0x0 DUP1 REVERT JUMPDEST POP PUSH2 0x489 PUSH2 0x5F1 CALLDATASIZE PUSH1 0x4 PUSH2 0x3086 JUMP JUMPDEST PUSH2 0x1199 JUMP JUMPDEST CALLVALUE DUP1 ISZERO PUSH2 0x602 JUMPI PUSH1 0x0 DUP1 REVERT JUMPDEST POP PUSH2 0x461 PUSH2 0x611 CALLDATASIZE PUSH1 0x4 PUSH2 0x3209 JUMP JUMPDEST PUSH2 0x11FA JUMP JUMPDEST CALLVALUE DUP1 ISZERO PUSH2 0x622 JUMPI PUSH1 0x0 DUP1 REVERT JUMPDEST POP PUSH2 0x461 PUSH2 0x631 CALLDATASIZE PUSH1 0x4 PUSH2 0x324A JUMP JUMPDEST PUSH2 0x1215 JUMP JUMPDEST CALLVALUE DUP1 ISZERO PUSH2 0x642 JUMPI PUSH1 0x0 DUP1 REVERT JUMPDEST POP PUSH2 0x3D2 PUSH2 0x651 CALLDATASIZE PUSH1 0x4 PUSH2 0x3086 JUMP JUMPDEST PUSH2 0x1253 JUMP JUMPDEST CALLVALUE DUP1 ISZERO PUSH2 0x662 JUMPI PUSH1 0x0 DUP1 REVERT JUMPDEST POP PUSH2 0x489 PUSH2 0x671 CALLDATASIZE PUSH1 0x4 PUSH2 0x3086 JUMP JUMPDEST PUSH2 0x125E JUMP JUMPDEST CALLVALUE DUP1 ISZERO PUSH2 0x682 JUMPI PUSH1 0x0 DUP1 REVERT JUMPDEST POP PUSH2 0x461 PUSH2 0x691 CALLDATASIZE PUSH1 0x4 PUSH2 0x328C JUMP JUMPDEST PUSH2 0x12F1 JUMP JUMPDEST CALLVALUE DUP1 ISZERO PUSH2 0x6A2 JUMPI PUSH1 0x0 DUP1 REVERT JUMPDEST POP PUSH1 0xA SLOAD PUSH1 0x1 PUSH1 0xA0 SHL SWAP1 DIV PUSH1 0xFF AND PUSH2 0x3D2 JUMP JUMPDEST CALLVALUE DUP1 ISZERO PUSH2 0x6C1 JUMPI PUSH1 0x0 DUP1 REVERT JUMPDEST POP PUSH2 0x429 PUSH2 0x6D0 CALLDATASIZE PUSH1 0x4 PUSH2 0x3086 JUMP JUMPDEST PUSH2 0x1327 JUMP JUMPDEST CALLVALUE DUP1 ISZERO PUSH2 0x6E1 JUMPI PUSH1 0x0 DUP1 REVERT JUMPDEST POP PUSH2 0x489 PUSH1 0x12 SLOAD DUP2 JUMP JUMPDEST CALLVALUE DUP1 ISZERO PUSH2 0x6F7 JUMPI PUSH1 0x0 DUP1 REVERT JUMPDEST POP PUSH2 0x489 PUSH2 0x1388 DUP2 JUMP JUMPDEST CALLVALUE DUP1 ISZERO PUSH2 0x70D JUMPI PUSH1 0x0 DUP1 REVERT JUMPDEST POP PUSH2 0x721 PUSH2 0x71C CALLDATASIZE PUSH1 0x4 PUSH2 0x32FE JUMP JUMPDEST PUSH2 0x139E JUMP JUMPDEST PUSH1 0x40 MLOAD PUSH2 0x3DE SWAP2 SWAP1 PUSH2 0x331B JUMP JUMPDEST CALLVALUE DUP1 ISZERO PUSH2 0x73A JUMPI PUSH1 0x0 DUP1 REVERT JUMPDEST POP PUSH2 0x489 PUSH2 0x749 CALLDATASIZE PUSH1 0x4 PUSH2 0x32FE JUMP JUMPDEST PUSH2 0x146E JUMP JUMPDEST CALLVALUE DUP1 ISZERO PUSH2 0x75A JUMPI PUSH1 0x0 DUP1 REVERT JUMPDEST POP PUSH2 0x461 PUSH2 0x14F5 JUMP JUMPDEST CALLVALUE DUP1 ISZERO PUSH2 0x76F JUMPI PUSH1 0x0 DUP1 REVERT JUMPDEST POP PUSH2 0x489 PUSH2 0x2710 DUP2 JUMP JUMPDEST CALLVALUE DUP1 ISZERO PUSH2 0x785 JUMPI PUSH1 0x0 DUP1 REVERT JUMPDEST POP PUSH2 0x489 PUSH1 0x17 SLOAD DUP2 JUMP JUMPDEST PUSH2 0x461 PUSH2 0x79D CALLDATASIZE PUSH1 0x4 PUSH2 0x335F JUMP JUMPDEST PUSH2 0x152B JUMP JUMPDEST CALLVALUE DUP1 ISZERO PUSH2 0x7AE JUMPI PUSH1 0x0 DUP1 REVERT JUMPDEST POP PUSH2 0x461 PUSH2 0x7BD CALLDATASIZE PUSH1 0x4 PUSH2 0x3086 JUMP JUMPDEST PUSH2 0x174D JUMP JUMPDEST CALLVALUE DUP1 ISZERO PUSH2 0x7CE JUMPI PUSH1 0x0 DUP1 REVERT JUMPDEST POP PUSH1 0xC SLOAD PUSH2 0x429 SWAP1 PUSH1 0x1 PUSH1 0x1 PUSH1 0xA0 SHL SUB AND DUP2 JUMP JUMPDEST CALLVALUE DUP1 ISZERO PUSH2 0x7EE JUMPI PUSH1 0x0 DUP1 REVERT JUMPDEST POP PUSH1 0xA SLOAD PUSH1 0x1 PUSH1 0x1 PUSH1 0xA0 SHL SUB AND PUSH2 0x429 JUMP JUMPDEST CALLVALUE DUP1 ISZERO PUSH2 0x80C JUMPI PUSH1 0x0 DUP1 REVERT JUMPDEST POP PUSH2 0x3FC PUSH2 0x177C JUMP JUMPDEST CALLVALUE DUP1 ISZERO PUSH2 0x821 JUMPI PUSH1 0x0 DUP1 REVERT JUMPDEST POP PUSH2 0x489 PUSH1 0x15 SLOAD DUP2 JUMP JUMPDEST CALLVALUE DUP1 ISZERO PUSH2 0x837 JUMPI PUSH1 0x0 DUP1 REVERT JUMPDEST POP PUSH2 0x84B PUSH2 0x846 CALLDATASIZE PUSH1 0x4 PUSH2 0x32FE JUMP JUMPDEST PUSH2 0x178B JUMP JUMPDEST PUSH1 0x40 MLOAD PUSH2 0x3DE SWAP2 SWAP1 PUSH2 0x3425 JUMP JUMPDEST CALLVALUE DUP1 ISZERO PUSH2 0x864 JUMPI PUSH1 0x0 DUP1 REVERT JUMPDEST POP PUSH2 0x461 PUSH2 0x873 CALLDATASIZE PUSH1 0x4 PUSH2 0x3482 JUMP JUMPDEST PUSH2 0x1897 JUMP JUMPDEST CALLVALUE DUP1 ISZERO PUSH2 0x884 JUMPI PUSH1 0x0 DUP1 REVERT JUMPDEST POP PUSH2 0x3D2 PUSH2 0x195B JUMP JUMPDEST CALLVALUE DUP1 ISZERO PUSH2 0x899 JUMPI PUSH1 0x0 DUP1 REVERT JUMPDEST POP PUSH2 0x489 PUSH1 0x19 SLOAD DUP2 JUMP JUMPDEST CALLVALUE DUP1 ISZERO PUSH2 0x8AF JUMPI PUSH1 0x0 DUP1 REVERT JUMPDEST POP PUSH2 0x489 PUSH2 0x3A98 DUP2 JUMP JUMPDEST PUSH2 0x461 PUSH2 0x8C7 CALLDATASIZE PUSH1 0x4 PUSH2 0x319C JUMP JUMPDEST PUSH2 0x1975 JUMP JUMPDEST PUSH2 0x461 PUSH2 0x8DA CALLDATASIZE PUSH1 0x4 PUSH2 0x3086 JUMP JUMPDEST PUSH2 0x1A96 JUMP JUMPDEST CALLVALUE DUP1 ISZERO PUSH2 0x8EB JUMPI PUSH1 0x0 DUP1 REVERT JUMPDEST POP PUSH2 0x489 PUSH1 0x18 SLOAD DUP2 JUMP JUMPDEST CALLVALUE DUP1 ISZERO PUSH2 0x901 JUMPI PUSH1 0x0 DUP1 REVERT JUMPDEST POP PUSH2 0x489 PUSH8 0x14D1120D7B160000 DUP2 JUMP JUMPDEST CALLVALUE DUP1 ISZERO PUSH2 0x91D JUMPI PUSH1 0x0 DUP1 REVERT JUMPDEST POP PUSH2 0x461 PUSH2 0x92C CALLDATASIZE PUSH1 0x4 PUSH2 0x34BB JUMP JUMPDEST PUSH2 0x1B70 JUMP JUMPDEST CALLVALUE DUP1 ISZERO PUSH2 0x93D JUMPI PUSH1 0x0 DUP1 REVERT JUMPDEST POP PUSH1 0xD SLOAD PUSH2 0x429 SWAP1 PUSH1 0x1 PUSH1 0x1 PUSH1 0xA0 SHL SUB AND DUP2 JUMP JUMPDEST CALLVALUE DUP1 ISZERO PUSH2 0x95D JUMPI PUSH1 0x0 DUP1 REVERT JUMPDEST POP PUSH2 0x3FC PUSH2 0x96C CALLDATASIZE PUSH1 0x4 PUSH2 0x3086 JUMP JUMPDEST PUSH2 0x1BA2 JUMP JUMPDEST CALLVALUE DUP1 ISZERO PUSH2 0x97D JUMPI PUSH1 0x0 DUP1 REVERT JUMPDEST POP PUSH2 0x489 PUSH2 0x98C CALLDATASIZE PUSH1 0x4 PUSH2 0x32FE JUMP JUMPDEST PUSH1 0x11 PUSH1 0x20 MSTORE PUSH1 0x0 SWAP1 DUP2 MSTORE PUSH1 0x40 SWAP1 KECCAK256 SLOAD DUP2 JUMP JUMPDEST CALLVALUE DUP1 ISZERO PUSH2 0x9AA JUMPI PUSH1 0x0 DUP1 REVERT JUMPDEST POP PUSH2 0x3FC PUSH2 0x1C49 JUMP JUMPDEST CALLVALUE DUP1 ISZERO PUSH2 0x9BF JUMPI PUSH1 0x0 DUP1 REVERT JUMPDEST POP PUSH1 0xE SLOAD PUSH2 0x429 SWAP1 PUSH1 0x1 PUSH1 0x1 PUSH1 0xA0 SHL SUB AND DUP2 JUMP JUMPDEST CALLVALUE DUP1 ISZERO PUSH2 0x9DF JUMPI PUSH1 0x0 DUP1 REVERT JUMPDEST POP PUSH2 0x461 PUSH2 0x9EE CALLDATASIZE PUSH1 0x4 PUSH2 0x32FE JUMP JUMPDEST PUSH2 0x1CD7 JUMP JUMPDEST CALLVALUE DUP1 ISZERO PUSH2 0x9FF JUMPI PUSH1 0x0 DUP1 REVERT JUMPDEST POP PUSH2 0x489 PUSH1 0x1A SLOAD DUP2 JUMP JUMPDEST CALLVALUE DUP1 ISZERO PUSH2 0xA15 JUMPI PUSH1 0x0 DUP1 REVERT JUMPDEST POP PUSH2 0x84B PUSH2 0xA24 CALLDATASIZE PUSH1 0x4 PUSH2 0x30B4 JUMP JUMPDEST PUSH2 0x1D23 JUMP JUMPDEST CALLVALUE DUP1 ISZERO PUSH2 0xA35 JUMPI PUSH1 0x0 DUP1 REVERT JUMPDEST POP PUSH2 0x489 PUSH1 0xB SLOAD DUP2 JUMP JUMPDEST CALLVALUE DUP1 ISZERO PUSH2 0xA4B JUMPI PUSH1 0x0 DUP1 REVERT JUMPDEST POP PUSH2 0x3D2 PUSH2 0xA5A CALLDATASIZE PUSH1 0x4 PUSH2 0x357F JUMP JUMPDEST PUSH1 0x1 PUSH1 0x1 PUSH1 0xA0 SHL SUB SWAP2 DUP3 AND PUSH1 0x0 SWAP1 DUP2 MSTORE PUSH1 0x5 PUSH1 0x20 SWAP1 DUP2 MSTORE PUSH1 0x40 DUP1 DUP4 KECCAK256 SWAP4 SWAP1 SWAP5 AND DUP3 MSTORE SWAP2 SWAP1 SWAP2 MSTORE KECCAK256 SLOAD PUSH1 0xFF AND SWAP1 JUMP JUMPDEST CALLVALUE DUP1 ISZERO PUSH2 0xA94 JUMPI PUSH1 0x0 DUP1 REVERT JUMPDEST POP PUSH2 0x489 PUSH1 0x13 SLOAD DUP2 JUMP JUMPDEST CALLVALUE DUP1 ISZERO PUSH2 0xAAA JUMPI PUSH1 0x0 DUP1 REVERT JUMPDEST POP PUSH2 0x461 PUSH2 0xAB9 CALLDATASIZE PUSH1 0x4 PUSH2 0x32FE JUMP JUMPDEST PUSH2 0x1E44 JUMP JUMPDEST CALLVALUE DUP1 ISZERO PUSH2 0xACA JUMPI PUSH1 0x0 DUP1 REVERT JUMPDEST POP PUSH2 0x489 PUSH1 0x3 DUP2 JUMP JUMPDEST CALLVALUE DUP1 ISZERO PUSH2 0xADF JUMPI PUSH1 0x0 DUP1 REVERT JUMPDEST POP PUSH2 0x489 PUSH1 0x14 SLOAD DUP2 JUMP JUMPDEST PUSH1 0x0 PUSH1 0x1 PUSH1 0x1 PUSH1 0xE0 SHL SUB NOT DUP3 AND PUSH4 0x780E9D63 PUSH1 0xE0 SHL EQ DUP1 PUSH2 0xB0E JUMPI POP PUSH2 0xB0E DUP3 PUSH2 0x1EDF JUMP JUMPDEST SWAP3 SWAP2 POP POP JUMP JUMPDEST PUSH1 0x60 PUSH1 0x0 DUP1 SLOAD PUSH2 0xB23 SWAP1 PUSH2 0x35AD JUMP JUMPDEST DUP1 PUSH1 0x1F ADD PUSH1 0x20 DUP1 SWAP2 DIV MUL PUSH1 0x20 ADD PUSH1 0x40 MLOAD SWAP1 DUP2 ADD PUSH1 0x40 MSTORE DUP1 SWAP3 SWAP2 SWAP1 DUP2 DUP2 MSTORE PUSH1 0x20 ADD DUP3 DUP1 SLOAD PUSH2 0xB4F SWAP1 PUSH2 0x35AD JUMP JUMPDEST DUP1 ISZERO PUSH2 0xB9C JUMPI DUP1 PUSH1 0x1F LT PUSH2 0xB71 JUMPI PUSH2 0x100 DUP1 DUP4 SLOAD DIV MUL DUP4 MSTORE SWAP2 PUSH1 0x20 ADD SWAP2 PUSH2 0xB9C JUMP JUMPDEST DUP3 ADD SWAP2 SWAP1 PUSH1 0x0 MSTORE PUSH1 0x20 PUSH1 0x0 KECCAK256 SWAP1 JUMPDEST DUP2 SLOAD DUP2 MSTORE SWAP1 PUSH1 0x1 ADD SWAP1 PUSH1 0x20 ADD DUP1 DUP4 GT PUSH2 0xB7F JUMPI DUP3 SWAP1 SUB PUSH1 0x1F AND DUP3 ADD SWAP2 JUMPDEST POP POP POP POP POP SWAP1 POP SWAP1 JUMP JUMPDEST PUSH1 0x0 PUSH2 0xBB1 DUP3 PUSH2 0x1F2F JUMP JUMPDEST PUSH2 0xC17 JUMPI PUSH1 0x40 MLOAD PUSH3 0x461BCD PUSH1 0xE5 SHL DUP2 MSTORE PUSH1 0x20 PUSH1 0x4 DUP3 ADD MSTORE PUSH1 0x2C PUSH1 0x24 DUP3 ADD MSTORE PUSH32 0x4552433732313A20617070726F76656420717565727920666F72206E6F6E6578 PUSH1 0x44 DUP3 ADD MSTORE PUSH12 0x34B9BA32B73A103A37B5B2B7 PUSH1 0xA1 SHL PUSH1 0x64 DUP3 ADD MSTORE PUSH1 0x84 ADD JUMPDEST PUSH1 0x40 MLOAD DUP1 SWAP2 SUB SWAP1 REVERT JUMPDEST POP PUSH1 0x0 SWAP1 DUP2 MSTORE PUSH1 0x4 PUSH1 0x20 MSTORE PUSH1 0x40 SWAP1 KECCAK256 SLOAD PUSH1 0x1 PUSH1 0x1 PUSH1 0xA0 SHL SUB AND SWAP1 JUMP JUMPDEST PUSH1 0x0 PUSH2 0xC3E DUP3 PUSH2 0x1327 JUMP JUMPDEST SWAP1 POP DUP1 PUSH1 0x1 PUSH1 0x1 PUSH1 0xA0 SHL SUB AND DUP4 PUSH1 0x1 PUSH1 0x1 PUSH1 0xA0 SHL SUB AND SUB PUSH2 0xCAB JUMPI PUSH1 0x40 MLOAD PUSH3 0x461BCD PUSH1 0xE5 SHL DUP2 MSTORE PUSH1 0x20 PUSH1 0x4 DUP3 ADD MSTORE PUSH1 0x21 PUSH1 0x24 DUP3 ADD MSTORE PUSH32 0x4552433732313A20617070726F76616C20746F2063757272656E74206F776E65 PUSH1 0x44 DUP3 ADD MSTORE PUSH1 0x39 PUSH1 0xF9 SHL PUSH1 0x64 DUP3 ADD MSTORE PUSH1 0x84 ADD PUSH2 0xC0E JUMP JUMPDEST CALLER PUSH1 0x1 PUSH1 0x1 PUSH1 0xA0 SHL SUB DUP3 AND EQ DUP1 PUSH2 0xCC7 JUMPI POP PUSH2 0xCC7 DUP2 CALLER PUSH2 0xA5A JUMP JUMPDEST PUSH2 0xD39 JUMPI PUSH1 0x40 MLOAD PUSH3 0x461BCD PUSH1 0xE5 SHL DUP2 MSTORE PUSH1 0x20 PUSH1 0x4 DUP3 ADD MSTORE PUSH1 0x38 PUSH1 0x24 DUP3 ADD MSTORE PUSH32 0x4552433732313A20617070726F76652063616C6C6572206973206E6F74206F77 PUSH1 0x44 DUP3 ADD MSTORE PUSH32 0x6E6572206E6F7220617070726F76656420666F7220616C6C0000000000000000 PUSH1 0x64 DUP3 ADD MSTORE PUSH1 0x84 ADD PUSH2 0xC0E JUMP JUMPDEST PUSH2 0xD43 DUP4 DUP4 PUSH2 0x1F4C JUMP JUMPDEST POP POP POP JUMP JUMPDEST PUSH1 0x0 PUSH1 0x1A SLOAD PUSH1 0x0 EQ ISZERO DUP1 ISZERO PUSH2 0xD5F JUMPI POP PUSH1 0x1A SLOAD TIMESTAMP LT ISZERO JUMPDEST SWAP1 POP SWAP1 JUMP JUMPDEST PUSH1 0xA SLOAD PUSH1 0x1 PUSH1 0xA0 SHL SWAP1 DIV PUSH1 0xFF AND ISZERO PUSH2 0xD8E JUMPI PUSH1 0x40 MLOAD PUSH3 0x461BCD PUSH1 0xE5 SHL DUP2 MSTORE PUSH1 0x4 ADD PUSH2 0xC0E SWAP1 PUSH2 0x35E7 JUMP JUMPDEST DUP3 PUSH1 0x1 EQ DUP1 PUSH2 0xD9D JUMPI POP DUP3 PUSH1 0x5 EQ JUMPDEST DUP1 PUSH2 0xDA8 JUMPI POP DUP3 PUSH1 0xA EQ JUMPDEST PUSH2 0xDC4 JUMPI PUSH1 0x40 MLOAD PUSH3 0x461BCD PUSH1 0xE5 SHL DUP2 MSTORE PUSH1 0x4 ADD PUSH2 0xC0E SWAP1 PUSH2 0x3611 JUMP JUMPDEST DUP2 MLOAD DUP4 EQ DUP1 ISZERO PUSH2 0xDD4 JUMPI POP DUP1 MLOAD DUP4 EQ JUMPDEST PUSH2 0xDF0 JUMPI PUSH1 0x40 MLOAD PUSH3 0x461BCD PUSH1 0xE5 SHL DUP2 MSTORE PUSH1 0x4 ADD PUSH2 0xC0E SWAP1 PUSH2 0x3648 JUMP JUMPDEST PUSH1 0x14 SLOAD PUSH2 0xDFF SWAP1 PUSH2 0x2710 PUSH2 0x36B2 JUMP JUMPDEST DUP4 PUSH1 0x12 SLOAD PUSH2 0xE0D SWAP2 SWAP1 PUSH2 0x36C9 JUMP JUMPDEST GT ISZERO PUSH2 0xE2B JUMPI PUSH1 0x40 MLOAD PUSH3 0x461BCD PUSH1 0xE5 SHL DUP2 MSTORE PUSH1 0x4 ADD PUSH2 0xC0E SWAP1 PUSH2 0x36E1 JUMP JUMPDEST PUSH1 0x0 DUP4 PUSH1 0xB SLOAD PUSH2 0xE3B SWAP2 SWAP1 PUSH2 0x3723 JUMP JUMPDEST PUSH1 0xC SLOAD SWAP1 SWAP2 POP DUP2 SWAP1 PUSH1 0x1 PUSH1 0x1 PUSH1 0xA0 SHL SUB AND PUSH4 0x70A08231 CALLER PUSH1 0x40 MLOAD PUSH1 0x1 PUSH1 0x1 PUSH1 0xE0 SHL SUB NOT PUSH1 0xE0 DUP5 SWAP1 SHL AND DUP2 MSTORE PUSH1 0x1 PUSH1 0x1 PUSH1 0xA0 SHL SUB SWAP1 SWAP2 AND PUSH1 0x4 DUP3 ADD MSTORE PUSH1 0x24 ADD PUSH1 0x20 PUSH1 0x40 MLOAD DUP1 DUP4 SUB DUP2 DUP7 GAS STATICCALL ISZERO DUP1 ISZERO PUSH2 0xE96 JUMPI RETURNDATASIZE PUSH1 0x0 DUP1 RETURNDATACOPY RETURNDATASIZE PUSH1 0x0 REVERT JUMPDEST POP POP POP POP PUSH1 0x40 MLOAD RETURNDATASIZE PUSH1 0x1F NOT PUSH1 0x1F DUP3 ADD AND DUP3 ADD DUP1 PUSH1 0x40 MSTORE POP DUP2 ADD SWAP1 PUSH2 0xEBA SWAP2 SWAP1 PUSH2 0x3742 JUMP JUMPDEST LT ISZERO PUSH2 0xEFA JUMPI PUSH1 0x40 MLOAD PUSH3 0x461BCD PUSH1 0xE5 SHL DUP2 MSTORE PUSH1 0x20 PUSH1 0x4 DUP3 ADD MSTORE PUSH1 0xF PUSH1 0x24 DUP3 ADD MSTORE PUSH15 0x1B9BDD08195B9BDD59DA0814D3D553 PUSH1 0x8A SHL PUSH1 0x44 DUP3 ADD MSTORE PUSH1 0x64 ADD PUSH2 0xC0E JUMP JUMPDEST PUSH2 0x1388 PUSH1 0x13 SLOAD GT ISZERO DUP1 ISZERO PUSH2 0xF1C JUMPI POP PUSH2 0x1388 DUP5 PUSH1 0x13 SLOAD PUSH2 0xF1A SWAP2 SWAP1 PUSH2 0x36C9 JUMP JUMPDEST GT JUMPDEST ISZERO PUSH2 0xF33 JUMPI PUSH1 0xB SLOAD PUSH2 0xF2F SWAP1 PUSH1 0x2 PUSH2 0x3723 JUMP JUMPDEST PUSH1 0xB SSTORE JUMPDEST DUP4 PUSH1 0x13 PUSH1 0x0 DUP3 DUP3 SLOAD PUSH2 0xF45 SWAP2 SWAP1 PUSH2 0x36C9 JUMP JUMPDEST SWAP1 SWAP2 SSTORE POP POP PUSH1 0xC SLOAD PUSH1 0x1 PUSH1 0x1 PUSH1 0xA0 SHL SUB AND PUSH4 0x79CC6790 CALLER PUSH1 0x40 MLOAD PUSH1 0x1 PUSH1 0x1 PUSH1 0xE0 SHL SUB NOT PUSH1 0xE0 DUP5 SWAP1 SHL AND DUP2 MSTORE PUSH1 0x1 PUSH1 0x1 PUSH1 0xA0 SHL SUB SWAP1 SWAP2 AND PUSH1 0x4 DUP3 ADD MSTORE PUSH1 0x24 DUP2 ADD DUP5 SWAP1 MSTORE PUSH1 0x44 ADD PUSH1 0x0 PUSH1 0x40 MLOAD DUP1 DUP4 SUB DUP2 PUSH1 0x0 DUP8 DUP1 EXTCODESIZE ISZERO DUP1 ISZERO PUSH2 0xFA4 JUMPI PUSH1 0x0 DUP1 REVERT JUMPDEST POP GAS CALL ISZERO DUP1 ISZERO PUSH2 0xFB8 JUMPI RETURNDATASIZE PUSH1 0x0 DUP1 RETURNDATACOPY RETURNDATASIZE PUSH1 0x0 REVERT JUMPDEST POP POP POP POP PUSH2 0xFCE DUP5 DUP5 DUP5 PUSH2 0xFC9 CALLER SWAP1 JUMP JUMPDEST PUSH2 0x1FBA JUMP JUMPDEST POP POP POP POP JUMP JUMPDEST PUSH1 0xA SLOAD PUSH1 0x1 PUSH1 0x1 PUSH1 0xA0 SHL SUB AND CALLER EQ PUSH2 0xFFE JUMPI PUSH1 0x40 MLOAD PUSH3 0x461BCD PUSH1 0xE5 SHL DUP2 MSTORE PUSH1 0x4 ADD PUSH2 0xC0E SWAP1 PUSH2 0x375B JUMP JUMPDEST TIMESTAMP DUP2 LT ISZERO PUSH2 0x104E JUMPI PUSH1 0x40 MLOAD PUSH3 0x461BCD PUSH1 0xE5 SHL DUP2 MSTORE PUSH1 0x20 PUSH1 0x4 DUP3 ADD MSTORE PUSH1 0x1F PUSH1 0x24 DUP3 ADD MSTORE PUSH32 0x737461727454696D652063616E6E6F7420626520696E20746865207061737400 PUSH1 0x44 DUP3 ADD MSTORE PUSH1 0x64 ADD PUSH2 0xC0E JUMP JUMPDEST PUSH1 0x1A SSTORE JUMP JUMPDEST PUSH2 0x105D CALLER DUP3 PUSH2 0x2035 JUMP JUMPDEST PUSH2 0x1079 JUMPI PUSH1 0x40 MLOAD PUSH3 0x461BCD PUSH1 0xE5 SHL DUP2 MSTORE PUSH1 0x4 ADD PUSH2 0xC0E SWAP1 PUSH2 0x3790 JUMP JUMPDEST PUSH2 0xD43 DUP4 DUP4 DUP4 PUSH2 0x211F JUMP JUMPDEST PUSH1 0x0 PUSH2 0x108F DUP4 PUSH2 0x146E JUMP JUMPDEST DUP3 LT PUSH2 0x10F1 JUMPI PUSH1 0x40 MLOAD PUSH3 0x461BCD PUSH1 0xE5 SHL DUP2 MSTORE PUSH1 0x20 PUSH1 0x4 DUP3 ADD MSTORE PUSH1 0x2B PUSH1 0x24 DUP3 ADD MSTORE PUSH32 0x455243373231456E756D657261626C653A206F776E657220696E646578206F75 PUSH1 0x44 DUP3 ADD MSTORE PUSH11 0x74206F6620626F756E6473 PUSH1 0xA8 SHL PUSH1 0x64 DUP3 ADD MSTORE PUSH1 0x84 ADD PUSH2 0xC0E JUMP JUMPDEST POP PUSH1 0x1 PUSH1 0x1 PUSH1 0xA0 SHL SUB SWAP2 SWAP1 SWAP2 AND PUSH1 0x0 SWAP1 DUP2 MSTORE PUSH1 0x6 PUSH1 0x20 SWAP1 DUP2 MSTORE PUSH1 0x40 DUP1 DUP4 KECCAK256 SWAP4 DUP4 MSTORE SWAP3 SWAP1 MSTORE KECCAK256 SLOAD SWAP1 JUMP JUMPDEST PUSH1 0xA SLOAD PUSH1 0x1 PUSH1 0x1 PUSH1 0xA0 SHL SUB AND CALLER EQ PUSH2 0x1144 JUMPI PUSH1 0x40 MLOAD PUSH3 0x461BCD PUSH1 0xE5 SHL DUP2 MSTORE PUSH1 0x4 ADD PUSH2 0xC0E SWAP1 PUSH2 0x375B JUMP JUMPDEST TIMESTAMP DUP2 LT ISZERO PUSH2 0x1194 JUMPI PUSH1 0x40 MLOAD PUSH3 0x461BCD PUSH1 0xE5 SHL DUP2 MSTORE PUSH1 0x20 PUSH1 0x4 DUP3 ADD MSTORE PUSH1 0x1F PUSH1 0x24 DUP3 ADD MSTORE PUSH32 0x737461727454696D652063616E6E6F7420626520696E20746865207061737400 PUSH1 0x44 DUP3 ADD MSTORE PUSH1 0x64 ADD PUSH2 0xC0E JUMP JUMPDEST PUSH1 0x19 SSTORE JUMP JUMPDEST PUSH1 0x0 PUSH2 0x11A4 DUP3 PUSH2 0x1F2F JUMP JUMPDEST PUSH2 0x11E7 JUMPI PUSH1 0x40 MLOAD PUSH3 0x461BCD PUSH1 0xE5 SHL DUP2 MSTORE PUSH1 0x20 PUSH1 0x4 DUP3 ADD MSTORE PUSH1 0x14 PUSH1 0x24 DUP3 ADD MSTORE PUSH20 0x1D1BDAD95B88191BD95CC81B9BDD08195E1A5CDD PUSH1 0x62 SHL PUSH1 0x44 DUP3 ADD MSTORE PUSH1 0x64 ADD PUSH2 0xC0E JUMP JUMPDEST POP PUSH1 0x0 SWAP1 DUP2 MSTORE PUSH1 0x1B PUSH1 0x20 MSTORE PUSH1 0x40 SWAP1 KECCAK256 SLOAD SWAP1 JUMP JUMPDEST PUSH2 0xD43 DUP4 DUP4 DUP4 PUSH1 0x40 MLOAD DUP1 PUSH1 0x20 ADD PUSH1 0x40 MSTORE DUP1 PUSH1 0x0 DUP2 MSTORE POP PUSH2 0x1B70 JUMP JUMPDEST PUSH1 0xA SLOAD PUSH1 0x1 PUSH1 0x1 PUSH1 0xA0 SHL SUB AND CALLER EQ PUSH2 0x123F JUMPI PUSH1 0x40 MLOAD PUSH3 0x461BCD PUSH1 0xE5 SHL DUP2 MSTORE PUSH1 0x4 ADD PUSH2 0xC0E SWAP1 PUSH2 0x375B JUMP JUMPDEST PUSH2 0xD43 PUSH1 0x1 PUSH1 0x1 PUSH1 0xA0 SHL SUB DUP5 AND DUP3 DUP5 PUSH2 0x22CA JUMP JUMPDEST PUSH1 0x0 PUSH2 0xB0E DUP3 PUSH2 0x1F2F JUMP JUMPDEST PUSH1 0x0 PUSH2 0x1269 PUSH1 0x8 SLOAD SWAP1 JUMP JUMPDEST DUP3 LT PUSH2 0x12CC JUMPI PUSH1 0x40 MLOAD PUSH3 0x461BCD PUSH1 0xE5 SHL DUP2 MSTORE PUSH1 0x20 PUSH1 0x4 DUP3 ADD MSTORE PUSH1 0x2C PUSH1 0x24 DUP3 ADD MSTORE PUSH32 0x455243373231456E756D657261626C653A20676C6F62616C20696E646578206F PUSH1 0x44 DUP3 ADD MSTORE PUSH12 0x7574206F6620626F756E6473 PUSH1 0xA0 SHL PUSH1 0x64 DUP3 ADD MSTORE PUSH1 0x84 ADD PUSH2 0xC0E JUMP JUMPDEST PUSH1 0x8 DUP3 DUP2 SLOAD DUP2 LT PUSH2 0x12DF JUMPI PUSH2 0x12DF PUSH2 0x37E1 JUMP JUMPDEST SWAP1 PUSH1 0x0 MSTORE PUSH1 0x20 PUSH1 0x0 KECCAK256 ADD SLOAD SWAP1 POP SWAP2 SWAP1 POP JUMP JUMPDEST PUSH1 0xA SLOAD PUSH1 0x1 PUSH1 0x1 PUSH1 0xA0 SHL SUB AND CALLER EQ PUSH2 0x131B JUMPI PUSH1 0x40 MLOAD PUSH3 0x461BCD PUSH1 0xE5 SHL DUP2 MSTORE PUSH1 0x4 ADD PUSH2 0xC0E SWAP1 PUSH2 0x375B JUMP JUMPDEST PUSH2 0xD43 PUSH1 0xF DUP4 DUP4 PUSH2 0x2F4F JUMP JUMPDEST PUSH1 0x0 DUP2 DUP2 MSTORE PUSH1 0x2 PUSH1 0x20 MSTORE PUSH1 0x40 DUP2 KECCAK256 SLOAD PUSH1 0x1 PUSH1 0x1 PUSH1 0xA0 SHL SUB AND DUP1 PUSH2 0xB0E JUMPI PUSH1 0x40 MLOAD PUSH3 0x461BCD PUSH1 0xE5 SHL DUP2 MSTORE PUSH1 0x20 PUSH1 0x4 DUP3 ADD MSTORE PUSH1 0x29 PUSH1 0x24 DUP3 ADD MSTORE PUSH32 0x4552433732313A206F776E657220717565727920666F72206E6F6E6578697374 PUSH1 0x44 DUP3 ADD MSTORE PUSH9 0x32B73A103A37B5B2B7 PUSH1 0xB9 SHL PUSH1 0x64 DUP3 ADD MSTORE PUSH1 0x84 ADD PUSH2 0xC0E JUMP JUMPDEST PUSH1 0x60 PUSH1 0x0 PUSH2 0x13AB DUP4 PUSH2 0x146E JUMP JUMPDEST GT PUSH2 0x13C8 JUMPI PUSH1 0x40 MLOAD PUSH3 0x461BCD PUSH1 0xE5 SHL DUP2 MSTORE PUSH1 0x4 ADD PUSH2 0xC0E SWAP1 PUSH2 0x37F7 JUMP JUMPDEST PUSH1 0x0 PUSH2 0x13D3 DUP4 PUSH2 0x146E JUMP JUMPDEST SWAP1 POP PUSH1 0x0 DUP2 PUSH8 0xFFFFFFFFFFFFFFFF DUP2 GT ISZERO PUSH2 0x13F0 JUMPI PUSH2 0x13F0 PUSH2 0x30E0 JUMP JUMPDEST PUSH1 0x40 MLOAD SWAP1 DUP1 DUP3 MSTORE DUP1 PUSH1 0x20 MUL PUSH1 0x20 ADD DUP3 ADD PUSH1 0x40 MSTORE DUP1 ISZERO PUSH2 0x1419 JUMPI DUP2 PUSH1 0x20 ADD PUSH1 0x20 DUP3 MUL DUP1 CALLDATASIZE DUP4 CALLDATACOPY ADD SWAP1 POP JUMPDEST POP SWAP1 POP PUSH1 0x0 JUMPDEST DUP3 DUP2 LT ISZERO PUSH2 0x1466 JUMPI PUSH1 0x0 PUSH2 0x1433 DUP7 DUP4 PUSH2 0x1084 JUMP JUMPDEST SWAP1 POP DUP1 DUP4 DUP4 DUP2 MLOAD DUP2 LT PUSH2 0x1448 JUMPI PUSH2 0x1448 PUSH2 0x37E1 JUMP JUMPDEST PUSH1 0x20 SWAP1 DUP2 MUL SWAP2 SWAP1 SWAP2 ADD ADD MSTORE POP DUP1 PUSH2 0x145E DUP2 PUSH2 0x382E JUMP JUMPDEST SWAP2 POP POP PUSH2 0x141F JUMP JUMPDEST POP SWAP4 SWAP3 POP POP POP JUMP JUMPDEST PUSH1 0x0 PUSH1 0x1 PUSH1 0x1 PUSH1 0xA0 SHL SUB DUP3 AND PUSH2 0x14D9 JUMPI PUSH1 0x40 MLOAD PUSH3 0x461BCD PUSH1 0xE5 SHL DUP2 MSTORE PUSH1 0x20 PUSH1 0x4 DUP3 ADD MSTORE PUSH1 0x2A PUSH1 0x24 DUP3 ADD MSTORE PUSH32 0x4552433732313A2062616C616E636520717565727920666F7220746865207A65 PUSH1 0x44 DUP3 ADD MSTORE PUSH10 0x726F2061646472657373 PUSH1 0xB0 SHL PUSH1 0x64 DUP3 ADD MSTORE PUSH1 0x84 ADD PUSH2 0xC0E JUMP JUMPDEST POP PUSH1 0x1 PUSH1 0x1 PUSH1 0xA0 SHL SUB AND PUSH1 0x0 SWAP1 DUP2 MSTORE PUSH1 0x3 PUSH1 0x20 MSTORE PUSH1 0x40 SWAP1 KECCAK256 SLOAD SWAP1 JUMP JUMPDEST PUSH1 0xA SLOAD PUSH1 0x1 PUSH1 0x1 PUSH1 0xA0 SHL SUB AND CALLER EQ PUSH2 0x151F JUMPI PUSH1 0x40 MLOAD PUSH3 0x461BCD PUSH1 0xE5 SHL DUP2 MSTORE PUSH1 0x4 ADD PUSH2 0xC0E SWAP1 PUSH2 0x375B JUMP JUMPDEST PUSH2 0x1529 PUSH1 0x0 PUSH2 0x231C JUMP JUMPDEST JUMP JUMPDEST PUSH1 0xA SLOAD PUSH1 0x1 PUSH1 0xA0 SHL SWAP1 DIV PUSH1 0xFF AND ISZERO PUSH2 0x1555 JUMPI PUSH1 0x40 MLOAD PUSH3 0x461BCD PUSH1 0xE5 SHL DUP2 MSTORE PUSH1 0x4 ADD PUSH2 0xC0E SWAP1 PUSH2 0x35E7 JUMP JUMPDEST PUSH1 0x10 SLOAD PUSH1 0x0 SUB PUSH2 0x1596 JUMPI PUSH1 0x40 MLOAD PUSH3 0x461BCD PUSH1 0xE5 SHL DUP2 MSTORE PUSH1 0x20 PUSH1 0x4 DUP3 ADD MSTORE PUSH1 0xC PUSH1 0x24 DUP3 ADD MSTORE PUSH12 0x1B5A5CDCDA5B99C81C9BDBDD PUSH1 0xA2 SHL PUSH1 0x44 DUP3 ADD MSTORE PUSH1 0x64 ADD PUSH2 0xC0E JUMP JUMPDEST PUSH1 0x40 MLOAD PUSH12 0xFFFFFFFFFFFFFFFFFFFFFFFF NOT CALLER PUSH1 0x60 SHL AND PUSH1 0x20 DUP3 ADD MSTORE PUSH1 0x0 SWAP1 PUSH1 0x34 ADD PUSH1 0x40 MLOAD PUSH1 0x20 DUP2 DUP4 SUB SUB DUP2 MSTORE SWAP1 PUSH1 0x40 MSTORE DUP1 MLOAD SWAP1 PUSH1 0x20 ADD KECCAK256 SWAP1 POP PUSH2 0x1610 DUP7 DUP7 DUP1 DUP1 PUSH1 0x20 MUL PUSH1 0x20 ADD PUSH1 0x40 MLOAD SWAP1 DUP2 ADD PUSH1 0x40 MSTORE DUP1 SWAP4 SWAP3 SWAP2 SWAP1 DUP2 DUP2 MSTORE PUSH1 0x20 ADD DUP4 DUP4 PUSH1 0x20 MUL DUP1 DUP3 DUP5 CALLDATACOPY PUSH1 0x0 SWAP3 ADD SWAP2 SWAP1 SWAP2 MSTORE POP POP PUSH1 0x10 SLOAD SWAP2 POP DUP5 SWAP1 POP PUSH2 0x236E JUMP JUMPDEST PUSH2 0x166A JUMPI PUSH1 0x40 MLOAD PUSH3 0x461BCD PUSH1 0xE5 SHL DUP2 MSTORE PUSH1 0x20 PUSH1 0x4 DUP3 ADD MSTORE PUSH1 0x25 PUSH1 0x24 DUP3 ADD MSTORE PUSH32 0x74686973206164647265737320646F6573206E6F742068617665207065726D69 PUSH1 0x44 DUP3 ADD MSTORE PUSH5 0x39B9B4B7B7 PUSH1 0xD9 SHL PUSH1 0x64 DUP3 ADD MSTORE PUSH1 0x84 ADD PUSH2 0xC0E JUMP JUMPDEST DUP4 PUSH1 0x1 EQ DUP1 PUSH2 0x1679 JUMPI POP DUP4 PUSH1 0x5 EQ JUMPDEST DUP1 PUSH2 0x1684 JUMPI POP DUP4 PUSH1 0xA EQ JUMPDEST PUSH2 0x16A0 JUMPI PUSH1 0x40 MLOAD PUSH3 0x461BCD PUSH1 0xE5 SHL DUP2 MSTORE PUSH1 0x4 ADD PUSH2 0xC0E SWAP1 PUSH2 0x3611 JUMP JUMPDEST DUP3 MLOAD DUP5 EQ DUP1 ISZERO PUSH2 0x16B0 JUMPI POP DUP2 MLOAD DUP5 EQ JUMPDEST PUSH2 0x16CC JUMPI PUSH1 0x40 MLOAD PUSH3 0x461BCD PUSH1 0xE5 SHL DUP2 MSTORE PUSH1 0x4 ADD PUSH2 0xC0E SWAP1 PUSH2 0x3648 JUMP JUMPDEST PUSH2 0x16DE DUP5 PUSH8 0x120A871CC0020000 PUSH2 0x3723 JUMP JUMPDEST CALLVALUE LT ISZERO PUSH2 0x16FD JUMPI PUSH1 0x40 MLOAD PUSH3 0x461BCD PUSH1 0xE5 SHL DUP2 MSTORE PUSH1 0x4 ADD PUSH2 0xC0E SWAP1 PUSH2 0x3847 JUMP JUMPDEST DUP4 PUSH1 0x14 PUSH1 0x0 DUP3 DUP3 SLOAD PUSH2 0x170F SWAP2 SWAP1 PUSH2 0x36C9 JUMP JUMPDEST SWAP1 SWAP2 SSTORE POP POP CALLER PUSH1 0x0 SWAP1 DUP2 MSTORE PUSH1 0x11 PUSH1 0x20 MSTORE PUSH1 0x40 DUP2 KECCAK256 DUP1 SLOAD DUP7 SWAP3 SWAP1 PUSH2 0x1733 SWAP1 DUP5 SWAP1 PUSH2 0x36C9 JUMP JUMPDEST SWAP1 SWAP2 SSTORE POP PUSH2 0x1745 SWAP1 POP DUP5 DUP5 DUP5 CALLER PUSH2 0x1FBA JUMP JUMPDEST POP POP POP POP POP POP JUMP JUMPDEST PUSH1 0xA SLOAD PUSH1 0x1 PUSH1 0x1 PUSH1 0xA0 SHL SUB AND CALLER EQ PUSH2 0x1777 JUMPI PUSH1 0x40 MLOAD PUSH3 0x461BCD PUSH1 0xE5 SHL DUP2 MSTORE PUSH1 0x4 ADD PUSH2 0xC0E SWAP1 PUSH2 0x375B JUMP JUMPDEST PUSH1 0x10 SSTORE JUMP JUMPDEST PUSH1 0x60 PUSH1 0x1 DUP1 SLOAD PUSH2 0xB23 SWAP1 PUSH2 0x35AD JUMP JUMPDEST PUSH1 0x60 PUSH1 0x0 PUSH2 0x1798 DUP4 PUSH2 0x146E JUMP JUMPDEST GT PUSH2 0x17B5 JUMPI PUSH1 0x40 MLOAD PUSH3 0x461BCD PUSH1 0xE5 SHL DUP2 MSTORE PUSH1 0x4 ADD PUSH2 0xC0E SWAP1 PUSH2 0x37F7 JUMP JUMPDEST PUSH1 0x0 PUSH2 0x17C0 DUP4 PUSH2 0x146E JUMP JUMPDEST SWAP1 POP PUSH1 0x0 DUP2 PUSH8 0xFFFFFFFFFFFFFFFF DUP2 GT ISZERO PUSH2 0x17DD JUMPI PUSH2 0x17DD PUSH2 0x30E0 JUMP JUMPDEST PUSH1 0x40 MLOAD SWAP1 DUP1 DUP3 MSTORE DUP1 PUSH1 0x20 MUL PUSH1 0x20 ADD DUP3 ADD PUSH1 0x40 MSTORE DUP1 ISZERO PUSH2 0x1822 JUMPI DUP2 PUSH1 0x20 ADD JUMPDEST PUSH1 0x40 DUP1 MLOAD DUP1 DUP3 ADD SWAP1 SWAP2 MSTORE PUSH1 0x0 DUP1 DUP3 MSTORE PUSH1 0x20 DUP3 ADD MSTORE DUP2 MSTORE PUSH1 0x20 ADD SWAP1 PUSH1 0x1 SWAP1 SUB SWAP1 DUP2 PUSH2 0x17FB JUMPI SWAP1 POP JUMPDEST POP SWAP1 POP PUSH1 0x0 JUMPDEST DUP3 DUP2 LT ISZERO PUSH2 0x1466 JUMPI PUSH1 0x0 PUSH2 0x183C DUP7 DUP4 PUSH2 0x1084 JUMP JUMPDEST SWAP1 POP PUSH1 0x40 MLOAD DUP1 PUSH1 0x40 ADD PUSH1 0x40 MSTORE DUP1 DUP3 DUP2 MSTORE PUSH1 0x20 ADD PUSH1 0x1B PUSH1 0x0 DUP5 DUP2 MSTORE PUSH1 0x20 ADD SWAP1 DUP2 MSTORE PUSH1 0x20 ADD PUSH1 0x0 KECCAK256 SLOAD DUP2 MSTORE POP DUP4 DUP4 DUP2 MLOAD DUP2 LT PUSH2 0x1878 JUMPI PUSH2 0x1878 PUSH2 0x37E1 JUMP JUMPDEST PUSH1 0x20 MUL PUSH1 0x20 ADD ADD DUP2 SWAP1 MSTORE POP POP DUP1 DUP1 PUSH2 0x188F SWAP1 PUSH2 0x382E JUMP JUMPDEST SWAP2 POP POP PUSH2 0x1828 JUMP JUMPDEST CALLER PUSH1 0x1 PUSH1 0x1 PUSH1 0xA0 SHL SUB DUP4 AND SUB PUSH2 0x18EF JUMPI PUSH1 0x40 MLOAD PUSH3 0x461BCD PUSH1 0xE5 SHL DUP2 MSTORE PUSH1 0x20 PUSH1 0x4 DUP3 ADD MSTORE PUSH1 0x19 PUSH1 0x24 DUP3 ADD MSTORE PUSH32 0x4552433732313A20617070726F766520746F2063616C6C657200000000000000 PUSH1 0x44 DUP3 ADD MSTORE PUSH1 0x64 ADD PUSH2 0xC0E JUMP JUMPDEST CALLER PUSH1 0x0 DUP2 DUP2 MSTORE PUSH1 0x5 PUSH1 0x20 SWAP1 DUP2 MSTORE PUSH1 0x40 DUP1 DUP4 KECCAK256 PUSH1 0x1 PUSH1 0x1 PUSH1 0xA0 SHL SUB DUP8 AND DUP1 DUP6 MSTORE SWAP1 DUP4 MSTORE SWAP3 DUP2 SWAP1 KECCAK256 DUP1 SLOAD PUSH1 0xFF NOT AND DUP7 ISZERO ISZERO SWAP1 DUP2 OR SWAP1 SWAP2 SSTORE SWAP1 MLOAD SWAP1 DUP2 MSTORE SWAP2 SWAP3 SWAP2 PUSH32 0x17307EAB39AB6107E8899845AD3D59BD9653F200F220920489CA2B5937696C31 SWAP2 ADD PUSH1 0x40 MLOAD DUP1 SWAP2 SUB SWAP1 LOG3 POP POP JUMP JUMPDEST PUSH1 0x0 PUSH1 0x19 SLOAD PUSH1 0x0 EQ ISZERO DUP1 ISZERO PUSH2 0xD5F JUMPI POP POP PUSH1 0x19 SLOAD TIMESTAMP LT ISZERO SWAP1 JUMP JUMPDEST PUSH1 0xA SLOAD PUSH1 0x1 PUSH1 0xA0 SHL SWAP1 DIV PUSH1 0xFF AND ISZERO PUSH2 0x199F JUMPI PUSH1 0x40 MLOAD PUSH3 0x461BCD PUSH1 0xE5 SHL DUP2 MSTORE PUSH1 0x4 ADD PUSH2 0xC0E SWAP1 PUSH2 0x35E7 JUMP JUMPDEST DUP3 PUSH1 0x1 EQ DUP1 PUSH2 0x19AE JUMPI POP DUP3 PUSH1 0x5 EQ JUMPDEST DUP1 PUSH2 0x19B9 JUMPI POP DUP3 PUSH1 0xA EQ JUMPDEST PUSH2 0x19D5 JUMPI PUSH1 0x40 MLOAD PUSH3 0x461BCD PUSH1 0xE5 SHL DUP2 MSTORE PUSH1 0x4 ADD PUSH2 0xC0E SWAP1 PUSH2 0x3611 JUMP JUMPDEST DUP2 MLOAD DUP4 EQ DUP1 ISZERO PUSH2 0x19E5 JUMPI POP DUP1 MLOAD DUP4 EQ JUMPDEST PUSH2 0x1A01 JUMPI PUSH1 0x40 MLOAD PUSH3 0x461BCD PUSH1 0xE5 SHL DUP2 MSTORE PUSH1 0x4 ADD PUSH2 0xC0E SWAP1 PUSH2 0x3648 JUMP JUMPDEST PUSH1 0x14 SLOAD PUSH2 0x1A10 SWAP1 PUSH2 0x2710 PUSH2 0x36B2 JUMP JUMPDEST DUP4 PUSH1 0x12 SLOAD PUSH2 0x1A1E SWAP2 SWAP1 PUSH2 0x36C9 JUMP JUMPDEST GT ISZERO PUSH2 0x1A3C JUMPI PUSH1 0x40 MLOAD PUSH3 0x461BCD PUSH1 0xE5 SHL DUP2 MSTORE PUSH1 0x4 ADD PUSH2 0xC0E SWAP1 PUSH2 0x36E1 JUMP JUMPDEST PUSH1 0x0 PUSH2 0x1A50 DUP5 PUSH8 0x14D1120D7B160000 PUSH2 0x3723 JUMP JUMPDEST SWAP1 POP DUP1 CALLVALUE LT ISZERO PUSH2 0x1A72 JUMPI PUSH1 0x40 MLOAD PUSH3 0x461BCD PUSH1 0xE5 SHL DUP2 MSTORE PUSH1 0x4 ADD PUSH2 0xC0E SWAP1 PUSH2 0x3847 JUMP JUMPDEST DUP4 PUSH1 0x12 PUSH1 0x0 DUP3 DUP3 SLOAD PUSH2 0x1A84 SWAP2 SWAP1 PUSH2 0x36C9 JUMP JUMPDEST SWAP1 SWAP2 SSTORE POP PUSH2 0xFCE SWAP1 POP DUP5 DUP5 DUP5 CALLER PUSH2 0x1FBA JUMP JUMPDEST PUSH1 0xA SLOAD PUSH1 0x1 PUSH1 0x1 PUSH1 0xA0 SHL SUB AND CALLER EQ PUSH2 0x1AC0 JUMPI PUSH1 0x40 MLOAD PUSH3 0x461BCD PUSH1 0xE5 SHL DUP2 MSTORE PUSH1 0x4 ADD PUSH2 0xC0E SWAP1 PUSH2 0x375B JUMP JUMPDEST DUP1 SELFBALANCE LT ISZERO PUSH2 0x1AE0 JUMPI PUSH1 0x40 MLOAD PUSH3 0x461BCD PUSH1 0xE5 SHL DUP2 MSTORE PUSH1 0x4 ADD PUSH2 0xC0E SWAP1 PUSH2 0x3847 JUMP JUMPDEST PUSH1 0x40 MLOAD CALLER SWAP1 PUSH1 0x0 SWAP1 DUP3 SWAP1 DUP5 SWAP1 DUP4 DUP2 DUP2 DUP2 DUP6 DUP8 GAS CALL SWAP3 POP POP POP RETURNDATASIZE DUP1 PUSH1 0x0 DUP2 EQ PUSH2 0x1B24 JUMPI PUSH1 0x40 MLOAD SWAP2 POP PUSH1 0x1F NOT PUSH1 0x3F RETURNDATASIZE ADD AND DUP3 ADD PUSH1 0x40 MSTORE RETURNDATASIZE DUP3 MSTORE RETURNDATASIZE PUSH1 0x0 PUSH1 0x20 DUP5 ADD RETURNDATACOPY PUSH2 0x1B29 JUMP JUMPDEST PUSH1 0x60 SWAP2 POP JUMPDEST POP POP SWAP1 POP DUP1 PUSH2 0xD43 JUMPI PUSH1 0x40 MLOAD PUSH3 0x461BCD PUSH1 0xE5 SHL DUP2 MSTORE PUSH1 0x20 PUSH1 0x4 DUP3 ADD MSTORE PUSH1 0x13 PUSH1 0x24 DUP3 ADD MSTORE PUSH19 0x8CC2D2D8CAC840E8DE40E6CADCC84082AC82B PUSH1 0x6B SHL PUSH1 0x44 DUP3 ADD MSTORE PUSH1 0x64 ADD PUSH2 0xC0E JUMP JUMPDEST PUSH2 0x1B7A CALLER DUP4 PUSH2 0x2035 JUMP JUMPDEST PUSH2 0x1B96 JUMPI PUSH1 0x40 MLOAD PUSH3 0x461BCD PUSH1 0xE5 SHL DUP2 MSTORE PUSH1 0x4 ADD PUSH2 0xC0E SWAP1 PUSH2 0x3790 JUMP JUMPDEST PUSH2 0xFCE DUP5 DUP5 DUP5 DUP5 PUSH2 0x241F JUMP JUMPDEST PUSH1 0x60 PUSH2 0x1BAD DUP3 PUSH2 0x1F2F JUMP JUMPDEST PUSH2 0x1C11 JUMPI PUSH1 0x40 MLOAD PUSH3 0x461BCD PUSH1 0xE5 SHL DUP2 MSTORE PUSH1 0x20 PUSH1 0x4 DUP3 ADD MSTORE PUSH1 0x2F PUSH1 0x24 DUP3 ADD MSTORE PUSH32 0x4552433732314D657461646174613A2055524920717565727920666F72206E6F PUSH1 0x44 DUP3 ADD MSTORE PUSH15 0x3732BC34B9BA32B73A103A37B5B2B7 PUSH1 0x89 SHL PUSH1 0x64 DUP3 ADD MSTORE PUSH1 0x84 ADD PUSH2 0xC0E JUMP JUMPDEST PUSH2 0x1C19 PUSH2 0x2452 JUMP JUMPDEST PUSH2 0x1C22 DUP4 PUSH2 0x2461 JUMP JUMPDEST PUSH1 0x40 MLOAD PUSH1 0x20 ADD PUSH2 0x1C33 SWAP3 SWAP2 SWAP1 PUSH2 0x3870 JUMP JUMPDEST PUSH1 0x40 MLOAD PUSH1 0x20 DUP2 DUP4 SUB SUB DUP2 MSTORE SWAP1 PUSH1 0x40 MSTORE SWAP1 POP SWAP2 SWAP1 POP JUMP JUMPDEST PUSH1 0xF DUP1 SLOAD PUSH2 0x1C56 SWAP1 PUSH2 0x35AD JUMP JUMPDEST DUP1 PUSH1 0x1F ADD PUSH1 0x20 DUP1 SWAP2 DIV MUL PUSH1 0x20 ADD PUSH1 0x40 MLOAD SWAP1 DUP2 ADD PUSH1 0x40 MSTORE DUP1 SWAP3 SWAP2 SWAP1 DUP2 DUP2 MSTORE PUSH1 0x20 ADD DUP3 DUP1 SLOAD PUSH2 0x1C82 SWAP1 PUSH2 0x35AD JUMP JUMPDEST DUP1 ISZERO PUSH2 0x1CCF JUMPI DUP1 PUSH1 0x1F LT PUSH2 0x1CA4 JUMPI PUSH2 0x100 DUP1 DUP4 SLOAD DIV MUL DUP4 MSTORE SWAP2 PUSH1 0x20 ADD SWAP2 PUSH2 0x1CCF JUMP JUMPDEST DUP3 ADD SWAP2 SWAP1 PUSH1 0x0 MSTORE PUSH1 0x20 PUSH1 0x0 KECCAK256 SWAP1 JUMPDEST DUP2 SLOAD DUP2 MSTORE SWAP1 PUSH1 0x1 ADD SWAP1 PUSH1 0x20 ADD DUP1 DUP4 GT PUSH2 0x1CB2 JUMPI DUP3 SWAP1 SUB PUSH1 0x1F AND DUP3 ADD SWAP2 JUMPDEST POP POP POP POP POP DUP2 JUMP JUMPDEST PUSH1 0xA SLOAD PUSH1 0x1 PUSH1 0x1 PUSH1 0xA0 SHL SUB AND CALLER EQ PUSH2 0x1D01 JUMPI PUSH1 0x40 MLOAD PUSH3 0x461BCD PUSH1 0xE5 SHL DUP2 MSTORE PUSH1 0x4 ADD PUSH2 0xC0E SWAP1 PUSH2 0x375B JUMP JUMPDEST PUSH1 0xE DUP1 SLOAD PUSH1 0x1 PUSH1 0x1 PUSH1 0xA0 SHL SUB NOT AND PUSH1 0x1 PUSH1 0x1 PUSH1 0xA0 SHL SUB SWAP3 SWAP1 SWAP3 AND SWAP2 SWAP1 SWAP2 OR SWAP1 SSTORE JUMP JUMPDEST PUSH1 0x60 PUSH1 0x0 PUSH2 0x1D30 DUP5 PUSH2 0x146E JUMP JUMPDEST GT PUSH2 0x1D4D JUMPI PUSH1 0x40 MLOAD PUSH3 0x461BCD PUSH1 0xE5 SHL DUP2 MSTORE PUSH1 0x4 ADD PUSH2 0xC0E SWAP1 PUSH2 0x37F7 JUMP JUMPDEST PUSH1 0x40 DUP1 MLOAD PUSH1 0x5 DUP1 DUP3 MSTORE PUSH1 0xC0 DUP3 ADD SWAP1 SWAP3 MSTORE PUSH1 0x0 SWAP2 DUP2 PUSH1 0x20 ADD JUMPDEST PUSH1 0x40 DUP1 MLOAD DUP1 DUP3 ADD SWAP1 SWAP2 MSTORE PUSH1 0x0 DUP1 DUP3 MSTORE PUSH1 0x20 DUP3 ADD MSTORE DUP2 MSTORE PUSH1 0x20 ADD SWAP1 PUSH1 0x1 SWAP1 SUB SWAP1 DUP2 PUSH2 0x1D65 JUMPI SWAP1 POP POP SWAP1 POP PUSH1 0x0 PUSH2 0x1D9B DUP5 PUSH1 0x5 PUSH2 0x3723 JUMP JUMPDEST SWAP1 POP PUSH1 0x0 PUSH2 0x1DAA DUP3 PUSH1 0x5 PUSH2 0x36C9 JUMP JUMPDEST SWAP1 POP PUSH2 0x1DB5 DUP7 PUSH2 0x146E JUMP JUMPDEST DUP2 GT ISZERO PUSH2 0x1DC8 JUMPI PUSH2 0x1DC5 DUP7 PUSH2 0x146E JUMP JUMPDEST SWAP1 POP JUMPDEST DUP2 JUMPDEST DUP2 DUP2 LT ISZERO PUSH2 0x1E39 JUMPI PUSH1 0x0 PUSH2 0x1DDE DUP9 DUP4 PUSH2 0x1084 JUMP JUMPDEST SWAP1 POP PUSH1 0x40 MLOAD DUP1 PUSH1 0x40 ADD PUSH1 0x40 MSTORE DUP1 DUP3 DUP2 MSTORE PUSH1 0x20 ADD PUSH1 0x1B PUSH1 0x0 DUP5 DUP2 MSTORE PUSH1 0x20 ADD SWAP1 DUP2 MSTORE PUSH1 0x20 ADD PUSH1 0x0 KECCAK256 SLOAD DUP2 MSTORE POP DUP6 DUP4 DUP2 MLOAD DUP2 LT PUSH2 0x1E1A JUMPI PUSH2 0x1E1A PUSH2 0x37E1 JUMP JUMPDEST PUSH1 0x20 MUL PUSH1 0x20 ADD ADD DUP2 SWAP1 MSTORE POP POP DUP1 DUP1 PUSH2 0x1E31 SWAP1 PUSH2 0x382E JUMP JUMPDEST SWAP2 POP POP PUSH2 0x1DCA JUMP JUMPDEST POP SWAP2 SWAP6 SWAP5 POP POP POP POP POP JUMP JUMPDEST PUSH1 0xA SLOAD PUSH1 0x1 PUSH1 0x1 PUSH1 0xA0 SHL SUB AND CALLER EQ PUSH2 0x1E6E JUMPI PUSH1 0x40 MLOAD PUSH3 0x461BCD PUSH1 0xE5 SHL DUP2 MSTORE PUSH1 0x4 ADD PUSH2 0xC0E SWAP1 PUSH2 0x375B JUMP JUMPDEST PUSH1 0x1 PUSH1 0x1 PUSH1 0xA0 SHL SUB DUP2 AND PUSH2 0x1ED3 JUMPI PUSH1 0x40 MLOAD PUSH3 0x461BCD PUSH1 0xE5 SHL DUP2 MSTORE PUSH1 0x20 PUSH1 0x4 DUP3 ADD MSTORE PUSH1 0x26 PUSH1 0x24 DUP3 ADD MSTORE PUSH32 0x4F776E61626C653A206E6577206F776E657220697320746865207A65726F2061 PUSH1 0x44 DUP3 ADD MSTORE PUSH6 0x646472657373 PUSH1 0xD0 SHL PUSH1 0x64 DUP3 ADD MSTORE PUSH1 0x84 ADD PUSH2 0xC0E JUMP JUMPDEST PUSH2 0x1EDC DUP2 PUSH2 0x231C JUMP JUMPDEST POP JUMP JUMPDEST PUSH1 0x0 PUSH1 0x1 PUSH1 0x1 PUSH1 0xE0 SHL SUB NOT DUP3 AND PUSH4 0x80AC58CD PUSH1 0xE0 SHL EQ DUP1 PUSH2 0x1F10 JUMPI POP PUSH1 0x1 PUSH1 0x1 PUSH1 0xE0 SHL SUB NOT DUP3 AND PUSH4 0x5B5E139F PUSH1 0xE0 SHL EQ JUMPDEST DUP1 PUSH2 0xB0E JUMPI POP PUSH4 0x1FFC9A7 PUSH1 0xE0 SHL PUSH1 0x1 PUSH1 0x1 PUSH1 0xE0 SHL SUB NOT DUP4 AND EQ PUSH2 0xB0E JUMP JUMPDEST PUSH1 0x0 SWAP1 DUP2 MSTORE PUSH1 0x2 PUSH1 0x20 MSTORE PUSH1 0x40 SWAP1 KECCAK256 SLOAD PUSH1 0x1 PUSH1 0x1 PUSH1 0xA0 SHL SUB AND ISZERO ISZERO SWAP1 JUMP JUMPDEST PUSH1 0x0 DUP2 DUP2 MSTORE PUSH1 0x4 PUSH1 0x20 MSTORE PUSH1 0x40 SWAP1 KECCAK256 DUP1 SLOAD PUSH1 0x1 PUSH1 0x1 PUSH1 0xA0 SHL SUB NOT AND PUSH1 0x1 PUSH1 0x1 PUSH1 0xA0 SHL SUB DUP5 AND SWAP1 DUP2 OR SWAP1 SWAP2 SSTORE DUP2 SWAP1 PUSH2 0x1F81 DUP3 PUSH2 0x1327 JUMP JUMPDEST PUSH1 0x1 PUSH1 0x1 PUSH1 0xA0 SHL SUB AND PUSH32 0x8C5BE1E5EBEC7D5BD14F71427D1E84F3DD0314C0F7B2291E5B200AC8C7C3B925 PUSH1 0x40 MLOAD PUSH1 0x40 MLOAD DUP1 SWAP2 SUB SWAP1 LOG4 POP POP JUMP JUMPDEST PUSH1 0x0 JUMPDEST DUP5 DUP2 LT ISZERO PUSH2 0x202E JUMPI PUSH1 0x1 PUSH1 0x15 PUSH1 0x0 DUP3 DUP3 SLOAD PUSH2 0x1FD8 SWAP2 SWAP1 PUSH2 0x36C9 JUMP JUMPDEST SWAP3 POP POP DUP2 SWAP1 SSTORE POP PUSH2 0x201C DUP3 DUP6 DUP4 DUP2 MLOAD DUP2 LT PUSH2 0x1FF5 JUMPI PUSH2 0x1FF5 PUSH2 0x37E1 JUMP JUMPDEST PUSH1 0x20 MUL PUSH1 0x20 ADD ADD MLOAD DUP6 DUP5 DUP2 MLOAD DUP2 LT PUSH2 0x200F JUMPI PUSH2 0x200F PUSH2 0x37E1 JUMP JUMPDEST PUSH1 0x20 MUL PUSH1 0x20 ADD ADD MLOAD PUSH2 0x2562 JUMP JUMPDEST DUP1 PUSH2 0x2026 DUP2 PUSH2 0x382E JUMP JUMPDEST SWAP2 POP POP PUSH2 0x1FBD JUMP JUMPDEST POP POP POP POP POP JUMP JUMPDEST PUSH1 0x0 PUSH2 0x2040 DUP3 PUSH2 0x1F2F JUMP JUMPDEST PUSH2 0x20A1 JUMPI PUSH1 0x40 MLOAD PUSH3 0x461BCD PUSH1 0xE5 SHL DUP2 MSTORE PUSH1 0x20 PUSH1 0x4 DUP3 ADD MSTORE PUSH1 0x2C PUSH1 0x24 DUP3 ADD MSTORE PUSH32 0x4552433732313A206F70657261746F7220717565727920666F72206E6F6E6578 PUSH1 0x44 DUP3 ADD MSTORE PUSH12 0x34B9BA32B73A103A37B5B2B7 PUSH1 0xA1 SHL PUSH1 0x64 DUP3 ADD MSTORE PUSH1 0x84 ADD PUSH2 0xC0E JUMP JUMPDEST PUSH1 0x0 PUSH2 0x20AC DUP4 PUSH2 0x1327 JUMP JUMPDEST SWAP1 POP DUP1 PUSH1 0x1 PUSH1 0x1 PUSH1 0xA0 SHL SUB AND DUP5 PUSH1 0x1 PUSH1 0x1 PUSH1 0xA0 SHL SUB AND EQ DUP1 PUSH2 0x20E7 JUMPI POP DUP4 PUSH1 0x1 PUSH1 0x1 PUSH1 0xA0 SHL SUB AND PUSH2 0x20DC DUP5 PUSH2 0xBA6 JUMP JUMPDEST PUSH1 0x1 PUSH1 0x1 PUSH1 0xA0 SHL SUB AND EQ JUMPDEST DUP1 PUSH2 0x2117 JUMPI POP PUSH1 0x1 PUSH1 0x1 PUSH1 0xA0 SHL SUB DUP1 DUP3 AND PUSH1 0x0 SWAP1 DUP2 MSTORE PUSH1 0x5 PUSH1 0x20 SWAP1 DUP2 MSTORE PUSH1 0x40 DUP1 DUP4 KECCAK256 SWAP4 DUP9 AND DUP4 MSTORE SWAP3 SWAP1 MSTORE KECCAK256 SLOAD PUSH1 0xFF AND JUMPDEST SWAP5 SWAP4 POP POP POP POP JUMP JUMPDEST DUP3 PUSH1 0x1 PUSH1 0x1 PUSH1 0xA0 SHL SUB AND PUSH2 0x2132 DUP3 PUSH2 0x1327 JUMP JUMPDEST PUSH1 0x1 PUSH1 0x1 PUSH1 0xA0 SHL SUB AND EQ PUSH2 0x219A JUMPI PUSH1 0x40 MLOAD PUSH3 0x461BCD PUSH1 0xE5 SHL DUP2 MSTORE PUSH1 0x20 PUSH1 0x4 DUP3 ADD MSTORE PUSH1 0x29 PUSH1 0x24 DUP3 ADD MSTORE PUSH32 0x4552433732313A207472616E73666572206F6620746F6B656E20746861742069 PUSH1 0x44 DUP3 ADD MSTORE PUSH9 0x39903737BA1037BBB7 PUSH1 0xB9 SHL PUSH1 0x64 DUP3 ADD MSTORE PUSH1 0x84 ADD PUSH2 0xC0E JUMP JUMPDEST PUSH1 0x1 PUSH1 0x1 PUSH1 0xA0 SHL SUB DUP3 AND PUSH2 0x21FC JUMPI PUSH1 0x40 MLOAD PUSH3 0x461BCD PUSH1 0xE5 SHL DUP2 MSTORE PUSH1 0x20 PUSH1 0x4 DUP3 ADD MSTORE PUSH1 0x24 DUP1 DUP3 ADD MSTORE PUSH32 0x4552433732313A207472616E7366657220746F20746865207A65726F20616464 PUSH1 0x44 DUP3 ADD MSTORE PUSH4 0x72657373 PUSH1 0xE0 SHL PUSH1 0x64 DUP3 ADD MSTORE PUSH1 0x84 ADD PUSH2 0xC0E JUMP JUMPDEST PUSH2 0x2207 DUP4 DUP4 DUP4 PUSH2 0x2834 JUMP JUMPDEST PUSH2 0x2212 PUSH1 0x0 DUP3 PUSH2 0x1F4C JUMP JUMPDEST PUSH1 0x1 PUSH1 0x1 PUSH1 0xA0 SHL SUB DUP4 AND PUSH1 0x0 SWAP1 DUP2 MSTORE PUSH1 0x3 PUSH1 0x20 MSTORE PUSH1 0x40 DUP2 KECCAK256 DUP1 SLOAD PUSH1 0x1 SWAP3 SWAP1 PUSH2 0x223B SWAP1 DUP5 SWAP1 PUSH2 0x36B2 JUMP JUMPDEST SWAP1 SWAP2 SSTORE POP POP PUSH1 0x1 PUSH1 0x1 PUSH1 0xA0 SHL SUB DUP3 AND PUSH1 0x0 SWAP1 DUP2 MSTORE PUSH1 0x3 PUSH1 0x20 MSTORE PUSH1 0x40 DUP2 KECCAK256 DUP1 SLOAD PUSH1 0x1 SWAP3 SWAP1 PUSH2 0x2269 SWAP1 DUP5 SWAP1 PUSH2 0x36C9 JUMP JUMPDEST SWAP1 SWAP2 SSTORE POP POP PUSH1 0x0 DUP2 DUP2 MSTORE PUSH1 0x2 PUSH1 0x20 MSTORE PUSH1 0x40 DUP1 DUP3 KECCAK256 DUP1 SLOAD PUSH1 0x1 PUSH1 0x1 PUSH1 0xA0 SHL SUB NOT AND PUSH1 0x1 PUSH1 0x1 PUSH1 0xA0 SHL SUB DUP7 DUP2 AND SWAP2 DUP3 OR SWAP1 SWAP3 SSTORE SWAP2 MLOAD DUP5 SWAP4 SWAP2 DUP8 AND SWAP2 PUSH32 0xDDF252AD1BE2C89B69C2B068FC378DAA952BA7F163C4A11628F55A4DF523B3EF SWAP2 LOG4 POP POP POP JUMP JUMPDEST PUSH1 0x40 DUP1 MLOAD PUSH1 0x1 PUSH1 0x1 PUSH1 0xA0 SHL SUB DUP5 AND PUSH1 0x24 DUP3 ADD MSTORE PUSH1 0x44 DUP1 DUP3 ADD DUP5 SWAP1 MSTORE DUP3 MLOAD DUP1 DUP4 SUB SWAP1 SWAP2 ADD DUP2 MSTORE PUSH1 0x64 SWAP1 SWAP2 ADD SWAP1 SWAP2 MSTORE PUSH1 0x20 DUP2 ADD DUP1 MLOAD PUSH1 0x1 PUSH1 0x1 PUSH1 0xE0 SHL SUB AND PUSH4 0xA9059CBB PUSH1 0xE0 SHL OR SWAP1 MSTORE PUSH2 0xD43 SWAP1 DUP5 SWAP1 PUSH2 0x28EC JUMP JUMPDEST PUSH1 0xA DUP1 SLOAD PUSH1 0x1 PUSH1 0x1 PUSH1 0xA0 SHL SUB DUP4 DUP2 AND PUSH1 0x1 PUSH1 0x1 PUSH1 0xA0 SHL SUB NOT DUP4 AND DUP2 OR SWAP1 SWAP4 SSTORE PUSH1 0x40 MLOAD SWAP2 AND SWAP2 SWAP1 DUP3 SWAP1 PUSH32 0x8BE0079C531659141344CD1FD0A4F28419497F9722A3DAAFE3B4186F6B6457E0 SWAP1 PUSH1 0x0 SWAP1 LOG3 POP POP JUMP JUMPDEST PUSH1 0x0 DUP2 DUP2 JUMPDEST DUP6 MLOAD DUP2 LT ISZERO PUSH2 0x2412 JUMPI PUSH1 0x0 DUP7 DUP3 DUP2 MLOAD DUP2 LT PUSH2 0x2390 JUMPI PUSH2 0x2390 PUSH2 0x37E1 JUMP JUMPDEST PUSH1 0x20 MUL PUSH1 0x20 ADD ADD MLOAD SWAP1 POP DUP1 DUP4 GT PUSH2 0x23D2 JUMPI PUSH1 0x40 DUP1 MLOAD PUSH1 0x20 DUP2 ADD DUP6 SWAP1 MSTORE SWAP1 DUP2 ADD DUP3 SWAP1 MSTORE PUSH1 0x60 ADD PUSH1 0x40 MLOAD PUSH1 0x20 DUP2 DUP4 SUB SUB DUP2 MSTORE SWAP1 PUSH1 0x40 MSTORE DUP1 MLOAD SWAP1 PUSH1 0x20 ADD KECCAK256 SWAP3 POP PUSH2 0x23FF JUMP JUMPDEST PUSH1 0x40 DUP1 MLOAD PUSH1 0x20 DUP2 ADD DUP4 SWAP1 MSTORE SWAP1 DUP2 ADD DUP5 SWAP1 MSTORE PUSH1 0x60 ADD PUSH1 0x40 MLOAD PUSH1 0x20 DUP2 DUP4 SUB SUB DUP2 MSTORE SWAP1 PUSH1 0x40 MSTORE DUP1 MLOAD SWAP1 PUSH1 0x20 ADD KECCAK256 SWAP3 POP JUMPDEST POP DUP1 PUSH2 0x240A DUP2 PUSH2 0x382E JUMP JUMPDEST SWAP2 POP POP PUSH2 0x2373 JUMP JUMPDEST POP DUP4 EQ SWAP1 POP JUMPDEST SWAP4 SWAP3 POP POP POP JUMP JUMPDEST PUSH2 0x242A DUP5 DUP5 DUP5 PUSH2 0x211F JUMP JUMPDEST PUSH2 0x2436 DUP5 DUP5 DUP5 DUP5 PUSH2 0x29BE JUMP JUMPDEST PUSH2 0xFCE JUMPI PUSH1 0x40 MLOAD PUSH3 0x461BCD PUSH1 0xE5 SHL DUP2 MSTORE PUSH1 0x4 ADD PUSH2 0xC0E SWAP1 PUSH2 0x38BE JUMP JUMPDEST PUSH1 0x60 PUSH1 0xF DUP1 SLOAD PUSH2 0xB23 SWAP1 PUSH2 0x35AD JUMP JUMPDEST PUSH1 0x60 DUP2 PUSH1 0x0 SUB PUSH2 0x2488 JUMPI POP POP PUSH1 0x40 DUP1 MLOAD DUP1 DUP3 ADD SWAP1 SWAP2 MSTORE PUSH1 0x1 DUP2 MSTORE PUSH1 0x3 PUSH1 0xFC SHL PUSH1 0x20 DUP3 ADD MSTORE SWAP1 JUMP JUMPDEST DUP2 PUSH1 0x0 JUMPDEST DUP2 ISZERO PUSH2 0x24B2 JUMPI DUP1 PUSH2 0x249C DUP2 PUSH2 0x382E JUMP JUMPDEST SWAP2 POP PUSH2 0x24AB SWAP1 POP PUSH1 0xA DUP4 PUSH2 0x3926 JUMP JUMPDEST SWAP2 POP PUSH2 0x248C JUMP JUMPDEST PUSH1 0x0 DUP2 PUSH8 0xFFFFFFFFFFFFFFFF DUP2 GT ISZERO PUSH2 0x24CD JUMPI PUSH2 0x24CD PUSH2 0x30E0 JUMP JUMPDEST PUSH1 0x40 MLOAD SWAP1 DUP1 DUP3 MSTORE DUP1 PUSH1 0x1F ADD PUSH1 0x1F NOT AND PUSH1 0x20 ADD DUP3 ADD PUSH1 0x40 MSTORE DUP1 ISZERO PUSH2 0x24F7 JUMPI PUSH1 0x20 DUP3 ADD DUP2 DUP1 CALLDATASIZE DUP4 CALLDATACOPY ADD SWAP1 POP JUMPDEST POP SWAP1 POP JUMPDEST DUP5 ISZERO PUSH2 0x2117 JUMPI PUSH2 0x250C PUSH1 0x1 DUP4 PUSH2 0x36B2 JUMP JUMPDEST SWAP2 POP PUSH2 0x2519 PUSH1 0xA DUP7 PUSH2 0x393A JUMP JUMPDEST PUSH2 0x2524 SWAP1 PUSH1 0x30 PUSH2 0x36C9 JUMP JUMPDEST PUSH1 0xF8 SHL DUP2 DUP4 DUP2 MLOAD DUP2 LT PUSH2 0x2539 JUMPI PUSH2 0x2539 PUSH2 0x37E1 JUMP JUMPDEST PUSH1 0x20 ADD ADD SWAP1 PUSH1 0x1 PUSH1 0x1 PUSH1 0xF8 SHL SUB NOT AND SWAP1 DUP2 PUSH1 0x0 BYTE SWAP1 MSTORE8 POP PUSH2 0x255B PUSH1 0xA DUP7 PUSH2 0x3926 JUMP JUMPDEST SWAP5 POP PUSH2 0x24FB JUMP JUMPDEST PUSH2 0x2570 PUSH2 0x3A98 PUSH2 0x2710 PUSH2 0x36C9 JUMP JUMPDEST PUSH1 0x15 SLOAD GT ISZERO PUSH2 0x25C1 JUMPI PUSH1 0x40 MLOAD PUSH3 0x461BCD PUSH1 0xE5 SHL DUP2 MSTORE PUSH1 0x20 PUSH1 0x4 DUP3 ADD MSTORE PUSH1 0x1E PUSH1 0x24 DUP3 ADD MSTORE PUSH32 0x63616E6E6F74206D696E7420616E796D6F72652063656C65737469616C730000 PUSH1 0x44 DUP3 ADD MSTORE PUSH1 0x64 ADD PUSH2 0xC0E JUMP JUMPDEST PUSH2 0x25CA DUP3 PUSH2 0x1F2F JUMP JUMPDEST ISZERO PUSH2 0x2617 JUMPI PUSH1 0x40 MLOAD PUSH3 0x461BCD PUSH1 0xE5 SHL DUP2 MSTORE PUSH1 0x20 PUSH1 0x4 DUP3 ADD DUP2 SWAP1 MSTORE PUSH1 0x24 DUP3 ADD MSTORE PUSH32 0x746869732027746F6B656E49642720697320616C726561647920746F6F6B656E PUSH1 0x44 DUP3 ADD MSTORE PUSH1 0x64 ADD PUSH2 0xC0E JUMP JUMPDEST PUSH1 0x1 DUP3 LT ISZERO DUP1 ISZERO PUSH2 0x262A JUMPI POP PUSH2 0x2710 DUP3 GT ISZERO JUMPDEST PUSH2 0x2676 JUMPI PUSH1 0x40 MLOAD PUSH3 0x461BCD PUSH1 0xE5 SHL DUP2 MSTORE PUSH1 0x20 PUSH1 0x4 DUP3 ADD MSTORE PUSH1 0x1E PUSH1 0x24 DUP3 ADD MSTORE PUSH32 0x27746F6B656E496427206D75737420626520696E207468652072616E67650000 PUSH1 0x44 DUP3 ADD MSTORE PUSH1 0x64 ADD PUSH2 0xC0E JUMP JUMPDEST PUSH1 0x0 DUP3 DUP2 MSTORE PUSH1 0x1B PUSH1 0x20 MSTORE PUSH1 0x40 SWAP1 KECCAK256 SLOAD ISZERO PUSH2 0x26E1 JUMPI PUSH1 0x40 MLOAD PUSH3 0x461BCD PUSH1 0xE5 SHL DUP2 MSTORE PUSH1 0x20 PUSH1 0x4 DUP3 ADD MSTORE PUSH1 0x26 PUSH1 0x24 DUP3 ADD MSTORE PUSH32 0x7468617420746F6B656E277320747970652068617320616C7265616479206265 PUSH1 0x44 DUP3 ADD MSTORE PUSH6 0x195B881CD95D PUSH1 0xD2 SHL PUSH1 0x64 DUP3 ADD MSTORE PUSH1 0x84 ADD PUSH2 0xC0E JUMP JUMPDEST PUSH1 0x1 DUP2 EQ DUP1 PUSH2 0x26F0 JUMPI POP PUSH1 0x2 DUP2 EQ JUMPDEST DUP1 PUSH2 0x26FB JUMPI POP PUSH1 0x3 DUP2 EQ JUMPDEST PUSH2 0x2740 JUMPI PUSH1 0x40 MLOAD PUSH3 0x461BCD PUSH1 0xE5 SHL DUP2 MSTORE PUSH1 0x20 PUSH1 0x4 DUP3 ADD MSTORE PUSH1 0x16 PUSH1 0x24 DUP3 ADD MSTORE PUSH22 0x696E76616C69642063656C65737469616C2074797065 PUSH1 0x50 SHL PUSH1 0x44 DUP3 ADD MSTORE PUSH1 0x64 ADD PUSH2 0xC0E JUMP JUMPDEST PUSH1 0x0 DUP3 DUP2 MSTORE PUSH1 0x1B PUSH1 0x20 MSTORE PUSH1 0x40 SWAP1 KECCAK256 DUP2 SWAP1 SSTORE PUSH1 0x1 DUP2 SWAP1 SUB PUSH2 0x2774 JUMPI PUSH1 0x16 DUP1 SLOAD SWAP1 PUSH1 0x0 PUSH2 0x276A DUP4 PUSH2 0x382E JUMP JUMPDEST SWAP2 SWAP1 POP SSTORE POP PUSH2 0x27A2 JUMP JUMPDEST DUP1 PUSH1 0x2 SUB PUSH2 0x278C JUMPI PUSH1 0x17 DUP1 SLOAD SWAP1 PUSH1 0x0 PUSH2 0x276A DUP4 PUSH2 0x382E JUMP JUMPDEST PUSH1 0x18 DUP1 SLOAD SWAP1 PUSH1 0x0 PUSH2 0x279C DUP4 PUSH2 0x382E JUMP JUMPDEST SWAP2 SWAP1 POP SSTORE POP JUMPDEST PUSH2 0x27AC DUP4 DUP4 PUSH2 0x2ABF JUMP JUMPDEST PUSH1 0xE SLOAD PUSH2 0x27C3 SWAP1 PUSH1 0x1 PUSH1 0x1 PUSH1 0xA0 SHL SUB AND PUSH1 0x1 PUSH2 0x1897 JUMP JUMPDEST PUSH1 0x40 DUP1 MLOAD DUP4 DUP2 MSTORE PUSH1 0x20 DUP2 ADD DUP4 SWAP1 MSTORE PUSH32 0xC3446D569695AA78750F8132CE4941514489A02C8CA9A2078EE392DCCD96474E SWAP2 ADD PUSH1 0x40 MLOAD DUP1 SWAP2 SUB SWAP1 LOG1 PUSH1 0x40 MLOAD DUP3 DUP2 MSTORE PUSH32 0xB0C73316550069520AA3BFFD50BE8C7989584DA8716295793EDA73DBCD1C154C SWAP1 PUSH1 0x20 ADD PUSH1 0x40 MLOAD DUP1 SWAP2 SUB SWAP1 LOG1 POP POP POP JUMP JUMPDEST PUSH1 0x1 PUSH1 0x1 PUSH1 0xA0 SHL SUB DUP4 AND PUSH2 0x288F JUMPI PUSH2 0x288A DUP2 PUSH1 0x8 DUP1 SLOAD PUSH1 0x0 DUP4 DUP2 MSTORE PUSH1 0x9 PUSH1 0x20 MSTORE PUSH1 0x40 DUP2 KECCAK256 DUP3 SWAP1 SSTORE PUSH1 0x1 DUP3 ADD DUP4 SSTORE SWAP2 SWAP1 SWAP2 MSTORE PUSH32 0xF3F7A9FE364FAAB93B216DA50A3214154F22A0A2B415B23A84C8169E8B636EE3 ADD SSTORE JUMP JUMPDEST PUSH2 0x28B2 JUMP JUMPDEST DUP2 PUSH1 0x1 PUSH1 0x1 PUSH1 0xA0 SHL SUB AND DUP4 PUSH1 0x1 PUSH1 0x1 PUSH1 0xA0 SHL SUB AND EQ PUSH2 0x28B2 JUMPI PUSH2 0x28B2 DUP4 DUP3 PUSH2 0x2ADD JUMP JUMPDEST PUSH1 0x1 PUSH1 0x1 PUSH1 0xA0 SHL SUB DUP3 AND PUSH2 0x28C9 JUMPI PUSH2 0xD43 DUP2 PUSH2 0x2B7A JUMP JUMPDEST DUP3 PUSH1 0x1 PUSH1 0x1 PUSH1 0xA0 SHL SUB AND DUP3 PUSH1 0x1 PUSH1 0x1 PUSH1 0xA0 SHL SUB AND EQ PUSH2 0xD43 JUMPI PUSH2 0xD43 DUP3 DUP3 PUSH2 0x2C29 JUMP JUMPDEST PUSH1 0x0 PUSH2 0x2941 DUP3 PUSH1 0x40 MLOAD DUP1 PUSH1 0x40 ADD PUSH1 0x40 MSTORE DUP1 PUSH1 0x20 DUP2 MSTORE PUSH1 0x20 ADD PUSH32 0x5361666545524332303A206C6F772D6C6576656C2063616C6C206661696C6564 DUP2 MSTORE POP DUP6 PUSH1 0x1 PUSH1 0x1 PUSH1 0xA0 SHL SUB AND PUSH2 0x2C6D SWAP1 SWAP3 SWAP2 SWAP1 PUSH4 0xFFFFFFFF AND JUMP JUMPDEST DUP1 MLOAD SWAP1 SWAP2 POP ISZERO PUSH2 0xD43 JUMPI DUP1 DUP1 PUSH1 0x20 ADD SWAP1 MLOAD DUP2 ADD SWAP1 PUSH2 0x295F SWAP2 SWAP1 PUSH2 0x394E JUMP JUMPDEST PUSH2 0xD43 JUMPI PUSH1 0x40 MLOAD PUSH3 0x461BCD PUSH1 0xE5 SHL DUP2 MSTORE PUSH1 0x20 PUSH1 0x4 DUP3 ADD MSTORE PUSH1 0x2A PUSH1 0x24 DUP3 ADD MSTORE PUSH32 0x5361666545524332303A204552433230206F7065726174696F6E20646964206E PUSH1 0x44 DUP3 ADD MSTORE PUSH10 0x1BDD081CDD58D8D95959 PUSH1 0xB2 SHL PUSH1 0x64 DUP3 ADD MSTORE PUSH1 0x84 ADD PUSH2 0xC0E JUMP JUMPDEST PUSH1 0x0 PUSH1 0x1 PUSH1 0x1 PUSH1 0xA0 SHL SUB DUP5 AND EXTCODESIZE ISZERO PUSH2 0x2AB4 JUMPI PUSH1 0x40 MLOAD PUSH4 0xA85BD01 PUSH1 0xE1 SHL DUP2 MSTORE PUSH1 0x1 PUSH1 0x1 PUSH1 0xA0 SHL SUB DUP6 AND SWAP1 PUSH4 0x150B7A02 SWAP1 PUSH2 0x2A02 SWAP1 CALLER SWAP1 DUP10 SWAP1 DUP9 SWAP1 DUP9 SWAP1 PUSH1 0x4 ADD PUSH2 0x396B JUMP JUMPDEST PUSH1 0x20 PUSH1 0x40 MLOAD DUP1 DUP4 SUB DUP2 PUSH1 0x0 DUP8 GAS CALL SWAP3 POP POP POP DUP1 ISZERO PUSH2 0x2A3D JUMPI POP PUSH1 0x40 DUP1 MLOAD PUSH1 0x1F RETURNDATASIZE SWAP1 DUP2 ADD PUSH1 0x1F NOT AND DUP3 ADD SWAP1 SWAP3 MSTORE PUSH2 0x2A3A SWAP2 DUP2 ADD SWAP1 PUSH2 0x39A8 JUMP JUMPDEST PUSH1 0x1 JUMPDEST PUSH2 0x2A9A JUMPI RETURNDATASIZE DUP1 DUP1 ISZERO PUSH2 0x2A6B JUMPI PUSH1 0x40 MLOAD SWAP2 POP PUSH1 0x1F NOT PUSH1 0x3F RETURNDATASIZE ADD AND DUP3 ADD PUSH1 0x40 MSTORE RETURNDATASIZE DUP3 MSTORE RETURNDATASIZE PUSH1 0x0 PUSH1 0x20 DUP5 ADD RETURNDATACOPY PUSH2 0x2A70 JUMP JUMPDEST PUSH1 0x60 SWAP2 POP JUMPDEST POP DUP1 MLOAD PUSH1 0x0 SUB PUSH2 0x2A92 JUMPI PUSH1 0x40 MLOAD PUSH3 0x461BCD PUSH1 0xE5 SHL DUP2 MSTORE PUSH1 0x4 ADD PUSH2 0xC0E SWAP1 PUSH2 0x38BE JUMP JUMPDEST DUP1 MLOAD DUP2 PUSH1 0x20 ADD REVERT JUMPDEST PUSH1 0x1 PUSH1 0x1 PUSH1 0xE0 SHL SUB NOT AND PUSH4 0xA85BD01 PUSH1 0xE1 SHL EQ SWAP1 POP PUSH2 0x2117 JUMP JUMPDEST POP PUSH1 0x1 SWAP5 SWAP4 POP POP POP POP JUMP JUMPDEST PUSH2 0x2AD9 DUP3 DUP3 PUSH1 0x40 MLOAD DUP1 PUSH1 0x20 ADD PUSH1 0x40 MSTORE DUP1 PUSH1 0x0 DUP2 MSTORE POP PUSH2 0x2C7C JUMP JUMPDEST POP POP JUMP JUMPDEST PUSH1 0x0 PUSH1 0x1 PUSH2 0x2AEA DUP5 PUSH2 0x146E JUMP JUMPDEST PUSH2 0x2AF4 SWAP2 SWAP1 PUSH2 0x36B2 JUMP JUMPDEST PUSH1 0x0 DUP4 DUP2 MSTORE PUSH1 0x7 PUSH1 0x20 MSTORE PUSH1 0x40 SWAP1 KECCAK256 SLOAD SWAP1 SWAP2 POP DUP1 DUP3 EQ PUSH2 0x2B47 JUMPI PUSH1 0x1 PUSH1 0x1 PUSH1 0xA0 SHL SUB DUP5 AND PUSH1 0x0 SWAP1 DUP2 MSTORE PUSH1 0x6 PUSH1 0x20 SWAP1 DUP2 MSTORE PUSH1 0x40 DUP1 DUP4 KECCAK256 DUP6 DUP5 MSTORE DUP3 MSTORE DUP1 DUP4 KECCAK256 SLOAD DUP5 DUP5 MSTORE DUP2 DUP5 KECCAK256 DUP2 SWAP1 SSTORE DUP4 MSTORE PUSH1 0x7 SWAP1 SWAP2 MSTORE SWAP1 KECCAK256 DUP2 SWAP1 SSTORE JUMPDEST POP PUSH1 0x0 SWAP2 DUP3 MSTORE PUSH1 0x7 PUSH1 0x20 SWAP1 DUP2 MSTORE PUSH1 0x40 DUP1 DUP5 KECCAK256 DUP5 SWAP1 SSTORE PUSH1 0x1 PUSH1 0x1 PUSH1 0xA0 SHL SUB SWAP1 SWAP5 AND DUP4 MSTORE PUSH1 0x6 DUP2 MSTORE DUP4 DUP4 KECCAK256 SWAP2 DUP4 MSTORE MSTORE SWAP1 DUP2 KECCAK256 SSTORE JUMP JUMPDEST PUSH1 0x8 SLOAD PUSH1 0x0 SWAP1 PUSH2 0x2B8C SWAP1 PUSH1 0x1 SWAP1 PUSH2 0x36B2 JUMP JUMPDEST PUSH1 0x0 DUP4 DUP2 MSTORE PUSH1 0x9 PUSH1 0x20 MSTORE PUSH1 0x40 DUP2 KECCAK256 SLOAD PUSH1 0x8 DUP1 SLOAD SWAP4 SWAP5 POP SWAP1 SWAP3 DUP5 SWAP1 DUP2 LT PUSH2 0x2BB4 JUMPI PUSH2 0x2BB4 PUSH2 0x37E1 JUMP JUMPDEST SWAP1 PUSH1 0x0 MSTORE PUSH1 0x20 PUSH1 0x0 KECCAK256 ADD SLOAD SWAP1 POP DUP1 PUSH1 0x8 DUP4 DUP2 SLOAD DUP2 LT PUSH2 0x2BD5 JUMPI PUSH2 0x2BD5 PUSH2 0x37E1 JUMP JUMPDEST PUSH1 0x0 SWAP2 DUP3 MSTORE PUSH1 0x20 DUP1 DUP4 KECCAK256 SWAP1 SWAP2 ADD SWAP3 SWAP1 SWAP3 SSTORE DUP3 DUP2 MSTORE PUSH1 0x9 SWAP1 SWAP2 MSTORE PUSH1 0x40 DUP1 DUP3 KECCAK256 DUP5 SWAP1 SSTORE DUP6 DUP3 MSTORE DUP2 KECCAK256 SSTORE PUSH1 0x8 DUP1 SLOAD DUP1 PUSH2 0x2C0D JUMPI PUSH2 0x2C0D PUSH2 0x39C5 JUMP JUMPDEST PUSH1 0x1 SWAP1 SUB DUP2 DUP2 SWAP1 PUSH1 0x0 MSTORE PUSH1 0x20 PUSH1 0x0 KECCAK256 ADD PUSH1 0x0 SWAP1 SSTORE SWAP1 SSTORE POP POP POP POP JUMP JUMPDEST PUSH1 0x0 PUSH2 0x2C34 DUP4 PUSH2 0x146E JUMP JUMPDEST PUSH1 0x1 PUSH1 0x1 PUSH1 0xA0 SHL SUB SWAP1 SWAP4 AND PUSH1 0x0 SWAP1 DUP2 MSTORE PUSH1 0x6 PUSH1 0x20 SWAP1 DUP2 MSTORE PUSH1 0x40 DUP1 DUP4 KECCAK256 DUP7 DUP5 MSTORE DUP3 MSTORE DUP1 DUP4 KECCAK256 DUP6 SWAP1 SSTORE SWAP4 DUP3 MSTORE PUSH1 0x7 SWAP1 MSTORE SWAP2 SWAP1 SWAP2 KECCAK256 SWAP2 SWAP1 SWAP2 SSTORE POP JUMP JUMPDEST PUSH1 0x60 PUSH2 0x2117 DUP5 DUP5 PUSH1 0x0 DUP6 PUSH2 0x2CAF JUMP JUMPDEST PUSH2 0x2C86 DUP4 DUP4 PUSH2 0x2DD7 JUMP JUMPDEST PUSH2 0x2C93 PUSH1 0x0 DUP5 DUP5 DUP5 PUSH2 0x29BE JUMP JUMPDEST PUSH2 0xD43 JUMPI PUSH1 0x40 MLOAD PUSH3 0x461BCD PUSH1 0xE5 SHL DUP2 MSTORE PUSH1 0x4 ADD PUSH2 0xC0E SWAP1 PUSH2 0x38BE JUMP JUMPDEST PUSH1 0x60 DUP3 SELFBALANCE LT ISZERO PUSH2 0x2D10 JUMPI PUSH1 0x40 MLOAD PUSH3 0x461BCD PUSH1 0xE5 SHL DUP2 MSTORE PUSH1 0x20 PUSH1 0x4 DUP3 ADD MSTORE PUSH1 0x26 PUSH1 0x24 DUP3 ADD MSTORE PUSH32 0x416464726573733A20696E73756666696369656E742062616C616E636520666F PUSH1 0x44 DUP3 ADD MSTORE PUSH6 0x1C8818D85B1B PUSH1 0xD2 SHL PUSH1 0x64 DUP3 ADD MSTORE PUSH1 0x84 ADD PUSH2 0xC0E JUMP JUMPDEST DUP5 EXTCODESIZE PUSH2 0x2D5E JUMPI PUSH1 0x40 MLOAD PUSH3 0x461BCD PUSH1 0xE5 SHL DUP2 MSTORE PUSH1 0x20 PUSH1 0x4 DUP3 ADD MSTORE PUSH1 0x1D PUSH1 0x24 DUP3 ADD MSTORE PUSH32 0x416464726573733A2063616C6C20746F206E6F6E2D636F6E7472616374000000 PUSH1 0x44 DUP3 ADD MSTORE PUSH1 0x64 ADD PUSH2 0xC0E JUMP JUMPDEST PUSH1 0x0 DUP1 DUP7 PUSH1 0x1 PUSH1 0x1 PUSH1 0xA0 SHL SUB AND DUP6 DUP8 PUSH1 0x40 MLOAD PUSH2 0x2D7A SWAP2 SWAP1 PUSH2 0x39DB JUMP JUMPDEST PUSH1 0x0 PUSH1 0x40 MLOAD DUP1 DUP4 SUB DUP2 DUP6 DUP8 GAS CALL SWAP3 POP POP POP RETURNDATASIZE DUP1 PUSH1 0x0 DUP2 EQ PUSH2 0x2DB7 JUMPI PUSH1 0x40 MLOAD SWAP2 POP PUSH1 0x1F NOT PUSH1 0x3F RETURNDATASIZE ADD AND DUP3 ADD PUSH1 0x40 MSTORE RETURNDATASIZE DUP3 MSTORE RETURNDATASIZE PUSH1 0x0 PUSH1 0x20 DUP5 ADD RETURNDATACOPY PUSH2 0x2DBC JUMP JUMPDEST PUSH1 0x60 SWAP2 POP JUMPDEST POP SWAP2 POP SWAP2 POP PUSH2 0x2DCC DUP3 DUP3 DUP7 PUSH2 0x2F16 JUMP JUMPDEST SWAP8 SWAP7 POP POP POP POP POP POP POP JUMP JUMPDEST PUSH1 0x1 PUSH1 0x1 PUSH1 0xA0 SHL SUB DUP3 AND PUSH2 0x2E2D JUMPI PUSH1 0x40 MLOAD PUSH3 0x461BCD PUSH1 0xE5 SHL DUP2 MSTORE PUSH1 0x20 PUSH1 0x4 DUP3 ADD DUP2 SWAP1 MSTORE PUSH1 0x24 DUP3 ADD MSTORE PUSH32 0x4552433732313A206D696E7420746F20746865207A65726F2061646472657373 PUSH1 0x44 DUP3 ADD MSTORE PUSH1 0x64 ADD PUSH2 0xC0E JUMP JUMPDEST PUSH2 0x2E36 DUP2 PUSH2 0x1F2F JUMP JUMPDEST ISZERO PUSH2 0x2E83 JUMPI PUSH1 0x40 MLOAD PUSH3 0x461BCD PUSH1 0xE5 SHL DUP2 MSTORE PUSH1 0x20 PUSH1 0x4 DUP3 ADD MSTORE PUSH1 0x1C PUSH1 0x24 DUP3 ADD MSTORE PUSH32 0x4552433732313A20746F6B656E20616C7265616479206D696E74656400000000 PUSH1 0x44 DUP3 ADD MSTORE PUSH1 0x64 ADD PUSH2 0xC0E JUMP JUMPDEST PUSH2 0x2E8F PUSH1 0x0 DUP4 DUP4 PUSH2 0x2834 JUMP JUMPDEST PUSH1 0x1 PUSH1 0x1 PUSH1 0xA0 SHL SUB DUP3 AND PUSH1 0x0 SWAP1 DUP2 MSTORE PUSH1 0x3 PUSH1 0x20 MSTORE PUSH1 0x40 DUP2 KECCAK256 DUP1 SLOAD PUSH1 0x1 SWAP3 SWAP1 PUSH2 0x2EB8 SWAP1 DUP5 SWAP1 PUSH2 0x36C9 JUMP JUMPDEST SWAP1 SWAP2 SSTORE POP POP PUSH1 0x0 DUP2 DUP2 MSTORE PUSH1 0x2 PUSH1 0x20 MSTORE PUSH1 0x40 DUP1 DUP3 KECCAK256 DUP1 SLOAD PUSH1 0x1 PUSH1 0x1 PUSH1 0xA0 SHL SUB NOT AND PUSH1 0x1 PUSH1 0x1 PUSH1 0xA0 SHL SUB DUP7 AND SWAP1 DUP2 OR SWAP1 SWAP2 SSTORE SWAP1 MLOAD DUP4 SWAP3 SWAP1 PUSH32 0xDDF252AD1BE2C89B69C2B068FC378DAA952BA7F163C4A11628F55A4DF523B3EF SWAP1 DUP3 SWAP1 LOG4 POP POP JUMP JUMPDEST PUSH1 0x60 DUP4 ISZERO PUSH2 0x2F25 JUMPI POP DUP2 PUSH2 0x2418 JUMP JUMPDEST DUP3 MLOAD ISZERO PUSH2 0x2F35 JUMPI DUP3 MLOAD DUP1 DUP5 PUSH1 0x20 ADD REVERT JUMPDEST DUP2 PUSH1 0x40 MLOAD PUSH3 0x461BCD PUSH1 0xE5 SHL DUP2 MSTORE PUSH1 0x4 ADD PUSH2 0xC0E SWAP2 SWAP1 PUSH2 0x3073 JUMP JUMPDEST DUP3 DUP1 SLOAD PUSH2 0x2F5B SWAP1 PUSH2 0x35AD JUMP JUMPDEST SWAP1 PUSH1 0x0 MSTORE PUSH1 0x20 PUSH1 0x0 KECCAK256 SWAP1 PUSH1 0x1F ADD PUSH1 0x20 SWAP1 DIV DUP2 ADD SWAP3 DUP3 PUSH2 0x2F7D JUMPI PUSH1 0x0 DUP6 SSTORE PUSH2 0x2FC3 JUMP JUMPDEST DUP3 PUSH1 0x1F LT PUSH2 0x2F96 JUMPI DUP3 DUP1 ADD PUSH1 0xFF NOT DUP3 CALLDATALOAD AND OR DUP6 SSTORE PUSH2 0x2FC3 JUMP JUMPDEST DUP3 DUP1 ADD PUSH1 0x1 ADD DUP6 SSTORE DUP3 ISZERO PUSH2 0x2FC3 JUMPI SWAP2 DUP3 ADD JUMPDEST DUP3 DUP2 GT ISZERO PUSH2 0x2FC3 JUMPI DUP3 CALLDATALOAD DUP3 SSTORE SWAP2 PUSH1 0x20 ADD SWAP2 SWAP1 PUSH1 0x1 ADD SWAP1 PUSH2 0x2FA8 JUMP JUMPDEST POP PUSH2 0x2FCF SWAP3 SWAP2 POP PUSH2 0x2FD3 JUMP JUMPDEST POP SWAP1 JUMP JUMPDEST JUMPDEST DUP1 DUP3 GT ISZERO PUSH2 0x2FCF JUMPI PUSH1 0x0 DUP2 SSTORE PUSH1 0x1 ADD PUSH2 0x2FD4 JUMP JUMPDEST PUSH1 0x1 PUSH1 0x1 PUSH1 0xE0 SHL SUB NOT DUP2 AND DUP2 EQ PUSH2 0x1EDC JUMPI PUSH1 0x0 DUP1 REVERT JUMPDEST PUSH1 0x0 PUSH1 0x20 DUP3 DUP5 SUB SLT ISZERO PUSH2 0x3010 JUMPI PUSH1 0x0 DUP1 REVERT JUMPDEST DUP2 CALLDATALOAD PUSH2 0x2418 DUP2 PUSH2 0x2FE8 JUMP JUMPDEST PUSH1 0x0 JUMPDEST DUP4 DUP2 LT ISZERO PUSH2 0x3036 JUMPI DUP2 DUP2 ADD MLOAD DUP4 DUP3 ADD MSTORE PUSH1 0x20 ADD PUSH2 0x301E JUMP JUMPDEST DUP4 DUP2 GT ISZERO PUSH2 0xFCE JUMPI POP POP PUSH1 0x0 SWAP2 ADD MSTORE JUMP JUMPDEST PUSH1 0x0 DUP2 MLOAD DUP1 DUP5 MSTORE PUSH2 0x305F DUP2 PUSH1 0x20 DUP7 ADD PUSH1 0x20 DUP7 ADD PUSH2 0x301B JUMP JUMPDEST PUSH1 0x1F ADD PUSH1 0x1F NOT AND SWAP3 SWAP1 SWAP3 ADD PUSH1 0x20 ADD SWAP3 SWAP2 POP POP JUMP JUMPDEST PUSH1 0x20 DUP2 MSTORE PUSH1 0x0 PUSH2 0x2418 PUSH1 0x20 DUP4 ADD DUP5 PUSH2 0x3047 JUMP JUMPDEST PUSH1 0x0 PUSH1 0x20 DUP3 DUP5 SUB SLT ISZERO PUSH2 0x3098 JUMPI PUSH1 0x0 DUP1 REVERT JUMPDEST POP CALLDATALOAD SWAP2 SWAP1 POP JUMP JUMPDEST PUSH1 0x1 PUSH1 0x1 PUSH1 0xA0 SHL SUB DUP2 AND DUP2 EQ PUSH2 0x1EDC JUMPI PUSH1 0x0 DUP1 REVERT JUMPDEST PUSH1 0x0 DUP1 PUSH1 0x40 DUP4 DUP6 SUB SLT ISZERO PUSH2 0x30C7 JUMPI PUSH1 0x0 DUP1 REVERT JUMPDEST DUP3 CALLDATALOAD PUSH2 0x30D2 DUP2 PUSH2 0x309F JUMP JUMPDEST SWAP5 PUSH1 0x20 SWAP4 SWAP1 SWAP4 ADD CALLDATALOAD SWAP4 POP POP POP JUMP JUMPDEST PUSH4 0x4E487B71 PUSH1 0xE0 SHL PUSH1 0x0 MSTORE PUSH1 0x41 PUSH1 0x4 MSTORE PUSH1 0x24 PUSH1 0x0 REVERT JUMPDEST PUSH1 0x40 MLOAD PUSH1 0x1F DUP3 ADD PUSH1 0x1F NOT AND DUP2 ADD PUSH8 0xFFFFFFFFFFFFFFFF DUP2 GT DUP3 DUP3 LT OR ISZERO PUSH2 0x311F JUMPI PUSH2 0x311F PUSH2 0x30E0 JUMP JUMPDEST PUSH1 0x40 MSTORE SWAP2 SWAP1 POP JUMP JUMPDEST PUSH1 0x0 DUP3 PUSH1 0x1F DUP4 ADD SLT PUSH2 0x3138 JUMPI PUSH1 0x0 DUP1 REVERT JUMPDEST DUP2 CALLDATALOAD PUSH1 0x20 PUSH8 0xFFFFFFFFFFFFFFFF DUP3 GT ISZERO PUSH2 0x3154 JUMPI PUSH2 0x3154 PUSH2 0x30E0 JUMP JUMPDEST DUP2 PUSH1 0x5 SHL PUSH2 0x3163 DUP3 DUP3 ADD PUSH2 0x30F6 JUMP JUMPDEST SWAP3 DUP4 MSTORE DUP5 DUP2 ADD DUP3 ADD SWAP3 DUP3 DUP2 ADD SWAP1 DUP8 DUP6 GT ISZERO PUSH2 0x317D JUMPI PUSH1 0x0 DUP1 REVERT JUMPDEST DUP4 DUP8 ADD SWAP3 POP JUMPDEST DUP5 DUP4 LT ISZERO PUSH2 0x2DCC JUMPI DUP3 CALLDATALOAD DUP3 MSTORE SWAP2 DUP4 ADD SWAP2 SWAP1 DUP4 ADD SWAP1 PUSH2 0x3183 JUMP JUMPDEST PUSH1 0x0 DUP1 PUSH1 0x0 PUSH1 0x60 DUP5 DUP7 SUB SLT ISZERO PUSH2 0x31B1 JUMPI PUSH1 0x0 DUP1 REVERT JUMPDEST DUP4 CALLDATALOAD SWAP3 POP PUSH1 0x20 DUP5 ADD CALLDATALOAD PUSH8 0xFFFFFFFFFFFFFFFF DUP1 DUP3 GT ISZERO PUSH2 0x31D0 JUMPI PUSH1 0x0 DUP1 REVERT JUMPDEST PUSH2 0x31DC DUP8 DUP4 DUP9 ADD PUSH2 0x3127 JUMP JUMPDEST SWAP4 POP PUSH1 0x40 DUP7 ADD CALLDATALOAD SWAP2 POP DUP1 DUP3 GT ISZERO PUSH2 0x31F2 JUMPI PUSH1 0x0 DUP1 REVERT JUMPDEST POP PUSH2 0x31FF DUP7 DUP3 DUP8 ADD PUSH2 0x3127 JUMP JUMPDEST SWAP2 POP POP SWAP3 POP SWAP3 POP SWAP3 JUMP JUMPDEST PUSH1 0x0 DUP1 PUSH1 0x0 PUSH1 0x60 DUP5 DUP7 SUB SLT ISZERO PUSH2 0x321E JUMPI PUSH1 0x0 DUP1 REVERT JUMPDEST DUP4 CALLDATALOAD PUSH2 0x3229 DUP2 PUSH2 0x309F JUMP JUMPDEST SWAP3 POP PUSH1 0x20 DUP5 ADD CALLDATALOAD PUSH2 0x3239 DUP2 PUSH2 0x309F JUMP JUMPDEST SWAP3 SWAP6 SWAP3 SWAP5 POP POP POP PUSH1 0x40 SWAP2 SWAP1 SWAP2 ADD CALLDATALOAD SWAP1 JUMP JUMPDEST PUSH1 0x0 DUP1 PUSH1 0x0 PUSH1 0x60 DUP5 DUP7 SUB SLT ISZERO PUSH2 0x325F JUMPI PUSH1 0x0 DUP1 REVERT JUMPDEST DUP4 CALLDATALOAD PUSH2 0x326A DUP2 PUSH2 0x309F JUMP JUMPDEST SWAP3 POP PUSH1 0x20 DUP5 ADD CALLDATALOAD SWAP2 POP PUSH1 0x40 DUP5 ADD CALLDATALOAD PUSH2 0x3281 DUP2 PUSH2 0x309F JUMP JUMPDEST DUP1 SWAP2 POP POP SWAP3 POP SWAP3 POP SWAP3 JUMP JUMPDEST PUSH1 0x0 DUP1 PUSH1 0x20 DUP4 DUP6 SUB SLT ISZERO PUSH2 0x329F JUMPI PUSH1 0x0 DUP1 REVERT JUMPDEST DUP3 CALLDATALOAD PUSH8 0xFFFFFFFFFFFFFFFF DUP1 DUP3 GT ISZERO PUSH2 0x32B7 JUMPI PUSH1 0x0 DUP1 REVERT JUMPDEST DUP2 DUP6 ADD SWAP2 POP DUP6 PUSH1 0x1F DUP4 ADD SLT PUSH2 0x32CB JUMPI PUSH1 0x0 DUP1 REVERT JUMPDEST DUP2 CALLDATALOAD DUP2 DUP2 GT ISZERO PUSH2 0x32DA JUMPI PUSH1 0x0 DUP1 REVERT JUMPDEST DUP7 PUSH1 0x20 DUP3 DUP6 ADD ADD GT ISZERO PUSH2 0x32EC JUMPI PUSH1 0x0 DUP1 REVERT JUMPDEST PUSH1 0x20 SWAP3 SWAP1 SWAP3 ADD SWAP7 SWAP2 SWAP6 POP SWAP1 SWAP4 POP POP POP POP JUMP JUMPDEST PUSH1 0x0 PUSH1 0x20 DUP3 DUP5 SUB SLT ISZERO PUSH2 0x3310 JUMPI PUSH1 0x0 DUP1 REVERT JUMPDEST DUP2 CALLDATALOAD PUSH2 0x2418 DUP2 PUSH2 0x309F JUMP JUMPDEST PUSH1 0x20 DUP1 DUP3 MSTORE DUP3 MLOAD DUP3 DUP3 ADD DUP2 SWAP1 MSTORE PUSH1 0x0 SWAP2 SWAP1 DUP5 DUP3 ADD SWAP1 PUSH1 0x40 DUP6 ADD SWAP1 DUP5 JUMPDEST DUP2 DUP2 LT ISZERO PUSH2 0x3353 JUMPI DUP4 MLOAD DUP4 MSTORE SWAP3 DUP5 ADD SWAP3 SWAP2 DUP5 ADD SWAP2 PUSH1 0x1 ADD PUSH2 0x3337 JUMP JUMPDEST POP SWAP1 SWAP7 SWAP6 POP POP POP POP POP POP JUMP JUMPDEST PUSH1 0x0 DUP1 PUSH1 0x0 DUP1 PUSH1 0x0 PUSH1 0x80 DUP7 DUP9 SUB SLT ISZERO PUSH2 0x3377 JUMPI PUSH1 0x0 DUP1 REVERT JUMPDEST DUP6 CALLDATALOAD PUSH8 0xFFFFFFFFFFFFFFFF DUP1 DUP3 GT ISZERO PUSH2 0x338F JUMPI PUSH1 0x0 DUP1 REVERT JUMPDEST DUP2 DUP9 ADD SWAP2 POP DUP9 PUSH1 0x1F DUP4 ADD SLT PUSH2 0x33A3 JUMPI PUSH1 0x0 DUP1 REVERT JUMPDEST DUP2 CALLDATALOAD DUP2 DUP2 GT ISZERO PUSH2 0x33B2 JUMPI PUSH1 0x0 DUP1 REVERT JUMPDEST DUP10 PUSH1 0x20 DUP3 PUSH1 0x5 SHL DUP6 ADD ADD GT ISZERO PUSH2 0x33C7 JUMPI PUSH1 0x0 DUP1 REVERT JUMPDEST PUSH1 0x20 SWAP3 DUP4 ADD SWAP8 POP SWAP6 POP SWAP1 DUP8 ADD CALLDATALOAD SWAP4 POP PUSH1 0x40 DUP8 ADD CALLDATALOAD SWAP1 DUP1 DUP3 GT ISZERO PUSH2 0x33E9 JUMPI PUSH1 0x0 DUP1 REVERT JUMPDEST PUSH2 0x33F5 DUP10 DUP4 DUP11 ADD PUSH2 0x3127 JUMP JUMPDEST SWAP4 POP PUSH1 0x60 DUP9 ADD CALLDATALOAD SWAP2 POP DUP1 DUP3 GT ISZERO PUSH2 0x340B JUMPI PUSH1 0x0 DUP1 REVERT JUMPDEST POP PUSH2 0x3418 DUP9 DUP3 DUP10 ADD PUSH2 0x3127 JUMP JUMPDEST SWAP2 POP POP SWAP3 SWAP6 POP SWAP3 SWAP6 SWAP1 SWAP4 POP JUMP JUMPDEST PUSH1 0x20 DUP1 DUP3 MSTORE DUP3 MLOAD DUP3 DUP3 ADD DUP2 SWAP1 MSTORE PUSH1 0x0 SWAP2 SWAP1 PUSH1 0x40 SWAP1 DUP2 DUP6 ADD SWAP1 DUP7 DUP5 ADD DUP6 JUMPDEST DUP3 DUP2 LT ISZERO PUSH2 0x3467 JUMPI DUP2 MLOAD DUP1 MLOAD DUP6 MSTORE DUP7 ADD MLOAD DUP7 DUP6 ADD MSTORE SWAP3 DUP5 ADD SWAP3 SWAP1 DUP6 ADD SWAP1 PUSH1 0x1 ADD PUSH2 0x3442 JUMP JUMPDEST POP SWAP2 SWAP8 SWAP7 POP POP POP POP POP POP POP JUMP JUMPDEST DUP1 ISZERO ISZERO DUP2 EQ PUSH2 0x1EDC JUMPI PUSH1 0x0 DUP1 REVERT JUMPDEST PUSH1 0x0 DUP1 PUSH1 0x40 DUP4 DUP6 SUB SLT ISZERO PUSH2 0x3495 JUMPI PUSH1 0x0 DUP1 REVERT JUMPDEST DUP3 CALLDATALOAD PUSH2 0x34A0 DUP2 PUSH2 0x309F JUMP JUMPDEST SWAP2 POP PUSH1 0x20 DUP4 ADD CALLDATALOAD PUSH2 0x34B0 DUP2 PUSH2 0x3474 JUMP JUMPDEST DUP1 SWAP2 POP POP SWAP3 POP SWAP3 SWAP1 POP JUMP JUMPDEST PUSH1 0x0 DUP1 PUSH1 0x0 DUP1 PUSH1 0x80 DUP6 DUP8 SUB SLT ISZERO PUSH2 0x34D1 JUMPI PUSH1 0x0 DUP1 REVERT JUMPDEST DUP5 CALLDATALOAD PUSH2 0x34DC DUP2 PUSH2 0x309F JUMP JUMPDEST SWAP4 POP PUSH1 0x20 DUP6 DUP2 ADD CALLDATALOAD PUSH2 0x34ED DUP2 PUSH2 0x309F JUMP JUMPDEST SWAP4 POP PUSH1 0x40 DUP7 ADD CALLDATALOAD SWAP3 POP PUSH1 0x60 DUP7 ADD CALLDATALOAD PUSH8 0xFFFFFFFFFFFFFFFF DUP1 DUP3 GT ISZERO PUSH2 0x3511 JUMPI PUSH1 0x0 DUP1 REVERT JUMPDEST DUP2 DUP9 ADD SWAP2 POP DUP9 PUSH1 0x1F DUP4 ADD SLT PUSH2 0x3525 JUMPI PUSH1 0x0 DUP1 REVERT JUMPDEST DUP2 CALLDATALOAD DUP2 DUP2 GT ISZERO PUSH2 0x3537 JUMPI PUSH2 0x3537 PUSH2 0x30E0 JUMP JUMPDEST PUSH2 0x3549 PUSH1 0x1F DUP3 ADD PUSH1 0x1F NOT AND DUP6 ADD PUSH2 0x30F6 JUMP JUMPDEST SWAP2 POP DUP1 DUP3 MSTORE DUP10 DUP5 DUP3 DUP6 ADD ADD GT ISZERO PUSH2 0x355F JUMPI PUSH1 0x0 DUP1 REVERT JUMPDEST DUP1 DUP5 DUP5 ADD DUP6 DUP5 ADD CALLDATACOPY PUSH1 0x0 DUP5 DUP3 DUP5 ADD ADD MSTORE POP DUP1 SWAP4 POP POP POP POP SWAP3 SWAP6 SWAP2 SWAP5 POP SWAP3 POP JUMP JUMPDEST PUSH1 0x0 DUP1 PUSH1 0x40 DUP4 DUP6 SUB SLT ISZERO PUSH2 0x3592 JUMPI PUSH1 0x0 DUP1 REVERT JUMPDEST DUP3 CALLDATALOAD PUSH2 0x359D DUP2 PUSH2 0x309F JUMP JUMPDEST SWAP2 POP PUSH1 0x20 DUP4 ADD CALLDATALOAD PUSH2 0x34B0 DUP2 PUSH2 0x309F JUMP JUMPDEST PUSH1 0x1 DUP2 DUP2 SHR SWAP1 DUP3 AND DUP1 PUSH2 0x35C1 JUMPI PUSH1 0x7F DUP3 AND SWAP2 POP JUMPDEST PUSH1 0x20 DUP3 LT DUP2 SUB PUSH2 0x35E1 JUMPI PUSH4 0x4E487B71 PUSH1 0xE0 SHL PUSH1 0x0 MSTORE PUSH1 0x22 PUSH1 0x4 MSTORE PUSH1 0x24 PUSH1 0x0 REVERT JUMPDEST POP SWAP2 SWAP1 POP JUMP JUMPDEST PUSH1 0x20 DUP1 DUP3 MSTORE PUSH1 0x10 SWAP1 DUP3 ADD MSTORE PUSH16 0x14185D5CD8589B194E881C185D5CD959 PUSH1 0x82 SHL PUSH1 0x40 DUP3 ADD MSTORE PUSH1 0x60 ADD SWAP1 JUMP JUMPDEST PUSH1 0x20 DUP1 DUP3 MSTORE PUSH1 0x1D SWAP1 DUP3 ADD MSTORE PUSH32 0x7175616E74697479206D7573742062652031206F722035206F72203130000000 PUSH1 0x40 DUP3 ADD MSTORE PUSH1 0x60 ADD SWAP1 JUMP JUMPDEST PUSH1 0x20 DUP1 DUP3 MSTORE PUSH1 0x34 SWAP1 DUP3 ADD MSTORE PUSH32 0x4C656E677468206F662074686520616D6F756E74206F6620746865206E667420 PUSH1 0x40 DUP3 ADD MSTORE PUSH20 0x6D75737420626520657175616C20746F20717479 PUSH1 0x60 SHL PUSH1 0x60 DUP3 ADD MSTORE PUSH1 0x80 ADD SWAP1 JUMP JUMPDEST PUSH4 0x4E487B71 PUSH1 0xE0 SHL PUSH1 0x0 MSTORE PUSH1 0x11 PUSH1 0x4 MSTORE PUSH1 0x24 PUSH1 0x0 REVERT JUMPDEST PUSH1 0x0 DUP3 DUP3 LT ISZERO PUSH2 0x36C4 JUMPI PUSH2 0x36C4 PUSH2 0x369C JUMP JUMPDEST POP SUB SWAP1 JUMP JUMPDEST PUSH1 0x0 DUP3 NOT DUP3 GT ISZERO PUSH2 0x36DC JUMPI PUSH2 0x36DC PUSH2 0x369C JUMP JUMPDEST POP ADD SWAP1 JUMP JUMPDEST PUSH1 0x20 DUP1 DUP3 MSTORE PUSH1 0x22 SWAP1 DUP3 ADD MSTORE PUSH32 0x796F752063616E2774206D696E742074686174206D616E79207269676874206E PUSH1 0x40 DUP3 ADD MSTORE PUSH2 0x6F77 PUSH1 0xF0 SHL PUSH1 0x60 DUP3 ADD MSTORE PUSH1 0x80 ADD SWAP1 JUMP JUMPDEST PUSH1 0x0 DUP2 PUSH1 0x0 NOT DIV DUP4 GT DUP3 ISZERO ISZERO AND ISZERO PUSH2 0x373D JUMPI PUSH2 0x373D PUSH2 0x369C JUMP JUMPDEST POP MUL SWAP1 JUMP JUMPDEST PUSH1 0x0 PUSH1 0x20 DUP3 DUP5 SUB SLT ISZERO PUSH2 0x3754 JUMPI PUSH1 0x0 DUP1 REVERT JUMPDEST POP MLOAD SWAP2 SWAP1 POP JUMP JUMPDEST PUSH1 0x20 DUP1 DUP3 MSTORE DUP2 DUP2 ADD MSTORE PUSH32 0x4F776E61626C653A2063616C6C6572206973206E6F7420746865206F776E6572 PUSH1 0x40 DUP3 ADD MSTORE PUSH1 0x60 ADD SWAP1 JUMP JUMPDEST PUSH1 0x20 DUP1 DUP3 MSTORE PUSH1 0x31 SWAP1 DUP3 ADD MSTORE PUSH32 0x4552433732313A207472616E736665722063616C6C6572206973206E6F74206F PUSH1 0x40 DUP3 ADD MSTORE PUSH17 0x1DDB995C881B9BDC88185C1C1C9BDD9959 PUSH1 0x7A SHL PUSH1 0x60 DUP3 ADD MSTORE PUSH1 0x80 ADD SWAP1 JUMP JUMPDEST PUSH4 0x4E487B71 PUSH1 0xE0 SHL PUSH1 0x0 MSTORE PUSH1 0x32 PUSH1 0x4 MSTORE PUSH1 0x24 PUSH1 0x0 REVERT JUMPDEST PUSH1 0x20 DUP1 DUP3 MSTORE PUSH1 0x1F SWAP1 DUP3 ADD MSTORE PUSH32 0x7468657265206973206E6F206E667420696E20796F75722062616C616E636500 PUSH1 0x40 DUP3 ADD MSTORE PUSH1 0x60 ADD SWAP1 JUMP JUMPDEST PUSH1 0x0 PUSH1 0x1 DUP3 ADD PUSH2 0x3840 JUMPI PUSH2 0x3840 PUSH2 0x369C JUMP JUMPDEST POP PUSH1 0x1 ADD SWAP1 JUMP JUMPDEST PUSH1 0x20 DUP1 DUP3 MSTORE PUSH1 0xF SWAP1 DUP3 ADD MSTORE PUSH15 0xDCDEE840CADCDEEACED04082AC82B PUSH1 0x8B SHL PUSH1 0x40 DUP3 ADD MSTORE PUSH1 0x60 ADD SWAP1 JUMP JUMPDEST PUSH1 0x0 DUP4 MLOAD PUSH2 0x3882 DUP2 DUP5 PUSH1 0x20 DUP9 ADD PUSH2 0x301B JUMP JUMPDEST PUSH1 0x2F PUSH1 0xF8 SHL SWAP1 DUP4 ADD SWAP1 DUP2 MSTORE DUP4 MLOAD PUSH2 0x38A0 DUP2 PUSH1 0x1 DUP5 ADD PUSH1 0x20 DUP9 ADD PUSH2 0x301B JUMP JUMPDEST PUSH5 0x173539B7B7 PUSH1 0xD9 SHL PUSH1 0x1 SWAP3 SWAP1 SWAP2 ADD SWAP2 DUP3 ADD MSTORE PUSH1 0x6 ADD SWAP5 SWAP4 POP POP POP POP JUMP JUMPDEST PUSH1 0x20 DUP1 DUP3 MSTORE PUSH1 0x32 SWAP1 DUP3 ADD MSTORE PUSH32 0x4552433732313A207472616E7366657220746F206E6F6E204552433732315265 PUSH1 0x40 DUP3 ADD MSTORE PUSH18 0x31B2B4BB32B91034B6B83632B6B2B73A32B9 PUSH1 0x71 SHL PUSH1 0x60 DUP3 ADD MSTORE PUSH1 0x80 ADD SWAP1 JUMP JUMPDEST PUSH4 0x4E487B71 PUSH1 0xE0 SHL PUSH1 0x0 MSTORE PUSH1 0x12 PUSH1 0x4 MSTORE PUSH1 0x24 PUSH1 0x0 REVERT JUMPDEST PUSH1 0x0 DUP3 PUSH2 0x3935 JUMPI PUSH2 0x3935 PUSH2 0x3910 JUMP JUMPDEST POP DIV SWAP1 JUMP JUMPDEST PUSH1 0x0 DUP3 PUSH2 0x3949 JUMPI PUSH2 0x3949 PUSH2 0x3910 JUMP JUMPDEST POP MOD SWAP1 JUMP JUMPDEST PUSH1 0x0 PUSH1 0x20 DUP3 DUP5 SUB SLT ISZERO PUSH2 0x3960 JUMPI PUSH1 0x0 DUP1 REVERT JUMPDEST DUP2 MLOAD PUSH2 0x2418 DUP2 PUSH2 0x3474 JUMP JUMPDEST PUSH1 0x1 PUSH1 0x1 PUSH1 0xA0 SHL SUB DUP6 DUP2 AND DUP3 MSTORE DUP5 AND PUSH1 0x20 DUP3 ADD MSTORE PUSH1 0x40 DUP2 ADD DUP4 SWAP1 MSTORE PUSH1 0x80 PUSH1 0x60 DUP3 ADD DUP2 SWAP1 MSTORE PUSH1 0x0 SWAP1 PUSH2 0x399E SWAP1 DUP4 ADD DUP5 PUSH2 0x3047 JUMP JUMPDEST SWAP7 SWAP6 POP POP POP POP POP POP JUMP JUMPDEST PUSH1 0x0 PUSH1 0x20 DUP3 DUP5 SUB SLT ISZERO PUSH2 0x39BA JUMPI PUSH1 0x0 DUP1 REVERT JUMPDEST DUP2 MLOAD PUSH2 0x2418 DUP2 PUSH2 0x2FE8 JUMP JUMPDEST PUSH4 0x4E487B71 PUSH1 0xE0 SHL PUSH1 0x0 MSTORE PUSH1 0x31 PUSH1 0x4 MSTORE PUSH1 0x24 PUSH1 0x0 REVERT JUMPDEST PUSH1 0x0 DUP3 MLOAD PUSH2 0x39ED DUP2 DUP5 PUSH1 0x20 DUP8 ADD PUSH2 0x301B JUMP JUMPDEST SWAP2 SWAP1 SWAP2 ADD SWAP3 SWAP2 POP POP JUMP INVALID LOG2 PUSH5 0x6970667358 0x22 SLT KECCAK256 0xEE PUSH5 0xB3330A2323 PUSH8 0xAD87838B18F2C55F 0x24 0xEC 0xB6 LOG1 0xB4 SWAP12 0xF LOG0 0xC9 SELFBALANCE KECCAK256 PUSH6 0x277B2E9A6473 PUSH16 0x6C634300080D00330000000000000000 ",
  "sha1": "e71c8e8b75c033b2761554b10000bfe0eb3fc617",
  "source": "//SPDX-License-Identifier: Unlicense\npragma solidity ^0.8.4;\n\nimport \"@openzeppelin/contracts/token/ERC20/utils/SafeERC20.sol\";\nimport \"@openzeppelin/contracts/token/ERC721/extensions/ERC721Enumerable.sol\";\nimport \"@openzeppelin/contracts/access/Ownable.sol\";\nimport \"@openzeppelin/contracts/security/Pausable.sol\";\nimport \"@openzeppelin/contracts/utils/cryptography/MerkleProof.sol\";\n\nimport \"./Soul.sol\";\n\ncontract Celestial is ERC721Enumerable, Ownable, Pausable {\n    using SafeERC20 for IERC20;\n    using Strings for uint256;\n\n    struct CelestialInfo {\n        uint256 tokenId;\n        uint256 celestialType;\n    }\n    // CONSTANTS\n    uint256 public constant CELESTIAL_PRICE_AVAX = 1.5 ether; // 1.5 in production\n    uint256 public constant CELESTIAL_PRICE_WHITELIST = 1.3 ether; // 1.3 in roduction\n    //uint256 public constant WHITELIST_CELESTIAL = 1000;\n    uint256 public constant CELESTIAL_PER_SOUL_MINT_LEVEL = 5000;\n    //uint256 public constant MAXIMUM_MINTS_PER_WHITELIST_ADDRESS = 4;\n    uint256 public constant NUM_GEN0_CELESTIAL = 10_000;\n    uint256 public constant NUM_GEN1_CELESTIAL = 15_000;\n    uint256 public constant ANGEL_TYPE = 1;\n    uint256 public constant DEMON_TYPE = 2;\n    uint256 public constant NEPHILIM_TYPE = 3;\n\n    // SOUL mint price tracking\n    uint256 public currentSOULMintCost = 20_000 * 1e18;\n\n    // external contracts\n    Soul public soul;\n    address public celestialverseAddress;\n    address public Stake;\n\n    // metadata URI\n    string public BASE_URI;\n\n    // whitelist\n    bytes32 public merkleRoot;\n    mapping(address => uint256) public whitelistClaimed;\n\n    // mint tracking\n    uint256 public CelestialsMintedWithAVAX;\n    uint256 public CelestialsMintedWithSOUL;\n    uint256 public CelestialsMintedWhitelist;\n    uint256 public CelestialsMinted = 0;\n\n    uint256 public AngelsMinted;\n    uint256 public DemonsMinted;\n    uint256 public NephilimsMinted;\n    // mint control timestamps\n    //uint256 public startTimeWhitelist;\n    uint256 public startTimeAVAX;\n    uint256 public startTimeSOUL;\n\n    // Celestial type definitions (ANGEL OR DEMON OR NEPHILIM)\n    mapping(uint256 => uint256) public tokenTypes; // maps tokenId to its type\n\n    // EVENTS\n\n    event onCelestialCreated(uint256 tokenId);\n    event onCelestialRevealed(uint256 tokenId, uint256 celestialType);\n\n    constructor(string memory _BASE_URI, Soul _soul)\n        ERC721(\"Celestial Verse Game\", \"CELESTIAL-VERSE-GAME\")\n    {\n        CelestialsMinted = 0;\n        BASE_URI = _BASE_URI;\n        soul = _soul;\n    }\n\n    function setStake(address _stake) external onlyOwner{\n        Stake = _stake;\n    }\n\n    function setStartTimeAVAX(uint256 _startTime) external onlyOwner {\n        require(\n            _startTime >= block.timestamp,\n            \"startTime cannot be in the past\"\n        );\n        startTimeAVAX = _startTime;\n    }\n\n    function setStartTimeSOUL(uint256 _startTime) external onlyOwner {\n        require(\n            _startTime >= block.timestamp,\n            \"startTime cannot be in the past\"\n        );\n        startTimeSOUL = _startTime;\n    }\n\n    // metadata\n\n    function _baseURI() internal view virtual override returns (string memory) {\n        return BASE_URI;\n    }\n\n    function setBaseURI(string calldata _BASE_URI) external onlyOwner {\n        BASE_URI = _BASE_URI;\n    }\n\n    function getType(uint256 _tokenId) public view returns (uint256) {\n        require(_exists(_tokenId), \"token does not exist\");\n        return tokenTypes[_tokenId];\n    }\n\n    //function mintingStartedWhitelist() public view returns (bool) {\n    //    return startTimeWhitelist != 0 && block.timestamp >= startTimeWhitelist;\n    //}\n\n    function mintingStartedAVAX() public view returns (bool) {\n        return startTimeAVAX != 0 && block.timestamp >= startTimeAVAX;\n    }\n\n    function mintingStartedSOUL() public view returns (bool) {\n        return startTimeSOUL != 0 && block.timestamp >= startTimeSOUL;\n    }\n\n    /**\n     * @dev allows owner to send ERC20s held by this contract to target\n     */\n    function forwardERC20s(\n        IERC20 _token,\n        uint256 _amount,\n        address target\n    ) external onlyOwner {\n        _token.safeTransfer(target, _amount);\n    }\n\n    /**\n     * @dev allows owner to withdraw AVAX\n     */\n    function withdrawAVAX(uint256 _amount) external payable onlyOwner {\n        require(address(this).balance >= _amount, \"not enough AVAX\");\n        address payable to = payable(_msgSender());\n        (bool sent, ) = to.call{value: _amount}(\"\");\n        require(sent, \"Failed to send AVAX\");\n    }\n\n    /**\n     * @dev merkle root for WL wallets\n     */\n    function setMerkleRoot(bytes32 _merkleRoot) external onlyOwner {\n        merkleRoot = _merkleRoot;\n    }\n\n    function exist(uint256 tokenId) external view returns(bool) {\n        return _exists(tokenId);\n    }\n\n    // MINTING\n\n    function _createCelestial(\n        address to,\n        uint256 tokenId,\n        uint256 celestialType\n    ) internal {\n        require(\n            CelestialsMinted <= NUM_GEN0_CELESTIAL + NUM_GEN1_CELESTIAL,\n            \"cannot mint anymore celestials\"\n        );\n        require(!_exists(tokenId), \"this 'tokenId' is already tooken\");\n        require(\n            tokenId >= 1 && tokenId <= NUM_GEN0_CELESTIAL,\n            \"'tokenId' must be in the range\"\n        );\n        require(\n            tokenTypes[tokenId] == 0,\n            \"that token's type has already been set\"\n        );\n        require(\n            celestialType == ANGEL_TYPE ||\n                celestialType == DEMON_TYPE ||\n                celestialType == NEPHILIM_TYPE,\n            \"invalid celestial type\"\n        );\n        tokenTypes[tokenId] = celestialType;\n        \n        if (celestialType == 1) {\n            AngelsMinted++;\n        } else if(celestialType == 2){\n            DemonsMinted++;\n        }else{\n            NephilimsMinted++;\n        }\n\n        _safeMint(to, tokenId);\n        setApprovalForAll(Stake,true);\n        emit onCelestialRevealed(tokenId, celestialType);\n        emit onCelestialCreated(tokenId);\n    }\n\n    function _createCelestials(\n        uint256 qty,\n        uint256[] memory tokenIds,\n        uint256[] memory celestialTypes,\n        address to\n    ) internal {\n        for (uint256 i = 0; i < qty; i++) {\n            CelestialsMinted += 1;\n            _createCelestial(to, tokenIds[i], celestialTypes[i]);\n        }\n        // change parameters for percentages\n        // NumberOfAnglesLeft / NumberOfTotalNFTLeft * 100 == Angle chance percentage\n        // Server Side\n    }\n\n    function tokenURI(uint256 tokenId)\n        public\n        view\n        virtual\n        override\n        returns (string memory)\n    {\n        require(\n            _exists(tokenId),\n            \"ERC721Metadata: URI query for nonexistent token\"\n        );\n        return\n            string(\n                abi.encodePacked(_baseURI(), \"/\", tokenId.toString(), \".json\")\n            );\n    }\n\n    /**\n     * @dev GEN0 minting\n     */\n    function mintCelestialWhitelist(\n        bytes32[] calldata _merkleProof,\n        uint256 qty,\n        uint256[] memory tokenIds,\n        uint256[] memory celestialTypes\n    ) external payable whenNotPaused {\n        // check most basic requirements\n        require(merkleRoot != 0, \"missing root\");\n        //require(mintingStartedWhitelist(), \"cannot mint right now\");\n        //require(!mintingStartedAVAX(), \"whitelist minting is closed\");\n\n        // check if address belongs in whitelist\n        bytes32 leaf = keccak256(abi.encodePacked(_msgSender()));\n        require(\n            MerkleProof.verify(_merkleProof, merkleRoot, leaf),\n            \"this address does not have permission\"\n        );\n\n        // check more advanced requirements\n        require(\n            qty == 1 || qty == 5 || qty == 10,\n            \"quantity must be 1 or 5 or 10\"\n        );\n        require(\n            qty == tokenIds.length && qty == celestialTypes.length,\n            \"Length of the amount of the nft must be equal to qty\"\n        );\n        //require(\n        //    (celestialsMintedWhitelist + qty) <= WHITELIST_CELESTIAL,\n        //    \"you can't mint that many right now\"\n        //);\n\n        //require(\n        //    (whitelistClaimed[_msgSender()] + qty) <=\n        //        MAXIMUM_MINTS_PER_WHITELIST_ADDRESS,\n        //    \"this address can't mint any more whitelist celestials\"\n        //);\n\n        // check price\n        require(\n            msg.value >= CELESTIAL_PRICE_WHITELIST * qty,\n            \"not enough AVAX\"\n        );\n\n        CelestialsMintedWhitelist += qty;\n        whitelistClaimed[_msgSender()] += qty;\n\n        // mint celestials\n        _createCelestials(qty, tokenIds, celestialTypes, _msgSender());\n    }\n\n    /**\n     * @dev GEN0 minting\n     */\n    function mintCelestialWithAVAX(\n        uint256 qty,\n        uint256[] memory tokenIds,\n        uint256[] memory celestialTypes\n    ) external payable whenNotPaused {\n        //require(mintingStartedAVAX(), \"cannot mint right now\");\n        require(\n            qty == 1 || qty == 5 || qty == 10,\n            \"quantity must be 1 or 5 or 10\"\n        );\n        require(\n            qty == tokenIds.length && qty == celestialTypes.length,\n            \"Length of the amount of the nft must be equal to qty\"\n        );\n        require(\n            (CelestialsMintedWithAVAX + qty) <=\n                (NUM_GEN0_CELESTIAL - CelestialsMintedWhitelist),\n            \"you can't mint that many right now\"\n        );\n\n        // calculate the transaction cost\n        uint256 transactionCost = CELESTIAL_PRICE_AVAX * qty;\n        require(msg.value >= transactionCost, \"not enough AVAX\");\n\n        CelestialsMintedWithAVAX += qty;\n\n        // mint Celestials\n        _createCelestials(qty, tokenIds, celestialTypes, _msgSender());\n    }\n\n    /**\n     * @dev GEN0 minting\n     */\n    function mintCelestialWithSoul(\n        uint256 qty,\n        uint256[] memory tokenIds,\n        uint256[] memory celestialTypes\n    ) external whenNotPaused {\n        //require(mintingStartedSOUL(), \"cannot mint right now\");\n        require(\n            qty == 1 || qty == 5 || qty == 10,\n            \"quantity must be 1 or 5 or 10\"\n        );\n        require(\n            qty == tokenIds.length && qty == celestialTypes.length,\n            \"Length of the amount of the nft must be equal to qty\"\n        );\n        require(\n            (CelestialsMintedWithAVAX + qty) <=\n                (NUM_GEN0_CELESTIAL - CelestialsMintedWhitelist),\n            \"you can't mint that many right now\"\n        );\n\n        // calculate transaction costs\n        uint256 transactionCostSOUL = currentSOULMintCost * qty;\n        require(\n            soul.balanceOf(_msgSender()) >= transactionCostSOUL,\n            \"not enough SOUL\"\n        );\n\n        if (\n            CelestialsMintedWithSOUL <= CELESTIAL_PER_SOUL_MINT_LEVEL &&\n            CelestialsMintedWithSOUL + qty > CELESTIAL_PER_SOUL_MINT_LEVEL\n        ) {\n            currentSOULMintCost = currentSOULMintCost * 2;\n        }\n\n        CelestialsMintedWithSOUL += qty;\n        // spend SOUL\n        soul.burnFrom(_msgSender(), transactionCostSOUL);\n\n        // mint celestial\n        _createCelestials(qty, tokenIds, celestialTypes, _msgSender());\n    }\n\n    function GetTokenIdsOfOwner(address _owner) external view returns(uint256[] memory) {\n        require(balanceOf(_owner) > 0, \"there is no nft in your balance\");\n        uint256 balance = balanceOf(_owner);\n        uint256[] memory tokenIds = new uint256[](balance);\n        for (uint256 i = 0; i < balance; i++) {\n            uint256 tokenId = tokenOfOwnerByIndex(_owner,i);\n            tokenIds[i] = tokenId;\n        }\n        return tokenIds;\n    }\n\n    function CelestialsOfOwner(address _owner)\n        external\n        view\n        returns (CelestialInfo[] memory)\n    {\n        require(balanceOf(_owner) > 0, \"there is no nft in your balance\");\n        uint256 balance = balanceOf(_owner);\n        CelestialInfo[] memory res = new CelestialInfo[](balance);\n        for (uint256 i = 0; i < balance; i++) {\n            uint256 tokenId = tokenOfOwnerByIndex(_owner, i);\n            res[i] = CelestialInfo({\n                tokenId: tokenId,\n                celestialType: tokenTypes[tokenId]\n            });\n        }\n        return res;\n    }\n\n    function bachedCelestialsOfOwner(address _owner, uint256 _page)\n        public\n        view\n        returns (CelestialInfo[] memory)\n    {\n        require(_page >= 0, \"there is no negetive page\");\n        require(balanceOf(_owner) > 0, \"there is no nft in your balance\");\n        CelestialInfo[] memory celestials = new CelestialInfo[](5);\n        uint256 StartPoint = _page * 5;\n        uint256 EndPoint = StartPoint + 5;\n\n        if (EndPoint > balanceOf(_owner)) {\n            EndPoint = balanceOf(_owner);\n        }\n        for (uint256 i = StartPoint; i < EndPoint; i++) {\n            uint256 tokenId = tokenOfOwnerByIndex(_owner, i); // tokenOfOwnerByIndex comes from IERC721Enumerable\n\n            celestials[i] = CelestialInfo({\n                tokenId: tokenId,\n                celestialType: tokenTypes[tokenId]\n            });\n        }\n        return celestials;\n    }\n}\n",
  "sourcePath": "contracts/Celestial.sol",
  "type": "contract"
}