{
  "abi": [
    {
      "inputs": [
        {
          "internalType": "contract Celestial",
          "name": "_celestialNFT",
          "type": "address"
        },
        {
          "internalType": "contract Soul",
          "name": "_soul",
          "type": "address"
        }
      ],
      "stateMutability": "nonpayable",
      "type": "constructor"
    },
    {
      "anonymous": false,
      "inputs": [
        {
          "indexed": false,
          "internalType": "address",
          "name": "owner",
          "type": "address"
        },
        {
          "indexed": false,
          "internalType": "uint256",
          "name": "amount",
          "type": "uint256"
        }
      ],
      "name": "Claimed",
      "type": "event"
    },
    {
      "anonymous": false,
      "inputs": [
        {
          "indexed": false,
          "internalType": "address",
          "name": "owner",
          "type": "address"
        },
        {
          "indexed": false,
          "internalType": "uint256",
          "name": "tokenId",
          "type": "uint256"
        },
        {
          "indexed": false,
          "internalType": "uint256",
          "name": "value",
          "type": "uint256"
        }
      ],
      "name": "NFTStaked",
      "type": "event"
    },
    {
      "anonymous": false,
      "inputs": [
        {
          "indexed": false,
          "internalType": "address",
          "name": "owner",
          "type": "address"
        },
        {
          "indexed": false,
          "internalType": "uint256",
          "name": "tokenId",
          "type": "uint256"
        },
        {
          "indexed": false,
          "internalType": "uint256",
          "name": "value",
          "type": "uint256"
        }
      ],
      "name": "NFTUnStaked",
      "type": "event"
    },
    {
      "anonymous": false,
      "inputs": [
        {
          "indexed": true,
          "internalType": "address",
          "name": "previousOwner",
          "type": "address"
        },
        {
          "indexed": true,
          "internalType": "address",
          "name": "newOwner",
          "type": "address"
        }
      ],
      "name": "OwnershipTransferred",
      "type": "event"
    },
    {
      "anonymous": false,
      "inputs": [
        {
          "indexed": false,
          "internalType": "address",
          "name": "account",
          "type": "address"
        }
      ],
      "name": "Paused",
      "type": "event"
    },
    {
      "anonymous": false,
      "inputs": [
        {
          "indexed": false,
          "internalType": "address",
          "name": "account",
          "type": "address"
        }
      ],
      "name": "Unpaused",
      "type": "event"
    },
    {
      "inputs": [],
      "name": "EnableEarning",
      "outputs": [
        {
          "internalType": "bool",
          "name": "",
          "type": "bool"
        }
      ],
      "stateMutability": "view",
      "type": "function"
    },
    {
      "inputs": [
        {
          "internalType": "address",
          "name": "account",
          "type": "address"
        }
      ],
      "name": "balanceOf",
      "outputs": [
        {
          "internalType": "uint256",
          "name": "",
          "type": "uint256"
        }
      ],
      "stateMutability": "view",
      "type": "function"
    },
    {
      "inputs": [
        {
          "internalType": "uint256",
          "name": "tokenId",
          "type": "uint256"
        }
      ],
      "name": "claim",
      "outputs": [],
      "stateMutability": "nonpayable",
      "type": "function"
    },
    {
      "inputs": [
        {
          "internalType": "address",
          "name": "account",
          "type": "address"
        },
        {
          "internalType": "uint256",
          "name": "tokenId",
          "type": "uint256"
        }
      ],
      "name": "claimForAddress",
      "outputs": [],
      "stateMutability": "nonpayable",
      "type": "function"
    },
    {
      "inputs": [
        {
          "internalType": "uint256[]",
          "name": "tokenIds",
          "type": "uint256[]"
        }
      ],
      "name": "earningInfo",
      "outputs": [
        {
          "internalType": "uint256",
          "name": "",
          "type": "uint256"
        }
      ],
      "stateMutability": "view",
      "type": "function"
    },
    {
      "inputs": [
        {
          "internalType": "uint256",
          "name": "tokenId",
          "type": "uint256"
        }
      ],
      "name": "getCooldown",
      "outputs": [
        {
          "internalType": "uint256",
          "name": "",
          "type": "uint256"
        }
      ],
      "stateMutability": "view",
      "type": "function"
    },
    {
      "inputs": [],
      "name": "getUnstakedCelestials",
      "outputs": [
        {
          "internalType": "uint256",
          "name": "",
          "type": "uint256"
        }
      ],
      "stateMutability": "view",
      "type": "function"
    },
    {
      "inputs": [
        {
          "internalType": "address",
          "name": "",
          "type": "address"
        },
        {
          "internalType": "address",
          "name": "from",
          "type": "address"
        },
        {
          "internalType": "uint256",
          "name": "",
          "type": "uint256"
        },
        {
          "internalType": "bytes",
          "name": "",
          "type": "bytes"
        }
      ],
      "name": "onERC721Received",
      "outputs": [
        {
          "internalType": "bytes4",
          "name": "",
          "type": "bytes4"
        }
      ],
      "stateMutability": "pure",
      "type": "function"
    },
    {
      "inputs": [],
      "name": "owner",
      "outputs": [
        {
          "internalType": "address",
          "name": "",
          "type": "address"
        }
      ],
      "stateMutability": "view",
      "type": "function"
    },
    {
      "inputs": [],
      "name": "paused",
      "outputs": [
        {
          "internalType": "bool",
          "name": "",
          "type": "bool"
        }
      ],
      "stateMutability": "view",
      "type": "function"
    },
    {
      "inputs": [],
      "name": "renounceOwnership",
      "outputs": [],
      "stateMutability": "nonpayable",
      "type": "function"
    },
    {
      "inputs": [
        {
          "internalType": "bool",
          "name": "earning",
          "type": "bool"
        }
      ],
      "name": "setEnableEarning",
      "outputs": [],
      "stateMutability": "nonpayable",
      "type": "function"
    },
    {
      "inputs": [
        {
          "internalType": "uint256",
          "name": "tokenId",
          "type": "uint256"
        }
      ],
      "name": "stake",
      "outputs": [],
      "stateMutability": "nonpayable",
      "type": "function"
    },
    {
      "inputs": [
        {
          "internalType": "uint256",
          "name": "tokenId",
          "type": "uint256"
        }
      ],
      "name": "startEarning",
      "outputs": [],
      "stateMutability": "nonpayable",
      "type": "function"
    },
    {
      "inputs": [
        {
          "internalType": "address",
          "name": "account",
          "type": "address"
        }
      ],
      "name": "tokenOfOwner",
      "outputs": [
        {
          "components": [
            {
              "internalType": "uint256",
              "name": "tokenId",
              "type": "uint256"
            },
            {
              "internalType": "uint256",
              "name": "celestialType",
              "type": "uint256"
            }
          ],
          "internalType": "struct CelestialStake.CelestialInfo[]",
          "name": "ownerTokens",
          "type": "tuple[]"
        }
      ],
      "stateMutability": "view",
      "type": "function"
    },
    {
      "inputs": [
        {
          "internalType": "address",
          "name": "_owner",
          "type": "address"
        },
        {
          "internalType": "uint256",
          "name": "_page",
          "type": "uint256"
        }
      ],
      "name": "tokenOfOwnerBached",
      "outputs": [
        {
          "components": [
            {
              "internalType": "uint256",
              "name": "tokenId",
              "type": "uint256"
            },
            {
              "internalType": "uint256",
              "name": "celestialType",
              "type": "uint256"
            }
          ],
          "internalType": "struct CelestialStake.CelestialInfo[]",
          "name": "",
          "type": "tuple[]"
        }
      ],
      "stateMutability": "view",
      "type": "function"
    },
    {
      "inputs": [],
      "name": "totalAngleStaked",
      "outputs": [
        {
          "internalType": "uint256",
          "name": "",
          "type": "uint256"
        }
      ],
      "stateMutability": "view",
      "type": "function"
    },
    {
      "inputs": [],
      "name": "totalDemonStaked",
      "outputs": [
        {
          "internalType": "uint256",
          "name": "",
          "type": "uint256"
        }
      ],
      "stateMutability": "view",
      "type": "function"
    },
    {
      "inputs": [],
      "name": "totalNephilimStaked",
      "outputs": [
        {
          "internalType": "uint256",
          "name": "",
          "type": "uint256"
        }
      ],
      "stateMutability": "view",
      "type": "function"
    },
    {
      "inputs": [],
      "name": "totalStaked",
      "outputs": [
        {
          "internalType": "uint256",
          "name": "",
          "type": "uint256"
        }
      ],
      "stateMutability": "view",
      "type": "function"
    },
    {
      "inputs": [
        {
          "internalType": "address",
          "name": "newOwner",
          "type": "address"
        }
      ],
      "name": "transferOwnership",
      "outputs": [],
      "stateMutability": "nonpayable",
      "type": "function"
    },
    {
      "inputs": [
        {
          "internalType": "uint256",
          "name": "tokenId",
          "type": "uint256"
        }
      ],
      "name": "unstake",
      "outputs": [],
      "stateMutability": "nonpayable",
      "type": "function"
    },
    {
      "inputs": [
        {
          "internalType": "uint256",
          "name": "",
          "type": "uint256"
        }
      ],
      "name": "vault",
      "outputs": [
        {
          "internalType": "uint256",
          "name": "tokenId",
          "type": "uint256"
        },
        {
          "internalType": "uint256",
          "name": "timestamp",
          "type": "uint256"
        },
        {
          "internalType": "uint256",
          "name": "cooldown",
          "type": "uint256"
        },
        {
          "internalType": "address",
          "name": "owner",
          "type": "address"
        }
      ],
      "stateMutability": "view",
      "type": "function"
    }
  ],
  "bytecode": "60806040523480156200001157600080fd5b506040516200204f3803806200204f8339810160408190526200003491620000fa565b6200003f3362000091565b6000805460ff60a01b1916905560058054600680546001600160a01b0319166001600160a01b039485161790556001600160a81b031916610100939092169290920260ff191617600117905562000139565b600080546001600160a01b038381166001600160a01b0319831681178455604051919092169283917f8be0079c531659141344cd1fd0a4f28419497f9722a3daafe3b4186f6b6457e09190a35050565b6001600160a01b0381168114620000f757600080fd5b50565b600080604083850312156200010e57600080fd5b82516200011b81620000e1565b60208401519092506200012e81620000e1565b809150509250929050565b611f0680620001496000396000f3fe608060405234801561001057600080fd5b506004361061014d5760003560e01c8063715018a6116100c3578063990fd9621161007c578063990fd96214610347578063a694fc3a1461035a578063cfd1c30f1461036d578063d5f1022714610380578063db82655314610389578063f2fde38b1461039c57600080fd5b8063715018a6146102a2578063817b1cd2146102aa57806381a36fb6146102b357806383933ce91461031a578063866a4503146103235780638da5cb5b1461032c57600080fd5b806329e203ab1161011557806329e203ab146101e95780632e17de78146102425780633562b08614610257578063379607f51461026a5780635c975abb1461027d57806370a082311461028f57600080fd5b8063150b7a021461015257806320341f131461018357806322a045a3146101a357806322c6921f146101b9578063294cdf0d146101d6575b600080fd5b610165610160366004611aa8565b6103af565b6040516001600160e01b031990911681526020015b60405180910390f35b610196610191366004611b47565b61042b565b60405161017a9190611b73565b6101ab61080c565b60405190815260200161017a565b6005546101c69060ff1681565b604051901515815260200161017a565b6101966101e4366004611bc2565b61089c565b6101ab6101f7366004611be6565b6000908152600760209081526040918290208251608081018452815481526001820154928101929092526002810154928201839052600301546001600160a01b031660609091015290565b610255610250366004611be6565b610b76565b005b6101ab610265366004611bff565b610b85565b610255610278366004611be6565b610d1a565b600054600160a01b900460ff166101c6565b6101ab61029d366004611bc2565b610d26565b610255610dff565b6101ab60015481565b6102f16102c1366004611be6565b6007602052600090815260409020805460018201546002830154600390930154919290916001600160a01b031684565b604080519485526020850193909352918301526001600160a01b0316606082015260800161017a565b6101ab60035481565b6101ab60045481565b6000546040516001600160a01b03909116815260200161017a565b610255610355366004611be6565b610e35565b610255610368366004611be6565b610ff3565b61025561037b366004611c74565b611342565b6101ab60025481565b610255610397366004611b47565b61137f565b6102556103aa366004611bc2565b61138f565b60006001600160a01b038516156104195760405162461bcd60e51b8152602060048201526024808201527f43616e6e6f742073656e64206e66747320746f205661756c74206469726563746044820152636f69657360e01b60648201526084015b60405180910390fd5b50630a85bd0160e11b95945050505050565b60055460405163380115ed60e11b81523060048201526060916000916101009091046001600160a01b0316906370022bda90602401600060405180830381865afa15801561047d573d6000803e3d6000fd5b505050506040513d6000823e601f3d908101601f191682016040526104a59190810190611cac565b9050600080825167ffffffffffffffff8111156104c4576104c4611c96565b6040519080825280602002602001820160405280156104ed578160200160208202803683370190505b50905060005b835181101561058657866001600160a01b03166007600086848151811061051c5761051c611d6a565b6020908102919091018101518252810191909152604001600020600301546001600160a01b031603610574578082848151811061055b5761055b611d6a565b60209081029190910101528261057081611d96565b9350505b8061057e81611d96565b9150506104f3565b5060008267ffffffffffffffff8111156105a2576105a2611c96565b6040519080825280602002602001820160405280156105e757816020015b60408051808201909152600080825260208201528152602001906001900390816105c05790505b50905060005b838110156106fb5760008584838151811061060a5761060a611d6a565b60200260200101518151811061062257610622611d6a565b602002602001015190506000600560019054906101000a90046001600160a01b03166001600160a01b0316634036ab78836040518263ffffffff1660e01b815260040161067191815260200190565b602060405180830381865afa15801561068e573d6000803e3d6000fd5b505050506040513d601f19601f820116820180604052508101906106b29190611daf565b90506040518060400160405280838152602001828152508484815181106106db576106db611d6a565b6020026020010181905250505080806106f390611d96565b9150506105ed565b5060408051600580825260c08201909252600091816020015b6040805180820190915260008082526020820152815260200190600190039081610714579050509050600061074a886005611dc8565b90506000610759826005611de7565b90508351811115610768575082515b815b818110156107fd57600085828151811061078657610786611d6a565b602002602001015160000151905060008683815181106107a8576107a8611d6a565b60200260200101516020015190506040518060400160405280838152602001828152508684815181106107dd576107dd611d6a565b6020026020010181905250505080806107f590611d96565b91505061076a565b50919998505050505050505050565b600080600560019054906101000a90046001600160a01b03166001600160a01b03166318160ddd6040518163ffffffff1660e01b8152600401602060405180830381865afa158015610862573d6000803e3d6000fd5b505050506040513d601f19601f820116820180604052508101906108869190611daf565b9050600154816108969190611dff565b91505090565b60055460405163380115ed60e11b81523060048201526060916000916101009091046001600160a01b0316906370022bda90602401600060405180830381865afa1580156108ee573d6000803e3d6000fd5b505050506040513d6000823e601f3d908101601f191682016040526109169190810190611cac565b9050600080825167ffffffffffffffff81111561093557610935611c96565b60405190808252806020026020018201604052801561095e578160200160208202803683370190505b50905060005b83518110156109f757856001600160a01b03166007600086848151811061098d5761098d611d6a565b6020908102919091018101518252810191909152604001600020600301546001600160a01b0316036109e557808284815181106109cc576109cc611d6a565b6020908102919091010152826109e181611d96565b9350505b806109ef81611d96565b915050610964565b5060008267ffffffffffffffff811115610a1357610a13611c96565b604051908082528060200260200182016040528015610a5857816020015b6040805180820190915260008082526020820152815260200190600190039081610a315790505b50905060005b83811015610b6c57600085848381518110610a7b57610a7b611d6a565b602002602001015181518110610a9357610a93611d6a565b602002602001015190506000600560019054906101000a90046001600160a01b03166001600160a01b0316634036ab78836040518263ffffffff1660e01b8152600401610ae291815260200190565b602060405180830381865afa158015610aff573d6000803e3d6000fd5b505050506040513d601f19601f82011682018060405250810190610b239190611daf565b9050604051806040016040528083815260200182815250848481518110610b4c57610b4c611d6a565b602002602001018190525050508080610b6490611d96565b915050610a5e565b5095945050505050565b610b8233826001611427565b50565b60008080805b84811015610d1057858582818110610ba557610ba5611d6a565b600554604051630806d56f60e31b8152602092909202939093013560048201819052945060009261010090046001600160a01b03169150634036ab7890602401602060405180830381865afa158015610c02573d6000803e3d6000fd5b505050506040513d601f19601f82011682018060405250810190610c269190611daf565b9050600081600103610c3b5750610320610c51565b81600203610c4c57506104e2610c51565b506108345b600084815260076020908152604091829020825160808101845281548152600182015492810183905260028201549381018490526003909101546001600160a01b03166060820152914282108015610cb25750610caf603c82611dff565b42105b15610cf85762015180610cc58342611dff565b610cd786670de0b6b3a7640000611dc8565b610ce19190611dc8565b610ceb9190611e16565b610cf59089611de7565b97505b50505050508080610d0890611d96565b915050610b8b565b5090949350505050565b610b8233826000611427565b600080600090506000600560019054906101000a90046001600160a01b03166001600160a01b03166318160ddd6040518163ffffffff1660e01b8152600401602060405180830381865afa158015610d82573d6000803e3d6000fd5b505050506040513d601f19601f82011682018060405250810190610da69190611daf565b905060015b818111610df6576000818152600760205260409020600301546001600160a01b03808716911603610de457610de1600184611de7565b92505b80610dee81611d96565b915050610dab565b50909392505050565b6000546001600160a01b03163314610e295760405162461bcd60e51b815260040161041090611e38565b610e3360006116e6565b565b600054600160a01b900460ff1615610e825760405162461bcd60e51b815260206004820152601060248201526f14185d5cd8589b194e881c185d5cd95960821b6044820152606401610410565b6000818152600760209081526040918290208251608081018452815481526001820154928101929092526002810154928201929092526003909101546001600160a01b0316606082018190523314610eec5760405162461bcd60e51b815260040161041090611e6d565b80604001514211610f355760405162461bcd60e51b81526020600482015260136024820152722cb7ba9030b9329034b71031b7b7b63237bbb760691b6044820152606401610410565b60055460ff16610f755760405162461bcd60e51b815260206004820152600b60248201526a4d61696e74656e616e636560a81b6044820152606401610410565b60405180608001604052808381526020014281526020014262015180610f9b9190611de7565b8152336020918201526000938452600781526040938490208251815590820151600182015592810151600284015560600151600390920180546001600160a01b0319166001600160a01b039093169290921790915550565b600054600160a01b900460ff16156110405760405162461bcd60e51b815260206004820152601060248201526f14185d5cd8589b194e881c185d5cd95960821b6044820152606401610410565b6005546040516331a9108f60e11b815260048101839052339161010090046001600160a01b031690636352211e90602401602060405180830381865afa15801561108e573d6000803e3d6000fd5b505050506040513d601f19601f820116820180604052508101906110b29190611e9c565b6001600160a01b0316146111085760405162461bcd60e51b815260206004820152601860248201527f596f7520646f6e2774206f776e207468697320746f6b656e00000000000000006044820152606401610410565b600081815260076020526040902054156111645760405162461bcd60e51b815260206004820152601960248201527f7468697320746f6b656e20616c7265616479207374616b6564000000000000006044820152606401610410565b6005546040516323b872dd60e01b8152336004820152306024820152604481018390526101009091046001600160a01b0316906323b872dd90606401600060405180830381600087803b1580156111ba57600080fd5b505af11580156111ce573d6000803e3d6000fd5b50506040805133815260208101859052428183015290517f36b3725f1783bad4ff05b7f4c077c3aa68eeb23a4d054ba189db4d01ac278d399350908190036060019150a1600554604051630806d56f60e31b81526004810183905260009161010090046001600160a01b031690634036ab7890602401602060405180830381865afa158015611261573d6000803e3d6000fd5b505050506040513d601f19601f820116820180604052508101906112859190611daf565b9050806001036112a9576002805490600061129f83611d96565b91905055506112d7565b806002036112c1576003805490600061129f83611d96565b600480549060006112d183611d96565b91905055505b5060408051608081018252828152426020808301828152838501928352336060850190815260009687526007909252939094209151825591516001820155905160028201559051600390910180546001600160a01b0319166001600160a01b03909216919091179055565b6000546001600160a01b0316331461136c5760405162461bcd60e51b815260040161041090611e38565b6005805460ff1916911515919091179055565b61138b82826000611427565b5050565b6000546001600160a01b031633146113b95760405162461bcd60e51b815260040161041090611e38565b6001600160a01b03811661141e5760405162461bcd60e51b815260206004820152602660248201527f4f776e61626c653a206e6577206f776e657220697320746865207a65726f206160448201526564647265737360d01b6064820152608401610410565b610b82816116e6565b6000828152600760209081526040808320815160808101835281548152600182015493810193909352600281015491830191909152600301546001600160a01b0390811660608301819052908616146114925760405162461bcd60e51b815260040161041090611e6d565b60208101516040808301516005549151630806d56f60e31b81526004810188905290916000916101009091046001600160a01b031690634036ab7890602401602060405180830381865afa1580156114ee573d6000803e3d6000fd5b505050506040513d601f19601f820116820180604052508101906115129190611daf565b9050600081600103611527575061032061153d565b8160020361153857506104e261153d565b506108345b83421180156115555750611552603c84611dff565b42105b1561159157620151806115688542611dff565b61157a83670de0b6b3a7640000611dc8565b6115849190611dc8565b61158e9190611e16565b95505b8515611689576006546040516340c10f1960e01b81526001600160a01b038b8116600483015260248201899052909116906340c10f1990604401600060405180830381600087803b1580156115e557600080fd5b505af11580156115f9573d6000803e3d6000fd5b5050505060405180608001604052808981526020014281526020018481526020018a6001600160a01b0316815250600760008a815260200190815260200160002060008201518160000155602082015181600101556040820151816002015560608201518160030160006101000a8154816001600160a01b0302191690836001600160a01b031602179055509050505b8615611699576116998989611736565b604080516001600160a01b038b168152602081018890527fd8138f8a3f377c5259ca548e70e4c2de94f129f5a11036a15b69513cba2b426a910160405180910390a1505050505050505050565b600080546001600160a01b038381166001600160a01b0319831681178455604051919092169283917f8be0079c531659141344cd1fd0a4f28419497f9722a3daafe3b4186f6b6457e09190a35050565b6000818152600760209081526040918290208251608081018452815481526001820154928101929092526002810154928201929092526003909101546001600160a01b03166060820181905233146117a05760405162461bcd60e51b815260040161041090611e6d565b600554604051630806d56f60e31b81526004810184905260009161010090046001600160a01b031690634036ab7890602401602060405180830381865afa1580156117ef573d6000803e3d6000fd5b505050506040513d601f19601f820116820180604052508101906118139190611daf565b905060008160010361194f57506006546040516370a0823160e01b81526001600160a01b038681166004830152683635c9adc5dea000009283929116906370a0823190602401602060405180830381865afa158015611876573d6000803e3d6000fd5b505050506040513d601f19601f8201168201806040525081019061189a9190611daf565b10156118e85760405162461bcd60e51b815260206004820152601a60248201527f596f7520646f6e2774206861766520656e6f75676820536f756c0000000000006044820152606401610410565b60065460405163079cc67960e41b81526001600160a01b03878116600483015260248201849052909116906379cc679090604401600060405180830381600087803b15801561193657600080fd5b505af115801561194a573d6000803e3d6000fd5b505050505b81600103611971576002805490600061196783611eb9565b919050555061199f565b81600203611989576003805490600061196783611eb9565b6004805490600061199983611eb9565b91905055505b6000848152600760209081526040808320838155600181018490556002810193909355600390920180546001600160a01b031916905581516001600160a01b0388168152908101869052428183015290517fd8db7bae94b2583013bad633657a80aab4b97994705848fe61451ddcf5a054aa9181900360600190a16005546040516323b872dd60e01b81523060048201526001600160a01b03878116602483015260448201879052610100909204909116906323b872dd90606401600060405180830381600087803b158015611a7457600080fd5b505af1158015611a88573d6000803e3d6000fd5b505050505050505050565b6001600160a01b0381168114610b8257600080fd5b600080600080600060808688031215611ac057600080fd5b8535611acb81611a93565b94506020860135611adb81611a93565b935060408601359250606086013567ffffffffffffffff80821115611aff57600080fd5b818801915088601f830112611b1357600080fd5b813581811115611b2257600080fd5b896020828501011115611b3457600080fd5b9699959850939650602001949392505050565b60008060408385031215611b5a57600080fd5b8235611b6581611a93565b946020939093013593505050565b602080825282518282018190526000919060409081850190868401855b82811015611bb557815180518552860151868501529284019290850190600101611b90565b5091979650505050505050565b600060208284031215611bd457600080fd5b8135611bdf81611a93565b9392505050565b600060208284031215611bf857600080fd5b5035919050565b60008060208385031215611c1257600080fd5b823567ffffffffffffffff80821115611c2a57600080fd5b818501915085601f830112611c3e57600080fd5b813581811115611c4d57600080fd5b8660208260051b8501011115611c6257600080fd5b60209290920196919550909350505050565b600060208284031215611c8657600080fd5b81358015158114611bdf57600080fd5b634e487b7160e01b600052604160045260246000fd5b60006020808385031215611cbf57600080fd5b825167ffffffffffffffff80821115611cd757600080fd5b818501915085601f830112611ceb57600080fd5b815181811115611cfd57611cfd611c96565b8060051b604051601f19603f83011681018181108582111715611d2257611d22611c96565b604052918252848201925083810185019188831115611d4057600080fd5b938501935b82851015611d5e57845184529385019392850192611d45565b98975050505050505050565b634e487b7160e01b600052603260045260246000fd5b634e487b7160e01b600052601160045260246000fd5b600060018201611da857611da8611d80565b5060010190565b600060208284031215611dc157600080fd5b5051919050565b6000816000190483118215151615611de257611de2611d80565b500290565b60008219821115611dfa57611dfa611d80565b500190565b600082821015611e1157611e11611d80565b500390565b600082611e3357634e487b7160e01b600052601260045260246000fd5b500490565b6020808252818101527f4f776e61626c653a2063616c6c6572206973206e6f7420746865206f776e6572604082015260600190565b6020808252601590820152742cb7ba9030b932903737ba103a34329037bbb732b960591b604082015260600190565b600060208284031215611eae57600080fd5b8151611bdf81611a93565b600081611ec857611ec8611d80565b50600019019056fea2646970667358221220e66834353463eeb28319ca4782e67994e7ae72d1365a473c78f624f85d39194a64736f6c634300080d0033",
  "bytecodeSha1": "22006fa421d6e29b651be4715331f353945ead94",
  "compiler": {
    "evm_version": "istanbul",
    "optimizer": {
      "enabled": true,
      "runs": 200
    },
    "version": "0.8.13+commit.abaa5c0e"
  },
  "contractName": "CelestialStake",
  "language": "Solidity",
  "natspec": {
    "kind": "dev",
    "methods": {
      "owner()": {
        "details": "Returns the address of the current owner."
      },
      "paused()": {
        "details": "Returns true if the contract is paused, and false otherwise."
      },
      "renounceOwnership()": {
        "details": "Leaves the contract without owner. It will not be possible to call `onlyOwner` functions anymore. Can only be called by the current owner. NOTE: Renouncing ownership will leave the contract without an owner, thereby removing any functionality that is only available to the owner."
      },
      "transferOwnership(address)": {
        "details": "Transfers ownership of the contract to a new account (`newOwner`). Can only be called by the current owner."
      }
    },
    "version": 1
  },
  "opcodes": "PUSH1 0x80 PUSH1 0x40 MSTORE CALLVALUE DUP1 ISZERO PUSH2 0x10 JUMPI PUSH1 0x0 DUP1 REVERT JUMPDEST POP PUSH1 0x4 CALLDATASIZE LT PUSH2 0x14D JUMPI PUSH1 0x0 CALLDATALOAD PUSH1 0xE0 SHR DUP1 PUSH4 0x715018A6 GT PUSH2 0xC3 JUMPI DUP1 PUSH4 0x990FD962 GT PUSH2 0x7C JUMPI DUP1 PUSH4 0x990FD962 EQ PUSH2 0x347 JUMPI DUP1 PUSH4 0xA694FC3A EQ PUSH2 0x35A JUMPI DUP1 PUSH4 0xCFD1C30F EQ PUSH2 0x36D JUMPI DUP1 PUSH4 0xD5F10227 EQ PUSH2 0x380 JUMPI DUP1 PUSH4 0xDB826553 EQ PUSH2 0x389 JUMPI DUP1 PUSH4 0xF2FDE38B EQ PUSH2 0x39C JUMPI PUSH1 0x0 DUP1 REVERT JUMPDEST DUP1 PUSH4 0x715018A6 EQ PUSH2 0x2A2 JUMPI DUP1 PUSH4 0x817B1CD2 EQ PUSH2 0x2AA JUMPI DUP1 PUSH4 0x81A36FB6 EQ PUSH2 0x2B3 JUMPI DUP1 PUSH4 0x83933CE9 EQ PUSH2 0x31A JUMPI DUP1 PUSH4 0x866A4503 EQ PUSH2 0x323 JUMPI DUP1 PUSH4 0x8DA5CB5B EQ PUSH2 0x32C JUMPI PUSH1 0x0 DUP1 REVERT JUMPDEST DUP1 PUSH4 0x29E203AB GT PUSH2 0x115 JUMPI DUP1 PUSH4 0x29E203AB EQ PUSH2 0x1E9 JUMPI DUP1 PUSH4 0x2E17DE78 EQ PUSH2 0x242 JUMPI DUP1 PUSH4 0x3562B086 EQ PUSH2 0x257 JUMPI DUP1 PUSH4 0x379607F5 EQ PUSH2 0x26A JUMPI DUP1 PUSH4 0x5C975ABB EQ PUSH2 0x27D JUMPI DUP1 PUSH4 0x70A08231 EQ PUSH2 0x28F JUMPI PUSH1 0x0 DUP1 REVERT JUMPDEST DUP1 PUSH4 0x150B7A02 EQ PUSH2 0x152 JUMPI DUP1 PUSH4 0x20341F13 EQ PUSH2 0x183 JUMPI DUP1 PUSH4 0x22A045A3 EQ PUSH2 0x1A3 JUMPI DUP1 PUSH4 0x22C6921F EQ PUSH2 0x1B9 JUMPI DUP1 PUSH4 0x294CDF0D EQ PUSH2 0x1D6 JUMPI JUMPDEST PUSH1 0x0 DUP1 REVERT JUMPDEST PUSH2 0x165 PUSH2 0x160 CALLDATASIZE PUSH1 0x4 PUSH2 0x1AA8 JUMP JUMPDEST PUSH2 0x3AF JUMP JUMPDEST PUSH1 0x40 MLOAD PUSH1 0x1 PUSH1 0x1 PUSH1 0xE0 SHL SUB NOT SWAP1 SWAP2 AND DUP2 MSTORE PUSH1 0x20 ADD JUMPDEST PUSH1 0x40 MLOAD DUP1 SWAP2 SUB SWAP1 RETURN JUMPDEST PUSH2 0x196 PUSH2 0x191 CALLDATASIZE PUSH1 0x4 PUSH2 0x1B47 JUMP JUMPDEST PUSH2 0x42B JUMP JUMPDEST PUSH1 0x40 MLOAD PUSH2 0x17A SWAP2 SWAP1 PUSH2 0x1B73 JUMP JUMPDEST PUSH2 0x1AB PUSH2 0x80C JUMP JUMPDEST PUSH1 0x40 MLOAD SWAP1 DUP2 MSTORE PUSH1 0x20 ADD PUSH2 0x17A JUMP JUMPDEST PUSH1 0x5 SLOAD PUSH2 0x1C6 SWAP1 PUSH1 0xFF AND DUP2 JUMP JUMPDEST PUSH1 0x40 MLOAD SWAP1 ISZERO ISZERO DUP2 MSTORE PUSH1 0x20 ADD PUSH2 0x17A JUMP JUMPDEST PUSH2 0x196 PUSH2 0x1E4 CALLDATASIZE PUSH1 0x4 PUSH2 0x1BC2 JUMP JUMPDEST PUSH2 0x89C JUMP JUMPDEST PUSH2 0x1AB PUSH2 0x1F7 CALLDATASIZE PUSH1 0x4 PUSH2 0x1BE6 JUMP JUMPDEST PUSH1 0x0 SWAP1 DUP2 MSTORE PUSH1 0x7 PUSH1 0x20 SWAP1 DUP2 MSTORE PUSH1 0x40 SWAP2 DUP3 SWAP1 KECCAK256 DUP3 MLOAD PUSH1 0x80 DUP2 ADD DUP5 MSTORE DUP2 SLOAD DUP2 MSTORE PUSH1 0x1 DUP3 ADD SLOAD SWAP3 DUP2 ADD SWAP3 SWAP1 SWAP3 MSTORE PUSH1 0x2 DUP2 ADD SLOAD SWAP3 DUP3 ADD DUP4 SWAP1 MSTORE PUSH1 0x3 ADD SLOAD PUSH1 0x1 PUSH1 0x1 PUSH1 0xA0 SHL SUB AND PUSH1 0x60 SWAP1 SWAP2 ADD MSTORE SWAP1 JUMP JUMPDEST PUSH2 0x255 PUSH2 0x250 CALLDATASIZE PUSH1 0x4 PUSH2 0x1BE6 JUMP JUMPDEST PUSH2 0xB76 JUMP JUMPDEST STOP JUMPDEST PUSH2 0x1AB PUSH2 0x265 CALLDATASIZE PUSH1 0x4 PUSH2 0x1BFF JUMP JUMPDEST PUSH2 0xB85 JUMP JUMPDEST PUSH2 0x255 PUSH2 0x278 CALLDATASIZE PUSH1 0x4 PUSH2 0x1BE6 JUMP JUMPDEST PUSH2 0xD1A JUMP JUMPDEST PUSH1 0x0 SLOAD PUSH1 0x1 PUSH1 0xA0 SHL SWAP1 DIV PUSH1 0xFF AND PUSH2 0x1C6 JUMP JUMPDEST PUSH2 0x1AB PUSH2 0x29D CALLDATASIZE PUSH1 0x4 PUSH2 0x1BC2 JUMP JUMPDEST PUSH2 0xD26 JUMP JUMPDEST PUSH2 0x255 PUSH2 0xDFF JUMP JUMPDEST PUSH2 0x1AB PUSH1 0x1 SLOAD DUP2 JUMP JUMPDEST PUSH2 0x2F1 PUSH2 0x2C1 CALLDATASIZE PUSH1 0x4 PUSH2 0x1BE6 JUMP JUMPDEST PUSH1 0x7 PUSH1 0x20 MSTORE PUSH1 0x0 SWAP1 DUP2 MSTORE PUSH1 0x40 SWAP1 KECCAK256 DUP1 SLOAD PUSH1 0x1 DUP3 ADD SLOAD PUSH1 0x2 DUP4 ADD SLOAD PUSH1 0x3 SWAP1 SWAP4 ADD SLOAD SWAP2 SWAP3 SWAP1 SWAP2 PUSH1 0x1 PUSH1 0x1 PUSH1 0xA0 SHL SUB AND DUP5 JUMP JUMPDEST PUSH1 0x40 DUP1 MLOAD SWAP5 DUP6 MSTORE PUSH1 0x20 DUP6 ADD SWAP4 SWAP1 SWAP4 MSTORE SWAP2 DUP4 ADD MSTORE PUSH1 0x1 PUSH1 0x1 PUSH1 0xA0 SHL SUB AND PUSH1 0x60 DUP3 ADD MSTORE PUSH1 0x80 ADD PUSH2 0x17A JUMP JUMPDEST PUSH2 0x1AB PUSH1 0x3 SLOAD DUP2 JUMP JUMPDEST PUSH2 0x1AB PUSH1 0x4 SLOAD DUP2 JUMP JUMPDEST PUSH1 0x0 SLOAD PUSH1 0x40 MLOAD PUSH1 0x1 PUSH1 0x1 PUSH1 0xA0 SHL SUB SWAP1 SWAP2 AND DUP2 MSTORE PUSH1 0x20 ADD PUSH2 0x17A JUMP JUMPDEST PUSH2 0x255 PUSH2 0x355 CALLDATASIZE PUSH1 0x4 PUSH2 0x1BE6 JUMP JUMPDEST PUSH2 0xE35 JUMP JUMPDEST PUSH2 0x255 PUSH2 0x368 CALLDATASIZE PUSH1 0x4 PUSH2 0x1BE6 JUMP JUMPDEST PUSH2 0xFF3 JUMP JUMPDEST PUSH2 0x255 PUSH2 0x37B CALLDATASIZE PUSH1 0x4 PUSH2 0x1C74 JUMP JUMPDEST PUSH2 0x1342 JUMP JUMPDEST PUSH2 0x1AB PUSH1 0x2 SLOAD DUP2 JUMP JUMPDEST PUSH2 0x255 PUSH2 0x397 CALLDATASIZE PUSH1 0x4 PUSH2 0x1B47 JUMP JUMPDEST PUSH2 0x137F JUMP JUMPDEST PUSH2 0x255 PUSH2 0x3AA CALLDATASIZE PUSH1 0x4 PUSH2 0x1BC2 JUMP JUMPDEST PUSH2 0x138F JUMP JUMPDEST PUSH1 0x0 PUSH1 0x1 PUSH1 0x1 PUSH1 0xA0 SHL SUB DUP6 AND ISZERO PUSH2 0x419 JUMPI PUSH1 0x40 MLOAD PUSH3 0x461BCD PUSH1 0xE5 SHL DUP2 MSTORE PUSH1 0x20 PUSH1 0x4 DUP3 ADD MSTORE PUSH1 0x24 DUP1 DUP3 ADD MSTORE PUSH32 0x43616E6E6F742073656E64206E66747320746F205661756C7420646972656374 PUSH1 0x44 DUP3 ADD MSTORE PUSH4 0x6F696573 PUSH1 0xE0 SHL PUSH1 0x64 DUP3 ADD MSTORE PUSH1 0x84 ADD JUMPDEST PUSH1 0x40 MLOAD DUP1 SWAP2 SUB SWAP1 REVERT JUMPDEST POP PUSH4 0xA85BD01 PUSH1 0xE1 SHL SWAP6 SWAP5 POP POP POP POP POP JUMP JUMPDEST PUSH1 0x5 SLOAD PUSH1 0x40 MLOAD PUSH4 0x380115ED PUSH1 0xE1 SHL DUP2 MSTORE ADDRESS PUSH1 0x4 DUP3 ADD MSTORE PUSH1 0x60 SWAP2 PUSH1 0x0 SWAP2 PUSH2 0x100 SWAP1 SWAP2 DIV PUSH1 0x1 PUSH1 0x1 PUSH1 0xA0 SHL SUB AND SWAP1 PUSH4 0x70022BDA SWAP1 PUSH1 0x24 ADD PUSH1 0x0 PUSH1 0x40 MLOAD DUP1 DUP4 SUB DUP2 DUP7 GAS STATICCALL ISZERO DUP1 ISZERO PUSH2 0x47D JUMPI RETURNDATASIZE PUSH1 0x0 DUP1 RETURNDATACOPY RETURNDATASIZE PUSH1 0x0 REVERT JUMPDEST POP POP POP POP PUSH1 0x40 MLOAD RETURNDATASIZE PUSH1 0x0 DUP3 RETURNDATACOPY PUSH1 0x1F RETURNDATASIZE SWAP1 DUP2 ADD PUSH1 0x1F NOT AND DUP3 ADD PUSH1 0x40 MSTORE PUSH2 0x4A5 SWAP2 SWAP1 DUP2 ADD SWAP1 PUSH2 0x1CAC JUMP JUMPDEST SWAP1 POP PUSH1 0x0 DUP1 DUP3 MLOAD PUSH8 0xFFFFFFFFFFFFFFFF DUP2 GT ISZERO PUSH2 0x4C4 JUMPI PUSH2 0x4C4 PUSH2 0x1C96 JUMP JUMPDEST PUSH1 0x40 MLOAD SWAP1 DUP1 DUP3 MSTORE DUP1 PUSH1 0x20 MUL PUSH1 0x20 ADD DUP3 ADD PUSH1 0x40 MSTORE DUP1 ISZERO PUSH2 0x4ED JUMPI DUP2 PUSH1 0x20 ADD PUSH1 0x20 DUP3 MUL DUP1 CALLDATASIZE DUP4 CALLDATACOPY ADD SWAP1 POP JUMPDEST POP SWAP1 POP PUSH1 0x0 JUMPDEST DUP4 MLOAD DUP2 LT ISZERO PUSH2 0x586 JUMPI DUP7 PUSH1 0x1 PUSH1 0x1 PUSH1 0xA0 SHL SUB AND PUSH1 0x7 PUSH1 0x0 DUP7 DUP5 DUP2 MLOAD DUP2 LT PUSH2 0x51C JUMPI PUSH2 0x51C PUSH2 0x1D6A JUMP JUMPDEST PUSH1 0x20 SWAP1 DUP2 MUL SWAP2 SWAP1 SWAP2 ADD DUP2 ADD MLOAD DUP3 MSTORE DUP2 ADD SWAP2 SWAP1 SWAP2 MSTORE PUSH1 0x40 ADD PUSH1 0x0 KECCAK256 PUSH1 0x3 ADD SLOAD PUSH1 0x1 PUSH1 0x1 PUSH1 0xA0 SHL SUB AND SUB PUSH2 0x574 JUMPI DUP1 DUP3 DUP5 DUP2 MLOAD DUP2 LT PUSH2 0x55B JUMPI PUSH2 0x55B PUSH2 0x1D6A JUMP JUMPDEST PUSH1 0x20 SWAP1 DUP2 MUL SWAP2 SWAP1 SWAP2 ADD ADD MSTORE DUP3 PUSH2 0x570 DUP2 PUSH2 0x1D96 JUMP JUMPDEST SWAP4 POP POP JUMPDEST DUP1 PUSH2 0x57E DUP2 PUSH2 0x1D96 JUMP JUMPDEST SWAP2 POP POP PUSH2 0x4F3 JUMP JUMPDEST POP PUSH1 0x0 DUP3 PUSH8 0xFFFFFFFFFFFFFFFF DUP2 GT ISZERO PUSH2 0x5A2 JUMPI PUSH2 0x5A2 PUSH2 0x1C96 JUMP JUMPDEST PUSH1 0x40 MLOAD SWAP1 DUP1 DUP3 MSTORE DUP1 PUSH1 0x20 MUL PUSH1 0x20 ADD DUP3 ADD PUSH1 0x40 MSTORE DUP1 ISZERO PUSH2 0x5E7 JUMPI DUP2 PUSH1 0x20 ADD JUMPDEST PUSH1 0x40 DUP1 MLOAD DUP1 DUP3 ADD SWAP1 SWAP2 MSTORE PUSH1 0x0 DUP1 DUP3 MSTORE PUSH1 0x20 DUP3 ADD MSTORE DUP2 MSTORE PUSH1 0x20 ADD SWAP1 PUSH1 0x1 SWAP1 SUB SWAP1 DUP2 PUSH2 0x5C0 JUMPI SWAP1 POP JUMPDEST POP SWAP1 POP PUSH1 0x0 JUMPDEST DUP4 DUP2 LT ISZERO PUSH2 0x6FB JUMPI PUSH1 0x0 DUP6 DUP5 DUP4 DUP2 MLOAD DUP2 LT PUSH2 0x60A JUMPI PUSH2 0x60A PUSH2 0x1D6A JUMP JUMPDEST PUSH1 0x20 MUL PUSH1 0x20 ADD ADD MLOAD DUP2 MLOAD DUP2 LT PUSH2 0x622 JUMPI PUSH2 0x622 PUSH2 0x1D6A JUMP JUMPDEST PUSH1 0x20 MUL PUSH1 0x20 ADD ADD MLOAD SWAP1 POP PUSH1 0x0 PUSH1 0x5 PUSH1 0x1 SWAP1 SLOAD SWAP1 PUSH2 0x100 EXP SWAP1 DIV PUSH1 0x1 PUSH1 0x1 PUSH1 0xA0 SHL SUB AND PUSH1 0x1 PUSH1 0x1 PUSH1 0xA0 SHL SUB AND PUSH4 0x4036AB78 DUP4 PUSH1 0x40 MLOAD DUP3 PUSH4 0xFFFFFFFF AND PUSH1 0xE0 SHL DUP2 MSTORE PUSH1 0x4 ADD PUSH2 0x671 SWAP2 DUP2 MSTORE PUSH1 0x20 ADD SWAP1 JUMP JUMPDEST PUSH1 0x20 PUSH1 0x40 MLOAD DUP1 DUP4 SUB DUP2 DUP7 GAS STATICCALL ISZERO DUP1 ISZERO PUSH2 0x68E JUMPI RETURNDATASIZE PUSH1 0x0 DUP1 RETURNDATACOPY RETURNDATASIZE PUSH1 0x0 REVERT JUMPDEST POP POP POP POP PUSH1 0x40 MLOAD RETURNDATASIZE PUSH1 0x1F NOT PUSH1 0x1F DUP3 ADD AND DUP3 ADD DUP1 PUSH1 0x40 MSTORE POP DUP2 ADD SWAP1 PUSH2 0x6B2 SWAP2 SWAP1 PUSH2 0x1DAF JUMP JUMPDEST SWAP1 POP PUSH1 0x40 MLOAD DUP1 PUSH1 0x40 ADD PUSH1 0x40 MSTORE DUP1 DUP4 DUP2 MSTORE PUSH1 0x20 ADD DUP3 DUP2 MSTORE POP DUP5 DUP5 DUP2 MLOAD DUP2 LT PUSH2 0x6DB JUMPI PUSH2 0x6DB PUSH2 0x1D6A JUMP JUMPDEST PUSH1 0x20 MUL PUSH1 0x20 ADD ADD DUP2 SWAP1 MSTORE POP POP POP DUP1 DUP1 PUSH2 0x6F3 SWAP1 PUSH2 0x1D96 JUMP JUMPDEST SWAP2 POP POP PUSH2 0x5ED JUMP JUMPDEST POP PUSH1 0x40 DUP1 MLOAD PUSH1 0x5 DUP1 DUP3 MSTORE PUSH1 0xC0 DUP3 ADD SWAP1 SWAP3 MSTORE PUSH1 0x0 SWAP2 DUP2 PUSH1 0x20 ADD JUMPDEST PUSH1 0x40 DUP1 MLOAD DUP1 DUP3 ADD SWAP1 SWAP2 MSTORE PUSH1 0x0 DUP1 DUP3 MSTORE PUSH1 0x20 DUP3 ADD MSTORE DUP2 MSTORE PUSH1 0x20 ADD SWAP1 PUSH1 0x1 SWAP1 SUB SWAP1 DUP2 PUSH2 0x714 JUMPI SWAP1 POP POP SWAP1 POP PUSH1 0x0 PUSH2 0x74A DUP9 PUSH1 0x5 PUSH2 0x1DC8 JUMP JUMPDEST SWAP1 POP PUSH1 0x0 PUSH2 0x759 DUP3 PUSH1 0x5 PUSH2 0x1DE7 JUMP JUMPDEST SWAP1 POP DUP4 MLOAD DUP2 GT ISZERO PUSH2 0x768 JUMPI POP DUP3 MLOAD JUMPDEST DUP2 JUMPDEST DUP2 DUP2 LT ISZERO PUSH2 0x7FD JUMPI PUSH1 0x0 DUP6 DUP3 DUP2 MLOAD DUP2 LT PUSH2 0x786 JUMPI PUSH2 0x786 PUSH2 0x1D6A JUMP JUMPDEST PUSH1 0x20 MUL PUSH1 0x20 ADD ADD MLOAD PUSH1 0x0 ADD MLOAD SWAP1 POP PUSH1 0x0 DUP7 DUP4 DUP2 MLOAD DUP2 LT PUSH2 0x7A8 JUMPI PUSH2 0x7A8 PUSH2 0x1D6A JUMP JUMPDEST PUSH1 0x20 MUL PUSH1 0x20 ADD ADD MLOAD PUSH1 0x20 ADD MLOAD SWAP1 POP PUSH1 0x40 MLOAD DUP1 PUSH1 0x40 ADD PUSH1 0x40 MSTORE DUP1 DUP4 DUP2 MSTORE PUSH1 0x20 ADD DUP3 DUP2 MSTORE POP DUP7 DUP5 DUP2 MLOAD DUP2 LT PUSH2 0x7DD JUMPI PUSH2 0x7DD PUSH2 0x1D6A JUMP JUMPDEST PUSH1 0x20 MUL PUSH1 0x20 ADD ADD DUP2 SWAP1 MSTORE POP POP POP DUP1 DUP1 PUSH2 0x7F5 SWAP1 PUSH2 0x1D96 JUMP JUMPDEST SWAP2 POP POP PUSH2 0x76A JUMP JUMPDEST POP SWAP2 SWAP10 SWAP9 POP POP POP POP POP POP POP POP POP JUMP JUMPDEST PUSH1 0x0 DUP1 PUSH1 0x5 PUSH1 0x1 SWAP1 SLOAD SWAP1 PUSH2 0x100 EXP SWAP1 DIV PUSH1 0x1 PUSH1 0x1 PUSH1 0xA0 SHL SUB AND PUSH1 0x1 PUSH1 0x1 PUSH1 0xA0 SHL SUB AND PUSH4 0x18160DDD PUSH1 0x40 MLOAD DUP2 PUSH4 0xFFFFFFFF AND PUSH1 0xE0 SHL DUP2 MSTORE PUSH1 0x4 ADD PUSH1 0x20 PUSH1 0x40 MLOAD DUP1 DUP4 SUB DUP2 DUP7 GAS STATICCALL ISZERO DUP1 ISZERO PUSH2 0x862 JUMPI RETURNDATASIZE PUSH1 0x0 DUP1 RETURNDATACOPY RETURNDATASIZE PUSH1 0x0 REVERT JUMPDEST POP POP POP POP PUSH1 0x40 MLOAD RETURNDATASIZE PUSH1 0x1F NOT PUSH1 0x1F DUP3 ADD AND DUP3 ADD DUP1 PUSH1 0x40 MSTORE POP DUP2 ADD SWAP1 PUSH2 0x886 SWAP2 SWAP1 PUSH2 0x1DAF JUMP JUMPDEST SWAP1 POP PUSH1 0x1 SLOAD DUP2 PUSH2 0x896 SWAP2 SWAP1 PUSH2 0x1DFF JUMP JUMPDEST SWAP2 POP POP SWAP1 JUMP JUMPDEST PUSH1 0x5 SLOAD PUSH1 0x40 MLOAD PUSH4 0x380115ED PUSH1 0xE1 SHL DUP2 MSTORE ADDRESS PUSH1 0x4 DUP3 ADD MSTORE PUSH1 0x60 SWAP2 PUSH1 0x0 SWAP2 PUSH2 0x100 SWAP1 SWAP2 DIV PUSH1 0x1 PUSH1 0x1 PUSH1 0xA0 SHL SUB AND SWAP1 PUSH4 0x70022BDA SWAP1 PUSH1 0x24 ADD PUSH1 0x0 PUSH1 0x40 MLOAD DUP1 DUP4 SUB DUP2 DUP7 GAS STATICCALL ISZERO DUP1 ISZERO PUSH2 0x8EE JUMPI RETURNDATASIZE PUSH1 0x0 DUP1 RETURNDATACOPY RETURNDATASIZE PUSH1 0x0 REVERT JUMPDEST POP POP POP POP PUSH1 0x40 MLOAD RETURNDATASIZE PUSH1 0x0 DUP3 RETURNDATACOPY PUSH1 0x1F RETURNDATASIZE SWAP1 DUP2 ADD PUSH1 0x1F NOT AND DUP3 ADD PUSH1 0x40 MSTORE PUSH2 0x916 SWAP2 SWAP1 DUP2 ADD SWAP1 PUSH2 0x1CAC JUMP JUMPDEST SWAP1 POP PUSH1 0x0 DUP1 DUP3 MLOAD PUSH8 0xFFFFFFFFFFFFFFFF DUP2 GT ISZERO PUSH2 0x935 JUMPI PUSH2 0x935 PUSH2 0x1C96 JUMP JUMPDEST PUSH1 0x40 MLOAD SWAP1 DUP1 DUP3 MSTORE DUP1 PUSH1 0x20 MUL PUSH1 0x20 ADD DUP3 ADD PUSH1 0x40 MSTORE DUP1 ISZERO PUSH2 0x95E JUMPI DUP2 PUSH1 0x20 ADD PUSH1 0x20 DUP3 MUL DUP1 CALLDATASIZE DUP4 CALLDATACOPY ADD SWAP1 POP JUMPDEST POP SWAP1 POP PUSH1 0x0 JUMPDEST DUP4 MLOAD DUP2 LT ISZERO PUSH2 0x9F7 JUMPI DUP6 PUSH1 0x1 PUSH1 0x1 PUSH1 0xA0 SHL SUB AND PUSH1 0x7 PUSH1 0x0 DUP7 DUP5 DUP2 MLOAD DUP2 LT PUSH2 0x98D JUMPI PUSH2 0x98D PUSH2 0x1D6A JUMP JUMPDEST PUSH1 0x20 SWAP1 DUP2 MUL SWAP2 SWAP1 SWAP2 ADD DUP2 ADD MLOAD DUP3 MSTORE DUP2 ADD SWAP2 SWAP1 SWAP2 MSTORE PUSH1 0x40 ADD PUSH1 0x0 KECCAK256 PUSH1 0x3 ADD SLOAD PUSH1 0x1 PUSH1 0x1 PUSH1 0xA0 SHL SUB AND SUB PUSH2 0x9E5 JUMPI DUP1 DUP3 DUP5 DUP2 MLOAD DUP2 LT PUSH2 0x9CC JUMPI PUSH2 0x9CC PUSH2 0x1D6A JUMP JUMPDEST PUSH1 0x20 SWAP1 DUP2 MUL SWAP2 SWAP1 SWAP2 ADD ADD MSTORE DUP3 PUSH2 0x9E1 DUP2 PUSH2 0x1D96 JUMP JUMPDEST SWAP4 POP POP JUMPDEST DUP1 PUSH2 0x9EF DUP2 PUSH2 0x1D96 JUMP JUMPDEST SWAP2 POP POP PUSH2 0x964 JUMP JUMPDEST POP PUSH1 0x0 DUP3 PUSH8 0xFFFFFFFFFFFFFFFF DUP2 GT ISZERO PUSH2 0xA13 JUMPI PUSH2 0xA13 PUSH2 0x1C96 JUMP JUMPDEST PUSH1 0x40 MLOAD SWAP1 DUP1 DUP3 MSTORE DUP1 PUSH1 0x20 MUL PUSH1 0x20 ADD DUP3 ADD PUSH1 0x40 MSTORE DUP1 ISZERO PUSH2 0xA58 JUMPI DUP2 PUSH1 0x20 ADD JUMPDEST PUSH1 0x40 DUP1 MLOAD DUP1 DUP3 ADD SWAP1 SWAP2 MSTORE PUSH1 0x0 DUP1 DUP3 MSTORE PUSH1 0x20 DUP3 ADD MSTORE DUP2 MSTORE PUSH1 0x20 ADD SWAP1 PUSH1 0x1 SWAP1 SUB SWAP1 DUP2 PUSH2 0xA31 JUMPI SWAP1 POP JUMPDEST POP SWAP1 POP PUSH1 0x0 JUMPDEST DUP4 DUP2 LT ISZERO PUSH2 0xB6C JUMPI PUSH1 0x0 DUP6 DUP5 DUP4 DUP2 MLOAD DUP2 LT PUSH2 0xA7B JUMPI PUSH2 0xA7B PUSH2 0x1D6A JUMP JUMPDEST PUSH1 0x20 MUL PUSH1 0x20 ADD ADD MLOAD DUP2 MLOAD DUP2 LT PUSH2 0xA93 JUMPI PUSH2 0xA93 PUSH2 0x1D6A JUMP JUMPDEST PUSH1 0x20 MUL PUSH1 0x20 ADD ADD MLOAD SWAP1 POP PUSH1 0x0 PUSH1 0x5 PUSH1 0x1 SWAP1 SLOAD SWAP1 PUSH2 0x100 EXP SWAP1 DIV PUSH1 0x1 PUSH1 0x1 PUSH1 0xA0 SHL SUB AND PUSH1 0x1 PUSH1 0x1 PUSH1 0xA0 SHL SUB AND PUSH4 0x4036AB78 DUP4 PUSH1 0x40 MLOAD DUP3 PUSH4 0xFFFFFFFF AND PUSH1 0xE0 SHL DUP2 MSTORE PUSH1 0x4 ADD PUSH2 0xAE2 SWAP2 DUP2 MSTORE PUSH1 0x20 ADD SWAP1 JUMP JUMPDEST PUSH1 0x20 PUSH1 0x40 MLOAD DUP1 DUP4 SUB DUP2 DUP7 GAS STATICCALL ISZERO DUP1 ISZERO PUSH2 0xAFF JUMPI RETURNDATASIZE PUSH1 0x0 DUP1 RETURNDATACOPY RETURNDATASIZE PUSH1 0x0 REVERT JUMPDEST POP POP POP POP PUSH1 0x40 MLOAD RETURNDATASIZE PUSH1 0x1F NOT PUSH1 0x1F DUP3 ADD AND DUP3 ADD DUP1 PUSH1 0x40 MSTORE POP DUP2 ADD SWAP1 PUSH2 0xB23 SWAP2 SWAP1 PUSH2 0x1DAF JUMP JUMPDEST SWAP1 POP PUSH1 0x40 MLOAD DUP1 PUSH1 0x40 ADD PUSH1 0x40 MSTORE DUP1 DUP4 DUP2 MSTORE PUSH1 0x20 ADD DUP3 DUP2 MSTORE POP DUP5 DUP5 DUP2 MLOAD DUP2 LT PUSH2 0xB4C JUMPI PUSH2 0xB4C PUSH2 0x1D6A JUMP JUMPDEST PUSH1 0x20 MUL PUSH1 0x20 ADD ADD DUP2 SWAP1 MSTORE POP POP POP DUP1 DUP1 PUSH2 0xB64 SWAP1 PUSH2 0x1D96 JUMP JUMPDEST SWAP2 POP POP PUSH2 0xA5E JUMP JUMPDEST POP SWAP6 SWAP5 POP POP POP POP POP JUMP JUMPDEST PUSH2 0xB82 CALLER DUP3 PUSH1 0x1 PUSH2 0x1427 JUMP JUMPDEST POP JUMP JUMPDEST PUSH1 0x0 DUP1 DUP1 DUP1 JUMPDEST DUP5 DUP2 LT ISZERO PUSH2 0xD10 JUMPI DUP6 DUP6 DUP3 DUP2 DUP2 LT PUSH2 0xBA5 JUMPI PUSH2 0xBA5 PUSH2 0x1D6A JUMP JUMPDEST PUSH1 0x5 SLOAD PUSH1 0x40 MLOAD PUSH4 0x806D56F PUSH1 0xE3 SHL DUP2 MSTORE PUSH1 0x20 SWAP3 SWAP1 SWAP3 MUL SWAP4 SWAP1 SWAP4 ADD CALLDATALOAD PUSH1 0x4 DUP3 ADD DUP2 SWAP1 MSTORE SWAP5 POP PUSH1 0x0 SWAP3 PUSH2 0x100 SWAP1 DIV PUSH1 0x1 PUSH1 0x1 PUSH1 0xA0 SHL SUB AND SWAP2 POP PUSH4 0x4036AB78 SWAP1 PUSH1 0x24 ADD PUSH1 0x20 PUSH1 0x40 MLOAD DUP1 DUP4 SUB DUP2 DUP7 GAS STATICCALL ISZERO DUP1 ISZERO PUSH2 0xC02 JUMPI RETURNDATASIZE PUSH1 0x0 DUP1 RETURNDATACOPY RETURNDATASIZE PUSH1 0x0 REVERT JUMPDEST POP POP POP POP PUSH1 0x40 MLOAD RETURNDATASIZE PUSH1 0x1F NOT PUSH1 0x1F DUP3 ADD AND DUP3 ADD DUP1 PUSH1 0x40 MSTORE POP DUP2 ADD SWAP1 PUSH2 0xC26 SWAP2 SWAP1 PUSH2 0x1DAF JUMP JUMPDEST SWAP1 POP PUSH1 0x0 DUP2 PUSH1 0x1 SUB PUSH2 0xC3B JUMPI POP PUSH2 0x320 PUSH2 0xC51 JUMP JUMPDEST DUP2 PUSH1 0x2 SUB PUSH2 0xC4C JUMPI POP PUSH2 0x4E2 PUSH2 0xC51 JUMP JUMPDEST POP PUSH2 0x834 JUMPDEST PUSH1 0x0 DUP5 DUP2 MSTORE PUSH1 0x7 PUSH1 0x20 SWAP1 DUP2 MSTORE PUSH1 0x40 SWAP2 DUP3 SWAP1 KECCAK256 DUP3 MLOAD PUSH1 0x80 DUP2 ADD DUP5 MSTORE DUP2 SLOAD DUP2 MSTORE PUSH1 0x1 DUP3 ADD SLOAD SWAP3 DUP2 ADD DUP4 SWAP1 MSTORE PUSH1 0x2 DUP3 ADD SLOAD SWAP4 DUP2 ADD DUP5 SWAP1 MSTORE PUSH1 0x3 SWAP1 SWAP2 ADD SLOAD PUSH1 0x1 PUSH1 0x1 PUSH1 0xA0 SHL SUB AND PUSH1 0x60 DUP3 ADD MSTORE SWAP2 TIMESTAMP DUP3 LT DUP1 ISZERO PUSH2 0xCB2 JUMPI POP PUSH2 0xCAF PUSH1 0x3C DUP3 PUSH2 0x1DFF JUMP JUMPDEST TIMESTAMP LT JUMPDEST ISZERO PUSH2 0xCF8 JUMPI PUSH3 0x15180 PUSH2 0xCC5 DUP4 TIMESTAMP PUSH2 0x1DFF JUMP JUMPDEST PUSH2 0xCD7 DUP7 PUSH8 0xDE0B6B3A7640000 PUSH2 0x1DC8 JUMP JUMPDEST PUSH2 0xCE1 SWAP2 SWAP1 PUSH2 0x1DC8 JUMP JUMPDEST PUSH2 0xCEB SWAP2 SWAP1 PUSH2 0x1E16 JUMP JUMPDEST PUSH2 0xCF5 SWAP1 DUP10 PUSH2 0x1DE7 JUMP JUMPDEST SWAP8 POP JUMPDEST POP POP POP POP POP DUP1 DUP1 PUSH2 0xD08 SWAP1 PUSH2 0x1D96 JUMP JUMPDEST SWAP2 POP POP PUSH2 0xB8B JUMP JUMPDEST POP SWAP1 SWAP5 SWAP4 POP POP POP POP JUMP JUMPDEST PUSH2 0xB82 CALLER DUP3 PUSH1 0x0 PUSH2 0x1427 JUMP JUMPDEST PUSH1 0x0 DUP1 PUSH1 0x0 SWAP1 POP PUSH1 0x0 PUSH1 0x5 PUSH1 0x1 SWAP1 SLOAD SWAP1 PUSH2 0x100 EXP SWAP1 DIV PUSH1 0x1 PUSH1 0x1 PUSH1 0xA0 SHL SUB AND PUSH1 0x1 PUSH1 0x1 PUSH1 0xA0 SHL SUB AND PUSH4 0x18160DDD PUSH1 0x40 MLOAD DUP2 PUSH4 0xFFFFFFFF AND PUSH1 0xE0 SHL DUP2 MSTORE PUSH1 0x4 ADD PUSH1 0x20 PUSH1 0x40 MLOAD DUP1 DUP4 SUB DUP2 DUP7 GAS STATICCALL ISZERO DUP1 ISZERO PUSH2 0xD82 JUMPI RETURNDATASIZE PUSH1 0x0 DUP1 RETURNDATACOPY RETURNDATASIZE PUSH1 0x0 REVERT JUMPDEST POP POP POP POP PUSH1 0x40 MLOAD RETURNDATASIZE PUSH1 0x1F NOT PUSH1 0x1F DUP3 ADD AND DUP3 ADD DUP1 PUSH1 0x40 MSTORE POP DUP2 ADD SWAP1 PUSH2 0xDA6 SWAP2 SWAP1 PUSH2 0x1DAF JUMP JUMPDEST SWAP1 POP PUSH1 0x1 JUMPDEST DUP2 DUP2 GT PUSH2 0xDF6 JUMPI PUSH1 0x0 DUP2 DUP2 MSTORE PUSH1 0x7 PUSH1 0x20 MSTORE PUSH1 0x40 SWAP1 KECCAK256 PUSH1 0x3 ADD SLOAD PUSH1 0x1 PUSH1 0x1 PUSH1 0xA0 SHL SUB DUP1 DUP8 AND SWAP2 AND SUB PUSH2 0xDE4 JUMPI PUSH2 0xDE1 PUSH1 0x1 DUP5 PUSH2 0x1DE7 JUMP JUMPDEST SWAP3 POP JUMPDEST DUP1 PUSH2 0xDEE DUP2 PUSH2 0x1D96 JUMP JUMPDEST SWAP2 POP POP PUSH2 0xDAB JUMP JUMPDEST POP SWAP1 SWAP4 SWAP3 POP POP POP JUMP JUMPDEST PUSH1 0x0 SLOAD PUSH1 0x1 PUSH1 0x1 PUSH1 0xA0 SHL SUB AND CALLER EQ PUSH2 0xE29 JUMPI PUSH1 0x40 MLOAD PUSH3 0x461BCD PUSH1 0xE5 SHL DUP2 MSTORE PUSH1 0x4 ADD PUSH2 0x410 SWAP1 PUSH2 0x1E38 JUMP JUMPDEST PUSH2 0xE33 PUSH1 0x0 PUSH2 0x16E6 JUMP JUMPDEST JUMP JUMPDEST PUSH1 0x0 SLOAD PUSH1 0x1 PUSH1 0xA0 SHL SWAP1 DIV PUSH1 0xFF AND ISZERO PUSH2 0xE82 JUMPI PUSH1 0x40 MLOAD PUSH3 0x461BCD PUSH1 0xE5 SHL DUP2 MSTORE PUSH1 0x20 PUSH1 0x4 DUP3 ADD MSTORE PUSH1 0x10 PUSH1 0x24 DUP3 ADD MSTORE PUSH16 0x14185D5CD8589B194E881C185D5CD959 PUSH1 0x82 SHL PUSH1 0x44 DUP3 ADD MSTORE PUSH1 0x64 ADD PUSH2 0x410 JUMP JUMPDEST PUSH1 0x0 DUP2 DUP2 MSTORE PUSH1 0x7 PUSH1 0x20 SWAP1 DUP2 MSTORE PUSH1 0x40 SWAP2 DUP3 SWAP1 KECCAK256 DUP3 MLOAD PUSH1 0x80 DUP2 ADD DUP5 MSTORE DUP2 SLOAD DUP2 MSTORE PUSH1 0x1 DUP3 ADD SLOAD SWAP3 DUP2 ADD SWAP3 SWAP1 SWAP3 MSTORE PUSH1 0x2 DUP2 ADD SLOAD SWAP3 DUP3 ADD SWAP3 SWAP1 SWAP3 MSTORE PUSH1 0x3 SWAP1 SWAP2 ADD SLOAD PUSH1 0x1 PUSH1 0x1 PUSH1 0xA0 SHL SUB AND PUSH1 0x60 DUP3 ADD DUP2 SWAP1 MSTORE CALLER EQ PUSH2 0xEEC JUMPI PUSH1 0x40 MLOAD PUSH3 0x461BCD PUSH1 0xE5 SHL DUP2 MSTORE PUSH1 0x4 ADD PUSH2 0x410 SWAP1 PUSH2 0x1E6D JUMP JUMPDEST DUP1 PUSH1 0x40 ADD MLOAD TIMESTAMP GT PUSH2 0xF35 JUMPI PUSH1 0x40 MLOAD PUSH3 0x461BCD PUSH1 0xE5 SHL DUP2 MSTORE PUSH1 0x20 PUSH1 0x4 DUP3 ADD MSTORE PUSH1 0x13 PUSH1 0x24 DUP3 ADD MSTORE PUSH19 0x2CB7BA9030B9329034B71031B7B7B63237BBB7 PUSH1 0x69 SHL PUSH1 0x44 DUP3 ADD MSTORE PUSH1 0x64 ADD PUSH2 0x410 JUMP JUMPDEST PUSH1 0x5 SLOAD PUSH1 0xFF AND PUSH2 0xF75 JUMPI PUSH1 0x40 MLOAD PUSH3 0x461BCD PUSH1 0xE5 SHL DUP2 MSTORE PUSH1 0x20 PUSH1 0x4 DUP3 ADD MSTORE PUSH1 0xB PUSH1 0x24 DUP3 ADD MSTORE PUSH11 0x4D61696E74656E616E6365 PUSH1 0xA8 SHL PUSH1 0x44 DUP3 ADD MSTORE PUSH1 0x64 ADD PUSH2 0x410 JUMP JUMPDEST PUSH1 0x40 MLOAD DUP1 PUSH1 0x80 ADD PUSH1 0x40 MSTORE DUP1 DUP4 DUP2 MSTORE PUSH1 0x20 ADD TIMESTAMP DUP2 MSTORE PUSH1 0x20 ADD TIMESTAMP PUSH3 0x15180 PUSH2 0xF9B SWAP2 SWAP1 PUSH2 0x1DE7 JUMP JUMPDEST DUP2 MSTORE CALLER PUSH1 0x20 SWAP2 DUP3 ADD MSTORE PUSH1 0x0 SWAP4 DUP5 MSTORE PUSH1 0x7 DUP2 MSTORE PUSH1 0x40 SWAP4 DUP5 SWAP1 KECCAK256 DUP3 MLOAD DUP2 SSTORE SWAP1 DUP3 ADD MLOAD PUSH1 0x1 DUP3 ADD SSTORE SWAP3 DUP2 ADD MLOAD PUSH1 0x2 DUP5 ADD SSTORE PUSH1 0x60 ADD MLOAD PUSH1 0x3 SWAP1 SWAP3 ADD DUP1 SLOAD PUSH1 0x1 PUSH1 0x1 PUSH1 0xA0 SHL SUB NOT AND PUSH1 0x1 PUSH1 0x1 PUSH1 0xA0 SHL SUB SWAP1 SWAP4 AND SWAP3 SWAP1 SWAP3 OR SWAP1 SWAP2 SSTORE POP JUMP JUMPDEST PUSH1 0x0 SLOAD PUSH1 0x1 PUSH1 0xA0 SHL SWAP1 DIV PUSH1 0xFF AND ISZERO PUSH2 0x1040 JUMPI PUSH1 0x40 MLOAD PUSH3 0x461BCD PUSH1 0xE5 SHL DUP2 MSTORE PUSH1 0x20 PUSH1 0x4 DUP3 ADD MSTORE PUSH1 0x10 PUSH1 0x24 DUP3 ADD MSTORE PUSH16 0x14185D5CD8589B194E881C185D5CD959 PUSH1 0x82 SHL PUSH1 0x44 DUP3 ADD MSTORE PUSH1 0x64 ADD PUSH2 0x410 JUMP JUMPDEST PUSH1 0x5 SLOAD PUSH1 0x40 MLOAD PUSH4 0x31A9108F PUSH1 0xE1 SHL DUP2 MSTORE PUSH1 0x4 DUP2 ADD DUP4 SWAP1 MSTORE CALLER SWAP2 PUSH2 0x100 SWAP1 DIV PUSH1 0x1 PUSH1 0x1 PUSH1 0xA0 SHL SUB AND SWAP1 PUSH4 0x6352211E SWAP1 PUSH1 0x24 ADD PUSH1 0x20 PUSH1 0x40 MLOAD DUP1 DUP4 SUB DUP2 DUP7 GAS STATICCALL ISZERO DUP1 ISZERO PUSH2 0x108E JUMPI RETURNDATASIZE PUSH1 0x0 DUP1 RETURNDATACOPY RETURNDATASIZE PUSH1 0x0 REVERT JUMPDEST POP POP POP POP PUSH1 0x40 MLOAD RETURNDATASIZE PUSH1 0x1F NOT PUSH1 0x1F DUP3 ADD AND DUP3 ADD DUP1 PUSH1 0x40 MSTORE POP DUP2 ADD SWAP1 PUSH2 0x10B2 SWAP2 SWAP1 PUSH2 0x1E9C JUMP JUMPDEST PUSH1 0x1 PUSH1 0x1 PUSH1 0xA0 SHL SUB AND EQ PUSH2 0x1108 JUMPI PUSH1 0x40 MLOAD PUSH3 0x461BCD PUSH1 0xE5 SHL DUP2 MSTORE PUSH1 0x20 PUSH1 0x4 DUP3 ADD MSTORE PUSH1 0x18 PUSH1 0x24 DUP3 ADD MSTORE PUSH32 0x596F7520646F6E2774206F776E207468697320746F6B656E0000000000000000 PUSH1 0x44 DUP3 ADD MSTORE PUSH1 0x64 ADD PUSH2 0x410 JUMP JUMPDEST PUSH1 0x0 DUP2 DUP2 MSTORE PUSH1 0x7 PUSH1 0x20 MSTORE PUSH1 0x40 SWAP1 KECCAK256 SLOAD ISZERO PUSH2 0x1164 JUMPI PUSH1 0x40 MLOAD PUSH3 0x461BCD PUSH1 0xE5 SHL DUP2 MSTORE PUSH1 0x20 PUSH1 0x4 DUP3 ADD MSTORE PUSH1 0x19 PUSH1 0x24 DUP3 ADD MSTORE PUSH32 0x7468697320746F6B656E20616C7265616479207374616B656400000000000000 PUSH1 0x44 DUP3 ADD MSTORE PUSH1 0x64 ADD PUSH2 0x410 JUMP JUMPDEST PUSH1 0x5 SLOAD PUSH1 0x40 MLOAD PUSH4 0x23B872DD PUSH1 0xE0 SHL DUP2 MSTORE CALLER PUSH1 0x4 DUP3 ADD MSTORE ADDRESS PUSH1 0x24 DUP3 ADD MSTORE PUSH1 0x44 DUP2 ADD DUP4 SWAP1 MSTORE PUSH2 0x100 SWAP1 SWAP2 DIV PUSH1 0x1 PUSH1 0x1 PUSH1 0xA0 SHL SUB AND SWAP1 PUSH4 0x23B872DD SWAP1 PUSH1 0x64 ADD PUSH1 0x0 PUSH1 0x40 MLOAD DUP1 DUP4 SUB DUP2 PUSH1 0x0 DUP8 DUP1 EXTCODESIZE ISZERO DUP1 ISZERO PUSH2 0x11BA JUMPI PUSH1 0x0 DUP1 REVERT JUMPDEST POP GAS CALL ISZERO DUP1 ISZERO PUSH2 0x11CE JUMPI RETURNDATASIZE PUSH1 0x0 DUP1 RETURNDATACOPY RETURNDATASIZE PUSH1 0x0 REVERT JUMPDEST POP POP PUSH1 0x40 DUP1 MLOAD CALLER DUP2 MSTORE PUSH1 0x20 DUP2 ADD DUP6 SWAP1 MSTORE TIMESTAMP DUP2 DUP4 ADD MSTORE SWAP1 MLOAD PUSH32 0x36B3725F1783BAD4FF05B7F4C077C3AA68EEB23A4D054BA189DB4D01AC278D39 SWAP4 POP SWAP1 DUP2 SWAP1 SUB PUSH1 0x60 ADD SWAP2 POP LOG1 PUSH1 0x5 SLOAD PUSH1 0x40 MLOAD PUSH4 0x806D56F PUSH1 0xE3 SHL DUP2 MSTORE PUSH1 0x4 DUP2 ADD DUP4 SWAP1 MSTORE PUSH1 0x0 SWAP2 PUSH2 0x100 SWAP1 DIV PUSH1 0x1 PUSH1 0x1 PUSH1 0xA0 SHL SUB AND SWAP1 PUSH4 0x4036AB78 SWAP1 PUSH1 0x24 ADD PUSH1 0x20 PUSH1 0x40 MLOAD DUP1 DUP4 SUB DUP2 DUP7 GAS STATICCALL ISZERO DUP1 ISZERO PUSH2 0x1261 JUMPI RETURNDATASIZE PUSH1 0x0 DUP1 RETURNDATACOPY RETURNDATASIZE PUSH1 0x0 REVERT JUMPDEST POP POP POP POP PUSH1 0x40 MLOAD RETURNDATASIZE PUSH1 0x1F NOT PUSH1 0x1F DUP3 ADD AND DUP3 ADD DUP1 PUSH1 0x40 MSTORE POP DUP2 ADD SWAP1 PUSH2 0x1285 SWAP2 SWAP1 PUSH2 0x1DAF JUMP JUMPDEST SWAP1 POP DUP1 PUSH1 0x1 SUB PUSH2 0x12A9 JUMPI PUSH1 0x2 DUP1 SLOAD SWAP1 PUSH1 0x0 PUSH2 0x129F DUP4 PUSH2 0x1D96 JUMP JUMPDEST SWAP2 SWAP1 POP SSTORE POP PUSH2 0x12D7 JUMP JUMPDEST DUP1 PUSH1 0x2 SUB PUSH2 0x12C1 JUMPI PUSH1 0x3 DUP1 SLOAD SWAP1 PUSH1 0x0 PUSH2 0x129F DUP4 PUSH2 0x1D96 JUMP JUMPDEST PUSH1 0x4 DUP1 SLOAD SWAP1 PUSH1 0x0 PUSH2 0x12D1 DUP4 PUSH2 0x1D96 JUMP JUMPDEST SWAP2 SWAP1 POP SSTORE POP JUMPDEST POP PUSH1 0x40 DUP1 MLOAD PUSH1 0x80 DUP2 ADD DUP3 MSTORE DUP3 DUP2 MSTORE TIMESTAMP PUSH1 0x20 DUP1 DUP4 ADD DUP3 DUP2 MSTORE DUP4 DUP6 ADD SWAP3 DUP4 MSTORE CALLER PUSH1 0x60 DUP6 ADD SWAP1 DUP2 MSTORE PUSH1 0x0 SWAP7 DUP8 MSTORE PUSH1 0x7 SWAP1 SWAP3 MSTORE SWAP4 SWAP1 SWAP5 KECCAK256 SWAP2 MLOAD DUP3 SSTORE SWAP2 MLOAD PUSH1 0x1 DUP3 ADD SSTORE SWAP1 MLOAD PUSH1 0x2 DUP3 ADD SSTORE SWAP1 MLOAD PUSH1 0x3 SWAP1 SWAP2 ADD DUP1 SLOAD PUSH1 0x1 PUSH1 0x1 PUSH1 0xA0 SHL SUB NOT AND PUSH1 0x1 PUSH1 0x1 PUSH1 0xA0 SHL SUB SWAP1 SWAP3 AND SWAP2 SWAP1 SWAP2 OR SWAP1 SSTORE JUMP JUMPDEST PUSH1 0x0 SLOAD PUSH1 0x1 PUSH1 0x1 PUSH1 0xA0 SHL SUB AND CALLER EQ PUSH2 0x136C JUMPI PUSH1 0x40 MLOAD PUSH3 0x461BCD PUSH1 0xE5 SHL DUP2 MSTORE PUSH1 0x4 ADD PUSH2 0x410 SWAP1 PUSH2 0x1E38 JUMP JUMPDEST PUSH1 0x5 DUP1 SLOAD PUSH1 0xFF NOT AND SWAP2 ISZERO ISZERO SWAP2 SWAP1 SWAP2 OR SWAP1 SSTORE JUMP JUMPDEST PUSH2 0x138B DUP3 DUP3 PUSH1 0x0 PUSH2 0x1427 JUMP JUMPDEST POP POP JUMP JUMPDEST PUSH1 0x0 SLOAD PUSH1 0x1 PUSH1 0x1 PUSH1 0xA0 SHL SUB AND CALLER EQ PUSH2 0x13B9 JUMPI PUSH1 0x40 MLOAD PUSH3 0x461BCD PUSH1 0xE5 SHL DUP2 MSTORE PUSH1 0x4 ADD PUSH2 0x410 SWAP1 PUSH2 0x1E38 JUMP JUMPDEST PUSH1 0x1 PUSH1 0x1 PUSH1 0xA0 SHL SUB DUP2 AND PUSH2 0x141E JUMPI PUSH1 0x40 MLOAD PUSH3 0x461BCD PUSH1 0xE5 SHL DUP2 MSTORE PUSH1 0x20 PUSH1 0x4 DUP3 ADD MSTORE PUSH1 0x26 PUSH1 0x24 DUP3 ADD MSTORE PUSH32 0x4F776E61626C653A206E6577206F776E657220697320746865207A65726F2061 PUSH1 0x44 DUP3 ADD MSTORE PUSH6 0x646472657373 PUSH1 0xD0 SHL PUSH1 0x64 DUP3 ADD MSTORE PUSH1 0x84 ADD PUSH2 0x410 JUMP JUMPDEST PUSH2 0xB82 DUP2 PUSH2 0x16E6 JUMP JUMPDEST PUSH1 0x0 DUP3 DUP2 MSTORE PUSH1 0x7 PUSH1 0x20 SWAP1 DUP2 MSTORE PUSH1 0x40 DUP1 DUP4 KECCAK256 DUP2 MLOAD PUSH1 0x80 DUP2 ADD DUP4 MSTORE DUP2 SLOAD DUP2 MSTORE PUSH1 0x1 DUP3 ADD SLOAD SWAP4 DUP2 ADD SWAP4 SWAP1 SWAP4 MSTORE PUSH1 0x2 DUP2 ADD SLOAD SWAP2 DUP4 ADD SWAP2 SWAP1 SWAP2 MSTORE PUSH1 0x3 ADD SLOAD PUSH1 0x1 PUSH1 0x1 PUSH1 0xA0 SHL SUB SWAP1 DUP2 AND PUSH1 0x60 DUP4 ADD DUP2 SWAP1 MSTORE SWAP1 DUP7 AND EQ PUSH2 0x1492 JUMPI PUSH1 0x40 MLOAD PUSH3 0x461BCD PUSH1 0xE5 SHL DUP2 MSTORE PUSH1 0x4 ADD PUSH2 0x410 SWAP1 PUSH2 0x1E6D JUMP JUMPDEST PUSH1 0x20 DUP2 ADD MLOAD PUSH1 0x40 DUP1 DUP4 ADD MLOAD PUSH1 0x5 SLOAD SWAP2 MLOAD PUSH4 0x806D56F PUSH1 0xE3 SHL DUP2 MSTORE PUSH1 0x4 DUP2 ADD DUP9 SWAP1 MSTORE SWAP1 SWAP2 PUSH1 0x0 SWAP2 PUSH2 0x100 SWAP1 SWAP2 DIV PUSH1 0x1 PUSH1 0x1 PUSH1 0xA0 SHL SUB AND SWAP1 PUSH4 0x4036AB78 SWAP1 PUSH1 0x24 ADD PUSH1 0x20 PUSH1 0x40 MLOAD DUP1 DUP4 SUB DUP2 DUP7 GAS STATICCALL ISZERO DUP1 ISZERO PUSH2 0x14EE JUMPI RETURNDATASIZE PUSH1 0x0 DUP1 RETURNDATACOPY RETURNDATASIZE PUSH1 0x0 REVERT JUMPDEST POP POP POP POP PUSH1 0x40 MLOAD RETURNDATASIZE PUSH1 0x1F NOT PUSH1 0x1F DUP3 ADD AND DUP3 ADD DUP1 PUSH1 0x40 MSTORE POP DUP2 ADD SWAP1 PUSH2 0x1512 SWAP2 SWAP1 PUSH2 0x1DAF JUMP JUMPDEST SWAP1 POP PUSH1 0x0 DUP2 PUSH1 0x1 SUB PUSH2 0x1527 JUMPI POP PUSH2 0x320 PUSH2 0x153D JUMP JUMPDEST DUP2 PUSH1 0x2 SUB PUSH2 0x1538 JUMPI POP PUSH2 0x4E2 PUSH2 0x153D JUMP JUMPDEST POP PUSH2 0x834 JUMPDEST DUP4 TIMESTAMP GT DUP1 ISZERO PUSH2 0x1555 JUMPI POP PUSH2 0x1552 PUSH1 0x3C DUP5 PUSH2 0x1DFF JUMP JUMPDEST TIMESTAMP LT JUMPDEST ISZERO PUSH2 0x1591 JUMPI PUSH3 0x15180 PUSH2 0x1568 DUP6 TIMESTAMP PUSH2 0x1DFF JUMP JUMPDEST PUSH2 0x157A DUP4 PUSH8 0xDE0B6B3A7640000 PUSH2 0x1DC8 JUMP JUMPDEST PUSH2 0x1584 SWAP2 SWAP1 PUSH2 0x1DC8 JUMP JUMPDEST PUSH2 0x158E SWAP2 SWAP1 PUSH2 0x1E16 JUMP JUMPDEST SWAP6 POP JUMPDEST DUP6 ISZERO PUSH2 0x1689 JUMPI PUSH1 0x6 SLOAD PUSH1 0x40 MLOAD PUSH4 0x40C10F19 PUSH1 0xE0 SHL DUP2 MSTORE PUSH1 0x1 PUSH1 0x1 PUSH1 0xA0 SHL SUB DUP12 DUP2 AND PUSH1 0x4 DUP4 ADD MSTORE PUSH1 0x24 DUP3 ADD DUP10 SWAP1 MSTORE SWAP1 SWAP2 AND SWAP1 PUSH4 0x40C10F19 SWAP1 PUSH1 0x44 ADD PUSH1 0x0 PUSH1 0x40 MLOAD DUP1 DUP4 SUB DUP2 PUSH1 0x0 DUP8 DUP1 EXTCODESIZE ISZERO DUP1 ISZERO PUSH2 0x15E5 JUMPI PUSH1 0x0 DUP1 REVERT JUMPDEST POP GAS CALL ISZERO DUP1 ISZERO PUSH2 0x15F9 JUMPI RETURNDATASIZE PUSH1 0x0 DUP1 RETURNDATACOPY RETURNDATASIZE PUSH1 0x0 REVERT JUMPDEST POP POP POP POP PUSH1 0x40 MLOAD DUP1 PUSH1 0x80 ADD PUSH1 0x40 MSTORE DUP1 DUP10 DUP2 MSTORE PUSH1 0x20 ADD TIMESTAMP DUP2 MSTORE PUSH1 0x20 ADD DUP5 DUP2 MSTORE PUSH1 0x20 ADD DUP11 PUSH1 0x1 PUSH1 0x1 PUSH1 0xA0 SHL SUB AND DUP2 MSTORE POP PUSH1 0x7 PUSH1 0x0 DUP11 DUP2 MSTORE PUSH1 0x20 ADD SWAP1 DUP2 MSTORE PUSH1 0x20 ADD PUSH1 0x0 KECCAK256 PUSH1 0x0 DUP3 ADD MLOAD DUP2 PUSH1 0x0 ADD SSTORE PUSH1 0x20 DUP3 ADD MLOAD DUP2 PUSH1 0x1 ADD SSTORE PUSH1 0x40 DUP3 ADD MLOAD DUP2 PUSH1 0x2 ADD SSTORE PUSH1 0x60 DUP3 ADD MLOAD DUP2 PUSH1 0x3 ADD PUSH1 0x0 PUSH2 0x100 EXP DUP2 SLOAD DUP2 PUSH1 0x1 PUSH1 0x1 PUSH1 0xA0 SHL SUB MUL NOT AND SWAP1 DUP4 PUSH1 0x1 PUSH1 0x1 PUSH1 0xA0 SHL SUB AND MUL OR SWAP1 SSTORE POP SWAP1 POP POP JUMPDEST DUP7 ISZERO PUSH2 0x1699 JUMPI PUSH2 0x1699 DUP10 DUP10 PUSH2 0x1736 JUMP JUMPDEST PUSH1 0x40 DUP1 MLOAD PUSH1 0x1 PUSH1 0x1 PUSH1 0xA0 SHL SUB DUP12 AND DUP2 MSTORE PUSH1 0x20 DUP2 ADD DUP9 SWAP1 MSTORE PUSH32 0xD8138F8A3F377C5259CA548E70E4C2DE94F129F5A11036A15B69513CBA2B426A SWAP2 ADD PUSH1 0x40 MLOAD DUP1 SWAP2 SUB SWAP1 LOG1 POP POP POP POP POP POP POP POP POP JUMP JUMPDEST PUSH1 0x0 DUP1 SLOAD PUSH1 0x1 PUSH1 0x1 PUSH1 0xA0 SHL SUB DUP4 DUP2 AND PUSH1 0x1 PUSH1 0x1 PUSH1 0xA0 SHL SUB NOT DUP4 AND DUP2 OR DUP5 SSTORE PUSH1 0x40 MLOAD SWAP2 SWAP1 SWAP3 AND SWAP3 DUP4 SWAP2 PUSH32 0x8BE0079C531659141344CD1FD0A4F28419497F9722A3DAAFE3B4186F6B6457E0 SWAP2 SWAP1 LOG3 POP POP JUMP JUMPDEST PUSH1 0x0 DUP2 DUP2 MSTORE PUSH1 0x7 PUSH1 0x20 SWAP1 DUP2 MSTORE PUSH1 0x40 SWAP2 DUP3 SWAP1 KECCAK256 DUP3 MLOAD PUSH1 0x80 DUP2 ADD DUP5 MSTORE DUP2 SLOAD DUP2 MSTORE PUSH1 0x1 DUP3 ADD SLOAD SWAP3 DUP2 ADD SWAP3 SWAP1 SWAP3 MSTORE PUSH1 0x2 DUP2 ADD SLOAD SWAP3 DUP3 ADD SWAP3 SWAP1 SWAP3 MSTORE PUSH1 0x3 SWAP1 SWAP2 ADD SLOAD PUSH1 0x1 PUSH1 0x1 PUSH1 0xA0 SHL SUB AND PUSH1 0x60 DUP3 ADD DUP2 SWAP1 MSTORE CALLER EQ PUSH2 0x17A0 JUMPI PUSH1 0x40 MLOAD PUSH3 0x461BCD PUSH1 0xE5 SHL DUP2 MSTORE PUSH1 0x4 ADD PUSH2 0x410 SWAP1 PUSH2 0x1E6D JUMP JUMPDEST PUSH1 0x5 SLOAD PUSH1 0x40 MLOAD PUSH4 0x806D56F PUSH1 0xE3 SHL DUP2 MSTORE PUSH1 0x4 DUP2 ADD DUP5 SWAP1 MSTORE PUSH1 0x0 SWAP2 PUSH2 0x100 SWAP1 DIV PUSH1 0x1 PUSH1 0x1 PUSH1 0xA0 SHL SUB AND SWAP1 PUSH4 0x4036AB78 SWAP1 PUSH1 0x24 ADD PUSH1 0x20 PUSH1 0x40 MLOAD DUP1 DUP4 SUB DUP2 DUP7 GAS STATICCALL ISZERO DUP1 ISZERO PUSH2 0x17EF JUMPI RETURNDATASIZE PUSH1 0x0 DUP1 RETURNDATACOPY RETURNDATASIZE PUSH1 0x0 REVERT JUMPDEST POP POP POP POP PUSH1 0x40 MLOAD RETURNDATASIZE PUSH1 0x1F NOT PUSH1 0x1F DUP3 ADD AND DUP3 ADD DUP1 PUSH1 0x40 MSTORE POP DUP2 ADD SWAP1 PUSH2 0x1813 SWAP2 SWAP1 PUSH2 0x1DAF JUMP JUMPDEST SWAP1 POP PUSH1 0x0 DUP2 PUSH1 0x1 SUB PUSH2 0x194F JUMPI POP PUSH1 0x6 SLOAD PUSH1 0x40 MLOAD PUSH4 0x70A08231 PUSH1 0xE0 SHL DUP2 MSTORE PUSH1 0x1 PUSH1 0x1 PUSH1 0xA0 SHL SUB DUP7 DUP2 AND PUSH1 0x4 DUP4 ADD MSTORE PUSH9 0x3635C9ADC5DEA00000 SWAP3 DUP4 SWAP3 SWAP2 AND SWAP1 PUSH4 0x70A08231 SWAP1 PUSH1 0x24 ADD PUSH1 0x20 PUSH1 0x40 MLOAD DUP1 DUP4 SUB DUP2 DUP7 GAS STATICCALL ISZERO DUP1 ISZERO PUSH2 0x1876 JUMPI RETURNDATASIZE PUSH1 0x0 DUP1 RETURNDATACOPY RETURNDATASIZE PUSH1 0x0 REVERT JUMPDEST POP POP POP POP PUSH1 0x40 MLOAD RETURNDATASIZE PUSH1 0x1F NOT PUSH1 0x1F DUP3 ADD AND DUP3 ADD DUP1 PUSH1 0x40 MSTORE POP DUP2 ADD SWAP1 PUSH2 0x189A SWAP2 SWAP1 PUSH2 0x1DAF JUMP JUMPDEST LT ISZERO PUSH2 0x18E8 JUMPI PUSH1 0x40 MLOAD PUSH3 0x461BCD PUSH1 0xE5 SHL DUP2 MSTORE PUSH1 0x20 PUSH1 0x4 DUP3 ADD MSTORE PUSH1 0x1A PUSH1 0x24 DUP3 ADD MSTORE PUSH32 0x596F7520646F6E2774206861766520656E6F75676820536F756C000000000000 PUSH1 0x44 DUP3 ADD MSTORE PUSH1 0x64 ADD PUSH2 0x410 JUMP JUMPDEST PUSH1 0x6 SLOAD PUSH1 0x40 MLOAD PUSH4 0x79CC679 PUSH1 0xE4 SHL DUP2 MSTORE PUSH1 0x1 PUSH1 0x1 PUSH1 0xA0 SHL SUB DUP8 DUP2 AND PUSH1 0x4 DUP4 ADD MSTORE PUSH1 0x24 DUP3 ADD DUP5 SWAP1 MSTORE SWAP1 SWAP2 AND SWAP1 PUSH4 0x79CC6790 SWAP1 PUSH1 0x44 ADD PUSH1 0x0 PUSH1 0x40 MLOAD DUP1 DUP4 SUB DUP2 PUSH1 0x0 DUP8 DUP1 EXTCODESIZE ISZERO DUP1 ISZERO PUSH2 0x1936 JUMPI PUSH1 0x0 DUP1 REVERT JUMPDEST POP GAS CALL ISZERO DUP1 ISZERO PUSH2 0x194A JUMPI RETURNDATASIZE PUSH1 0x0 DUP1 RETURNDATACOPY RETURNDATASIZE PUSH1 0x0 REVERT JUMPDEST POP POP POP POP JUMPDEST DUP2 PUSH1 0x1 SUB PUSH2 0x1971 JUMPI PUSH1 0x2 DUP1 SLOAD SWAP1 PUSH1 0x0 PUSH2 0x1967 DUP4 PUSH2 0x1EB9 JUMP JUMPDEST SWAP2 SWAP1 POP SSTORE POP PUSH2 0x199F JUMP JUMPDEST DUP2 PUSH1 0x2 SUB PUSH2 0x1989 JUMPI PUSH1 0x3 DUP1 SLOAD SWAP1 PUSH1 0x0 PUSH2 0x1967 DUP4 PUSH2 0x1EB9 JUMP JUMPDEST PUSH1 0x4 DUP1 SLOAD SWAP1 PUSH1 0x0 PUSH2 0x1999 DUP4 PUSH2 0x1EB9 JUMP JUMPDEST SWAP2 SWAP1 POP SSTORE POP JUMPDEST PUSH1 0x0 DUP5 DUP2 MSTORE PUSH1 0x7 PUSH1 0x20 SWAP1 DUP2 MSTORE PUSH1 0x40 DUP1 DUP4 KECCAK256 DUP4 DUP2 SSTORE PUSH1 0x1 DUP2 ADD DUP5 SWAP1 SSTORE PUSH1 0x2 DUP2 ADD SWAP4 SWAP1 SWAP4 SSTORE PUSH1 0x3 SWAP1 SWAP3 ADD DUP1 SLOAD PUSH1 0x1 PUSH1 0x1 PUSH1 0xA0 SHL SUB NOT AND SWAP1 SSTORE DUP2 MLOAD PUSH1 0x1 PUSH1 0x1 PUSH1 0xA0 SHL SUB DUP9 AND DUP2 MSTORE SWAP1 DUP2 ADD DUP7 SWAP1 MSTORE TIMESTAMP DUP2 DUP4 ADD MSTORE SWAP1 MLOAD PUSH32 0xD8DB7BAE94B2583013BAD633657A80AAB4B97994705848FE61451DDCF5A054AA SWAP2 DUP2 SWAP1 SUB PUSH1 0x60 ADD SWAP1 LOG1 PUSH1 0x5 SLOAD PUSH1 0x40 MLOAD PUSH4 0x23B872DD PUSH1 0xE0 SHL DUP2 MSTORE ADDRESS PUSH1 0x4 DUP3 ADD MSTORE PUSH1 0x1 PUSH1 0x1 PUSH1 0xA0 SHL SUB DUP8 DUP2 AND PUSH1 0x24 DUP4 ADD MSTORE PUSH1 0x44 DUP3 ADD DUP8 SWAP1 MSTORE PUSH2 0x100 SWAP1 SWAP3 DIV SWAP1 SWAP2 AND SWAP1 PUSH4 0x23B872DD SWAP1 PUSH1 0x64 ADD PUSH1 0x0 PUSH1 0x40 MLOAD DUP1 DUP4 SUB DUP2 PUSH1 0x0 DUP8 DUP1 EXTCODESIZE ISZERO DUP1 ISZERO PUSH2 0x1A74 JUMPI PUSH1 0x0 DUP1 REVERT JUMPDEST POP GAS CALL ISZERO DUP1 ISZERO PUSH2 0x1A88 JUMPI RETURNDATASIZE PUSH1 0x0 DUP1 RETURNDATACOPY RETURNDATASIZE PUSH1 0x0 REVERT JUMPDEST POP POP POP POP POP POP POP POP POP JUMP JUMPDEST PUSH1 0x1 PUSH1 0x1 PUSH1 0xA0 SHL SUB DUP2 AND DUP2 EQ PUSH2 0xB82 JUMPI PUSH1 0x0 DUP1 REVERT JUMPDEST PUSH1 0x0 DUP1 PUSH1 0x0 DUP1 PUSH1 0x0 PUSH1 0x80 DUP7 DUP9 SUB SLT ISZERO PUSH2 0x1AC0 JUMPI PUSH1 0x0 DUP1 REVERT JUMPDEST DUP6 CALLDATALOAD PUSH2 0x1ACB DUP2 PUSH2 0x1A93 JUMP JUMPDEST SWAP5 POP PUSH1 0x20 DUP7 ADD CALLDATALOAD PUSH2 0x1ADB DUP2 PUSH2 0x1A93 JUMP JUMPDEST SWAP4 POP PUSH1 0x40 DUP7 ADD CALLDATALOAD SWAP3 POP PUSH1 0x60 DUP7 ADD CALLDATALOAD PUSH8 0xFFFFFFFFFFFFFFFF DUP1 DUP3 GT ISZERO PUSH2 0x1AFF JUMPI PUSH1 0x0 DUP1 REVERT JUMPDEST DUP2 DUP9 ADD SWAP2 POP DUP9 PUSH1 0x1F DUP4 ADD SLT PUSH2 0x1B13 JUMPI PUSH1 0x0 DUP1 REVERT JUMPDEST DUP2 CALLDATALOAD DUP2 DUP2 GT ISZERO PUSH2 0x1B22 JUMPI PUSH1 0x0 DUP1 REVERT JUMPDEST DUP10 PUSH1 0x20 DUP3 DUP6 ADD ADD GT ISZERO PUSH2 0x1B34 JUMPI PUSH1 0x0 DUP1 REVERT JUMPDEST SWAP7 SWAP10 SWAP6 SWAP9 POP SWAP4 SWAP7 POP PUSH1 0x20 ADD SWAP5 SWAP4 SWAP3 POP POP POP JUMP JUMPDEST PUSH1 0x0 DUP1 PUSH1 0x40 DUP4 DUP6 SUB SLT ISZERO PUSH2 0x1B5A JUMPI PUSH1 0x0 DUP1 REVERT JUMPDEST DUP3 CALLDATALOAD PUSH2 0x1B65 DUP2 PUSH2 0x1A93 JUMP JUMPDEST SWAP5 PUSH1 0x20 SWAP4 SWAP1 SWAP4 ADD CALLDATALOAD SWAP4 POP POP POP JUMP JUMPDEST PUSH1 0x20 DUP1 DUP3 MSTORE DUP3 MLOAD DUP3 DUP3 ADD DUP2 SWAP1 MSTORE PUSH1 0x0 SWAP2 SWAP1 PUSH1 0x40 SWAP1 DUP2 DUP6 ADD SWAP1 DUP7 DUP5 ADD DUP6 JUMPDEST DUP3 DUP2 LT ISZERO PUSH2 0x1BB5 JUMPI DUP2 MLOAD DUP1 MLOAD DUP6 MSTORE DUP7 ADD MLOAD DUP7 DUP6 ADD MSTORE SWAP3 DUP5 ADD SWAP3 SWAP1 DUP6 ADD SWAP1 PUSH1 0x1 ADD PUSH2 0x1B90 JUMP JUMPDEST POP SWAP2 SWAP8 SWAP7 POP POP POP POP POP POP POP JUMP JUMPDEST PUSH1 0x0 PUSH1 0x20 DUP3 DUP5 SUB SLT ISZERO PUSH2 0x1BD4 JUMPI PUSH1 0x0 DUP1 REVERT JUMPDEST DUP2 CALLDATALOAD PUSH2 0x1BDF DUP2 PUSH2 0x1A93 JUMP JUMPDEST SWAP4 SWAP3 POP POP POP JUMP JUMPDEST PUSH1 0x0 PUSH1 0x20 DUP3 DUP5 SUB SLT ISZERO PUSH2 0x1BF8 JUMPI PUSH1 0x0 DUP1 REVERT JUMPDEST POP CALLDATALOAD SWAP2 SWAP1 POP JUMP JUMPDEST PUSH1 0x0 DUP1 PUSH1 0x20 DUP4 DUP6 SUB SLT ISZERO PUSH2 0x1C12 JUMPI PUSH1 0x0 DUP1 REVERT JUMPDEST DUP3 CALLDATALOAD PUSH8 0xFFFFFFFFFFFFFFFF DUP1 DUP3 GT ISZERO PUSH2 0x1C2A JUMPI PUSH1 0x0 DUP1 REVERT JUMPDEST DUP2 DUP6 ADD SWAP2 POP DUP6 PUSH1 0x1F DUP4 ADD SLT PUSH2 0x1C3E JUMPI PUSH1 0x0 DUP1 REVERT JUMPDEST DUP2 CALLDATALOAD DUP2 DUP2 GT ISZERO PUSH2 0x1C4D JUMPI PUSH1 0x0 DUP1 REVERT JUMPDEST DUP7 PUSH1 0x20 DUP3 PUSH1 0x5 SHL DUP6 ADD ADD GT ISZERO PUSH2 0x1C62 JUMPI PUSH1 0x0 DUP1 REVERT JUMPDEST PUSH1 0x20 SWAP3 SWAP1 SWAP3 ADD SWAP7 SWAP2 SWAP6 POP SWAP1 SWAP4 POP POP POP POP JUMP JUMPDEST PUSH1 0x0 PUSH1 0x20 DUP3 DUP5 SUB SLT ISZERO PUSH2 0x1C86 JUMPI PUSH1 0x0 DUP1 REVERT JUMPDEST DUP2 CALLDATALOAD DUP1 ISZERO ISZERO DUP2 EQ PUSH2 0x1BDF JUMPI PUSH1 0x0 DUP1 REVERT JUMPDEST PUSH4 0x4E487B71 PUSH1 0xE0 SHL PUSH1 0x0 MSTORE PUSH1 0x41 PUSH1 0x4 MSTORE PUSH1 0x24 PUSH1 0x0 REVERT JUMPDEST PUSH1 0x0 PUSH1 0x20 DUP1 DUP4 DUP6 SUB SLT ISZERO PUSH2 0x1CBF JUMPI PUSH1 0x0 DUP1 REVERT JUMPDEST DUP3 MLOAD PUSH8 0xFFFFFFFFFFFFFFFF DUP1 DUP3 GT ISZERO PUSH2 0x1CD7 JUMPI PUSH1 0x0 DUP1 REVERT JUMPDEST DUP2 DUP6 ADD SWAP2 POP DUP6 PUSH1 0x1F DUP4 ADD SLT PUSH2 0x1CEB JUMPI PUSH1 0x0 DUP1 REVERT JUMPDEST DUP2 MLOAD DUP2 DUP2 GT ISZERO PUSH2 0x1CFD JUMPI PUSH2 0x1CFD PUSH2 0x1C96 JUMP JUMPDEST DUP1 PUSH1 0x5 SHL PUSH1 0x40 MLOAD PUSH1 0x1F NOT PUSH1 0x3F DUP4 ADD AND DUP2 ADD DUP2 DUP2 LT DUP6 DUP3 GT OR ISZERO PUSH2 0x1D22 JUMPI PUSH2 0x1D22 PUSH2 0x1C96 JUMP JUMPDEST PUSH1 0x40 MSTORE SWAP2 DUP3 MSTORE DUP5 DUP3 ADD SWAP3 POP DUP4 DUP2 ADD DUP6 ADD SWAP2 DUP9 DUP4 GT ISZERO PUSH2 0x1D40 JUMPI PUSH1 0x0 DUP1 REVERT JUMPDEST SWAP4 DUP6 ADD SWAP4 JUMPDEST DUP3 DUP6 LT ISZERO PUSH2 0x1D5E JUMPI DUP5 MLOAD DUP5 MSTORE SWAP4 DUP6 ADD SWAP4 SWAP3 DUP6 ADD SWAP3 PUSH2 0x1D45 JUMP JUMPDEST SWAP9 SWAP8 POP POP POP POP POP POP POP POP JUMP JUMPDEST PUSH4 0x4E487B71 PUSH1 0xE0 SHL PUSH1 0x0 MSTORE PUSH1 0x32 PUSH1 0x4 MSTORE PUSH1 0x24 PUSH1 0x0 REVERT JUMPDEST PUSH4 0x4E487B71 PUSH1 0xE0 SHL PUSH1 0x0 MSTORE PUSH1 0x11 PUSH1 0x4 MSTORE PUSH1 0x24 PUSH1 0x0 REVERT JUMPDEST PUSH1 0x0 PUSH1 0x1 DUP3 ADD PUSH2 0x1DA8 JUMPI PUSH2 0x1DA8 PUSH2 0x1D80 JUMP JUMPDEST POP PUSH1 0x1 ADD SWAP1 JUMP JUMPDEST PUSH1 0x0 PUSH1 0x20 DUP3 DUP5 SUB SLT ISZERO PUSH2 0x1DC1 JUMPI PUSH1 0x0 DUP1 REVERT JUMPDEST POP MLOAD SWAP2 SWAP1 POP JUMP JUMPDEST PUSH1 0x0 DUP2 PUSH1 0x0 NOT DIV DUP4 GT DUP3 ISZERO ISZERO AND ISZERO PUSH2 0x1DE2 JUMPI PUSH2 0x1DE2 PUSH2 0x1D80 JUMP JUMPDEST POP MUL SWAP1 JUMP JUMPDEST PUSH1 0x0 DUP3 NOT DUP3 GT ISZERO PUSH2 0x1DFA JUMPI PUSH2 0x1DFA PUSH2 0x1D80 JUMP JUMPDEST POP ADD SWAP1 JUMP JUMPDEST PUSH1 0x0 DUP3 DUP3 LT ISZERO PUSH2 0x1E11 JUMPI PUSH2 0x1E11 PUSH2 0x1D80 JUMP JUMPDEST POP SUB SWAP1 JUMP JUMPDEST PUSH1 0x0 DUP3 PUSH2 0x1E33 JUMPI PUSH4 0x4E487B71 PUSH1 0xE0 SHL PUSH1 0x0 MSTORE PUSH1 0x12 PUSH1 0x4 MSTORE PUSH1 0x24 PUSH1 0x0 REVERT JUMPDEST POP DIV SWAP1 JUMP JUMPDEST PUSH1 0x20 DUP1 DUP3 MSTORE DUP2 DUP2 ADD MSTORE PUSH32 0x4F776E61626C653A2063616C6C6572206973206E6F7420746865206F776E6572 PUSH1 0x40 DUP3 ADD MSTORE PUSH1 0x60 ADD SWAP1 JUMP JUMPDEST PUSH1 0x20 DUP1 DUP3 MSTORE PUSH1 0x15 SWAP1 DUP3 ADD MSTORE PUSH21 0x2CB7BA9030B932903737BA103A34329037BBB732B9 PUSH1 0x59 SHL PUSH1 0x40 DUP3 ADD MSTORE PUSH1 0x60 ADD SWAP1 JUMP JUMPDEST PUSH1 0x0 PUSH1 0x20 DUP3 DUP5 SUB SLT ISZERO PUSH2 0x1EAE JUMPI PUSH1 0x0 DUP1 REVERT JUMPDEST DUP2 MLOAD PUSH2 0x1BDF DUP2 PUSH2 0x1A93 JUMP JUMPDEST PUSH1 0x0 DUP2 PUSH2 0x1EC8 JUMPI PUSH2 0x1EC8 PUSH2 0x1D80 JUMP JUMPDEST POP PUSH1 0x0 NOT ADD SWAP1 JUMP INVALID LOG2 PUSH5 0x6970667358 0x22 SLT KECCAK256 0xE6 PUSH9 0x34353463EEB28319CA SELFBALANCE DUP3 0xE6 PUSH26 0x94E7AE72D1365A473C78F624F85D39194A64736F6C634300080D STOP CALLER ",
  "sha1": "655777a93c82c09e6377392b68ba0233f39fceb4",
  "source": "//SPDX-License-Identifier: Unlicense\npragma solidity ^0.8.4;\nimport \"@openzeppelin/contracts/access/Ownable.sol\";\nimport \"@openzeppelin/contracts/token/ERC721/IERC721Receiver.sol\";\nimport \"@openzeppelin/contracts/security/Pausable.sol\";\n\nimport \"./Celestial.sol\";\nimport \"./Soul.sol\";\n\ncontract CelestialStake is Ownable, Pausable, IERC721Receiver {\n    uint256 public totalStaked;\n    uint256 public totalAngleStaked;\n    uint256 public totalDemonStaked;\n    uint256 public totalNephilimStaked;\n    bool public EnableEarning;\n\n    // struct to store nft holder information\n    struct StakedCelestail {\n        uint256 tokenId;\n        uint256 timestamp;\n        uint256 cooldown;\n        address owner;\n    }\n    struct CelestialInfo {\n        uint256 tokenId;\n        uint256 celestialType;\n    }\n    // staking Events\n    event NFTStaked(address owner, uint256 tokenId, uint256 value);\n    event NFTUnStaked(address owner, uint256 tokenId, uint256 value);\n    event Claimed(address owner, uint256 amount);\n\n    // Point NFT contract and token\n    Celestial celestialNFT;\n    Soul soul;\n\n    // Reference tokenId to StakedCelestial\n    mapping(uint256 => StakedCelestail) public vault;\n\n    // Costructor\n\n    constructor(Celestial _celestialNFT, Soul _soul) {\n        celestialNFT = _celestialNFT;\n        soul = _soul;\n        EnableEarning = true;\n    }\n    function setEnableEarning(bool earning) external onlyOwner {\n\n        EnableEarning = earning;\n    }\n\n    // Stake\n    function stake(uint256 tokenId) external whenNotPaused {\n        require(\n            celestialNFT.ownerOf(tokenId) == msg.sender,\n            \"You don't own this token\"\n        );\n        require(vault[tokenId].tokenId == 0, \"this token already staked\");\n        // Transfer the nft to this contract\n        celestialNFT.transferFrom(msg.sender, address(this), tokenId);\n        emit NFTStaked(msg.sender, tokenId, block.timestamp);\n\n        uint256 celestialType = celestialNFT.getType(tokenId);\n        if (celestialType == 1) {\n            totalAngleStaked++;\n        } else if (celestialType == 2) {\n            totalDemonStaked++;\n        } else {\n            totalNephilimStaked++;\n        }\n\n        // Add the nft to the vault\n        vault[tokenId] = StakedCelestail({\n            owner: msg.sender,\n            tokenId: tokenId,\n            timestamp: uint256(block.timestamp),\n            cooldown: uint256(block.timestamp)\n        });\n    }\n\n    function startEarning(uint256 tokenId) external whenNotPaused {\n        StakedCelestail memory staked = vault[tokenId];\n        require(staked.owner == msg.sender, \"You are not the owner\");\n        require(block.timestamp > staked.cooldown, \"You are in cooldown\");\n        require(EnableEarning,\"Maintenance\");\n        vault[tokenId] = StakedCelestail({\n            owner: msg.sender,\n            tokenId: tokenId,\n            timestamp: uint256(block.timestamp),\n            cooldown: uint256(block.timestamp + 1 days)\n        });\n    }\n\n    // Unstake and claim internal functions\n    function _unstake(address owner, uint256 tokenId) internal {\n        StakedCelestail memory staked = vault[tokenId];\n        require(staked.owner == msg.sender, \"You are not the owner\");\n        uint256 celestialType = celestialNFT.getType(tokenId);\n        uint256 unstakeCost;\n        if (celestialType == 1) {\n            unstakeCost = 1000 ether;\n            require(soul.balanceOf(owner) >= unstakeCost, \"You don't have enough Soul\");\n            soul.burnFrom(owner,unstakeCost);\n        }\n\n        if (celestialType == 1) {\n            totalAngleStaked--;\n        } else if (celestialType == 2) {\n            totalDemonStaked--;\n        } else {\n            totalNephilimStaked--;\n        }\n\n        delete vault[tokenId];\n        emit NFTUnStaked(owner, tokenId, block.timestamp);\n        celestialNFT.transferFrom(address(this), owner, tokenId);\n    }\n\n    function _claim(\n        address owner,\n        uint256 tokenId,\n        bool _unstaked\n    ) internal {\n        uint256 earned = 0;\n        StakedCelestail memory staked = vault[tokenId];\n        require(staked.owner == owner, \"You are not the owner\");\n        uint256 stakedAt = staked.timestamp;\n        uint256 cooldown = staked.cooldown;\n        uint256 celestialType = celestialNFT.getType(tokenId);\n        uint256 earnCost;\n        if (celestialType == 1) {\n            earnCost = 800;\n        } else if(celestialType == 2) {\n            earnCost = 1250;\n        }else{\n            earnCost = 2100;\n        }\n        // Calculate the token that earned by this nft\n        if (\n            block.timestamp > stakedAt && block.timestamp < cooldown - 1 minutes\n        ) {\n            earned = (earnCost*10**18 * (block.timestamp - stakedAt)) / 1 days; // 10**18 = ether\n        }\n        if (earned > 0) {\n            //earned = earned / 800;\n            soul.mint(owner, earned);\n            vault[tokenId] = StakedCelestail({\n                owner: owner,\n                tokenId: tokenId,\n                timestamp: uint256(block.timestamp),\n                cooldown: cooldown\n            });\n        }\n        if (_unstaked) {\n            _unstake(owner, tokenId);\n        }\n        emit Claimed(owner, earned);\n    }\n\n    //Unstake and claim public functions\n\n    function claim(uint256 tokenId) external {\n        _claim(msg.sender, tokenId, false);\n    }\n\n    function claimForAddress(address account, uint256 tokenId) external {\n        _claim(account, tokenId, false);\n    }\n\n    function unstake(uint256 tokenId) external {\n        _claim(msg.sender, tokenId, true);\n    }\n\n    // Staking Information\n    function getCooldown(uint256 tokenId) external view returns (uint256) {\n        StakedCelestail memory staked = vault[tokenId];\n        return staked.cooldown;\n    }\n\n    function earningInfo(uint256[] calldata tokenIds)\n        external\n        view\n        returns (uint256)\n    {\n        uint256 earned = 0;\n        uint256 tokenId;\n\n        for (uint256 i = 0; i < tokenIds.length; i++) {\n            tokenId = tokenIds[i];\n            uint256 celestialType = celestialNFT.getType(tokenId);\n            uint256 earnCost;\n            if (celestialType == 1) {\n                earnCost = 800;\n            } else if(celestialType == 2) {\n                earnCost = 1250;\n            }else{\n                earnCost = 2100;\n            }\n            StakedCelestail memory staked = vault[tokenId];\n            uint256 stakedAt = staked.timestamp;\n            uint256 cooldown = staked.cooldown;\n            // this is the Reward Price Calculation\n            if (\n                block.timestamp > stakedAt &&\n                block.timestamp < cooldown - 1 minutes\n            ) {\n                earned += (earnCost *10**18 * (block.timestamp - stakedAt)) / 1 days;\n            }\n        }\n        return earned;\n    }\n\n    function getUnstakedCelestials() external view returns (uint256) {\n        uint256 supply = celestialNFT.totalSupply();\n        return supply - totalStaked;\n    }\n\n    function balanceOf(address account) public view returns (uint256) {\n        uint256 balance = 0;\n        uint256 supply = celestialNFT.totalSupply();\n        for (uint256 i = 1; i <= supply; i++) {\n            if (vault[i].owner == account) {\n                balance += 1;\n            }\n        }\n        return balance;\n    }\n\n    // Total Staked per Owener with tokenIds\n    function tokenOfOwner(address account)\n        public\n        view\n        returns (CelestialInfo[] memory ownerTokens)\n    {\n\n        uint256[] memory temp = celestialNFT.GetTokenIdsOfOwner(address(this));\n        uint256 index = 0;\n        uint256[] memory Ids = new uint256[](temp.length);\n        for (uint256 i = 0; i < temp.length; i++) {\n            if(vault[temp[i]].owner == account){\n                Ids[index] = i;\n                index++;\n            }\n        }\n        CelestialInfo[] memory info = new CelestialInfo[](index);\n        for (uint256 i = 0; i < index; i++) {\n                uint256 tokenId = temp[Ids[i]];\n                uint256 celestialType = celestialNFT.getType(tokenId);\n                info[i] = CelestialInfo({\n                    tokenId:tokenId,\n                    celestialType:celestialType\n                });\n        }\n\n        // uint256 supply = celestialNFT.totalSupply();\n        // uint256[] memory tmp = new uint256[](supply);\n        // uint256 index = 0;\n        // for (uint256 i = 0; i <= supply; i++) {\n        //     if (vault[i].owner == account) {\n        //         tmp[index] = vault[i].tokenId;\n        //         index++;\n        //     }\n        // }\n        // CelestialInfo[] memory info = new CelestialInfo[](index);\n        // for (uint256 i = 0; i < index; i++) {\n        //     uint256 tokenId = tmp[i]; // tokenOfOwnerByIndex comes from IERC721Enumerable\n        //     uint256 celestialType = celestialNFT.getType(tokenId);\n        //     info[i] = CelestialInfo({\n        //         tokenId: tokenId,\n        //         celestialType: celestialType\n        //     });\n        // }\n        return info;\n    }\n\n    function tokenOfOwnerBached(address _owner, uint256 _page) \n        public \n        view \n        returns(CelestialInfo[] memory) \n    {\n        uint256[] memory temp = celestialNFT.GetTokenIdsOfOwner(address(this));\n        uint256 index = 0;\n        uint256[] memory Ids = new uint256[](temp.length);\n        for (uint256 i = 0; i < temp.length; i++) {\n            if(vault[temp[i]].owner == _owner){\n                Ids[index] = i;\n                index++;\n            }\n        }\n        CelestialInfo[] memory info = new CelestialInfo[](index);\n        for (uint256 i = 0; i < index; i++) {\n                uint256 tokenId = temp[Ids[i]];\n                uint256 celestialType = celestialNFT.getType(tokenId);\n                info[i] = CelestialInfo({\n                    tokenId:tokenId,\n                    celestialType:celestialType\n                });\n        }\n        CelestialInfo[] memory celestials = new CelestialInfo[](5);\n        uint256 StartPoint = _page * 5;\n        uint256 EndPoint = StartPoint + 5;\n\n        if (EndPoint > info.length) {\n            EndPoint = info.length;\n        }\n        for (uint256 i = StartPoint; i < EndPoint; i++) {\n            uint256 tokenId = info[i].tokenId; // tokenOfOwnerByIndex comes from IERC721Enumerable\n            uint256 celestialType = info[i].celestialType;\n            celestials[i] = CelestialInfo({\n                tokenId: tokenId,\n                celestialType: celestialType\n            });\n        }\n        return celestials;\n\n    }\n\n    function onERC721Received(\n        address,\n        address from,\n        uint256,\n        bytes calldata\n    ) external pure override returns (bytes4) {\n        require(from == address(0x0), \"Cannot send nfts to Vault directoies\");\n        return IERC721Receiver.onERC721Received.selector;\n    }\n}\n",
  "sourcePath": "contracts/CelestialStake.sol",
  "type": "contract"
}